:020000040800F2
:1000000058070020910100087D14000875140008AD
:100010007914000851040008911400080000000041
:10002000000000000000000000000000851400082F
:10003000550400080000000081140008891400081D
:10004000AB010008AB010008AB010008AB010008E0
:10005000AB010008AB010008AB010008AB010008D0
:10006000AB010008AB010008AB010008AB010008C0
:10007000AB010008AB010008AB010008AB010008B0
:10008000AB010008AB010008AB010008AB010008A0
:10009000AB010008AB010008AB010008AB01000890
:1000A000AB010008AB010008AB010008AB01000880
:1000B000AB010008AB010008AB010008AB01000870
:1000C000AB010008AB010008AB010008AB01000860
:1000D000AB010008AB010008AB010008AB01000850
:1000E000AB010008AB010008AB01000800F002F80A
:1000F00000F03FF80AA090E8000C82448344AAF183
:100100000107DA4501D100F034F8AFF2090EBAE880
:100110000F0013F0010F18BFFB1A43F0010318473B
:10012000B8150000D8150000103A24BF78C878C16F
:10013000FAD8520724BF30C830C144BF04680C60ED
:10014000704700000023002400250026103A28BF35
:1001500078C1FBD8520728BF30C148BF0B60704739
:10016000642900F07580002070471FB51FBD10B5D1
:1001700010BD00F033F91146FFF7F7FF01F09AF9CF
:1001800000F051F903B4FFF7F2FF03BC00F058F997
:100190000948804709480047FEE7FEE7FEE7FEE71B
:1001A000FEE7FEE7FEE7FEE7FEE7FEE70448054957
:1001B000054A064B704700008D140008ED0000084A
:1001C0005801002058070020580300205803002041
:1001D0000FB4044910B503AA029800F0D1F810BC7E
:1001E0005DF814FB700000202DE9F0410E46044636
:1001F000002020622046E168884730B3252805D0DA
:10020000D4E901219047206A401CF2E7E1682046CA
:1002100000278847050018D0A5F14100192802D809
:1002200020354FF400673246294620462760FFF705
:1002300097FF40B1012804D0F61D26F007060836C6
:10024000D8E7361DD6E72846DAE7206ABDE8F08110
:100250002DE9F0410646002410687529314616A59F
:1002600010D0AFF30080002802DA404213A507E067
:1002700031688A0701D512A502E0490704D511A506
:10028000012401E0AFF3008000210A2206F12407D7
:1002900009E0B0FBF2FCB0FBF2F302FB1C003030D3
:1002A00078541846491C0028F3D123462A46304684
:1002B000BDE8F04100F00BB8000000002D00000088
:1002C0002B000000200000007047704770472DE9A8
:1002D000F0470D4699469246044600F1240801680D
:1002E000880604D5E06921F01001216000E00120BA
:1002F000A84201DD471B00E00027A1697A1902EB43
:100300000900081AA0612078C00602D42046AFF385
:100310000080002608E0D4E901211AF80600904781
:10032000206A401C761C20624E45F4DB2078C00613
:100330000AD52046AFF3008006E0D4E90121302041
:100340009047206A401C2062381EA7F10107F4DCA8
:1003500007E0D4E9012118F805009047206A401C05
:100360002062281EA5F10105F3DC2046AFF30080D2
:100370002078000602D50220BDE8F0870120FBE7C7
:10038000074B70B50D467B4400F011F80446284633
:1003900000F020F810B14FF0FF3070BD204670BD66
:1003A0000B11000001694A1C02610878704700B512
:1003B0008FB0CDE901310021059105497944CDE99E
:1003C000031011466846FFF70FFF0FB000BD000095
:1003D000E5FFFFFF007B00F080007047754600F0EE
:1003E0002BF8AE4605006946534620F007008546C7
:1003F00018B020B5FFF7DAFEBDE820404FF0000648
:100400004FF000074FF000084FF0000BAC46ACE88F
:10041000C009ACE8C009ACE8C009ACE8C00921F0EB
:1004200007018D46704710B50446AFF300802046A3
:10043000BDE81040FFF7A6BE00487047100000203E
:1004400001491820ABBEFEE72600020070470000FD
:10045000FEE70000704700002DE9F04F82B00E6803
:10046000002E00F0038140F20C4C41F200424FF6A6
:10047000FF7EC4F2010CC4F2010204270024012310
:10048000C1F2100E4FF0000A4FF00009904208BF71
:100490000327009745E000BF012704F00C030F225B
:1004A0009A402BEA020207FA03F34FEA9A051A432D
:1004B00046F82520D1F804B040F20045C4F2010509
:1004C0005FEACB322A6854BF22EA080242EA0802F5
:1004D0002A606A685FEA8B3354BF22EA080242EA64
:1004E00008026A605FEACB23AA6854BF22EA0802C6
:1004F00042EA08025FEA8B23AA60DCF800204FF092
:10050000010354BF22EA080242EA0802CCF80020A4
:100510000E680AF1010A36FA0AF204F1040400F046
:10052000A58003FA0AF816EA080FF1D04E6876455E
:1005300012DC122E56D8DFE806F0350B454955552A
:1005400055555555555555555555554D510000BFA7
:10055000D1F80C9046E000BF4FF6FF72C1F22102C5
:1005600096420FDC0022C1F2110296421AD00022FC
:10057000C1F21202964215D00022C1F22102964227
:1005800010D02FE00022C1F2220296420AD00022AF
:10059000C1F23102964205D00022C1F232029642E7
:1005A00020D100BF8A684AB1012A14BFC0F8148064
:1005B000C0F810804FF0080914E000BF4FF00409A4
:1005C00010E000BFCA6802F108090BE04FF0000913
:1005D00008E000BFCA6802F1040903E0CA6802F13A
:1005E0000C0900BF22460646BAF1080F24BF203A84
:1005F000043637680F25954027EA050509FA02F207
:100600002A433260CA79D2067FF582AF41F21803DD
:10061000C4F202031A6842F001021A601A6802F07A
:1006200001020192019A40F20042C4F20102A2F5D5
:100630007E762AF0030256F802B040F60002C4F2B9
:100640000102904210D040F60042C4F201029042F2
:100650003FF422AF41F20002C4F20102009F904237
:1006600008BF022719E700BF002716E702B0BDE860
:10067000F08F0000C26802EA0103914341EA03419E
:1006800001617047002A08BF09040161704700003A
:1006900040F25010C2F200000068704740F20000C3
:1006A00040F25011C2F20000C2F2000100780A6864
:1006B000104408607047000080B542F20000C4F2A8
:1006C0000200016841F010010160032000F07AF897
:1006D0000F2000F005F800F027F8002080BD000092
:1006E00070B540F20006C2F2000640F2080132780E
:1006F000C2F200014FF47A730968B3FBF2F20446C8
:10070000B1FBF2F1084600F053FB0F2C4FF001054E
:1007100008D838B94FF0FF3021460022002500F0FC
:1007200025F87460284670BD82B041F21800C4F20A
:1007300002000168022241F001010160016801F03C
:10074000010101910199416841F080514160406887
:1007500000F08050009000980420C4F2010001686D
:1007600062F31A61016002B07047000010B54EF6E6
:100770000C5CCEF2000CDCF80030C3F3022E8EF0DD
:100780000704042C28BF0424BEF103034FF0FF3EEE
:100790000EFA04F438BF0023A14399400EFA03F384
:1007A0009A43114300F00F0200F160430901043A3B
:1007B00003F564436244002848BF02F10C0319703A
:1007C00010BD00004EF60C51CEF200010A684FF643
:1007D000FF031A4060F30A2242F0806040F0FD708F
:1007E000086070472DE9F04381B0002800F0838055
:1007F00042F20008C4F202080446D8F800000D4690
:1008000000F0070088420CD2D8F8000020F0070062
:100810002843C8F80000D8F8000000F00700A842FC
:1008200069D1206841F204098107C4F2020917D591
:10083000410705D5D9F8001041F4E061C9F800106E
:10084000010705D5D9F8001041F46051C9F800102E
:10085000D9F80010A26821F0F0011143C9F8001086
:10086000C0073FD1D8F8000000F00700A8420CD91B
:10087000D8F8000020F007002843C8F80000D8F896
:10088000000000F00700A84235D12068410707D5D5
:10089000D9F80010E26821F4E0611143C9F80010B2
:1008A000000708D5D9F80000216920F4605040EA1B
:1008B000C100C9F80000D9F8001040F6001001F09E
:1008C0000C02042AC0F23D0054D0082A40D141F263
:1008D000C663C1F38342C0F600039A5CC9033DD4EA
:1008E000504347E0606802280AD001282AD159F80D
:1008F000041C890308D4012001B0BDE8F08300BFC7
:1009000059F8041C8901F6D5D9F8001021F003012B
:100910000843C9F80000FFF7BBFE064641F28837DE
:10092000D9F80000616800F00C00B0EB810F99D09D
:10093000FFF7AEFE801BB842F2D9032001B0BDE83C
:10094000F08300BF59F8041C8907D4D5DCE700BF49
:1009500041F20020C0F27A000CE000BFD9F800108C
:1009600041F2AC63C1F34041C0F60003595C50430F
:10097000B0FBF1F0D9F8001041F2AE62C1F30311FF
:10098000C0F60002515C40F2080220FA01F140F288
:100990000400C2F200000068C2F200021160FFF71A
:1009A0009FFE002001B0BDE8F083000040F2080087
:1009B00041F20401C2F20000C4F2020100680968B9
:1009C00041F2BE62C1F30221C0F60002515CC84090
:1009D0007047000040F2080041F20401C2F200003A
:1009E000C4F202010068096841F2BE62C1F3C2218B
:1009F000C0F60002515CC840704700002DE9F0418C
:100A000082B0002868D00446007841F20006C00792
:100A1000C4F2020625D0706800F00C0004281BD038
:100A2000706800F00C00082802D17068C00313D46D
:100A30006068002800F06881B0F5A02F00F07C818C
:100A4000B0F5803F00F07C81306820F48030306069
:100A5000306820F4802076E13068800301D560683A
:100A6000D0B32078800718D5706810F00C0F07D02D
:100A7000706800F00C0008286ED17068C0036BD459
:100A80003068800702D52069012825D13068616966
:100A900020F0F80040EAC1003060207800071FD441
:100AA0002078400732D4E56995B1706800F00C00F9
:100AB000082840F08F80012D0ED07068216A00F464
:100AC00080328A4208D1616A00F47010884203D1F2
:100AD000002002B0BDE8F081012002B0BDE8F08145
:100AE000A069002862D00020C4F242200121C0F891
:100AF0008014FFF7CDFD0546706A800700F18C80F9
:100B0000FFF7C6FD401B0228F6D92AE1F06910F074
:100B1000805808D1F06940F08050F061F06900F031
:100B200080500090009847F20007C4F20007386830
:100B3000C00529D4386840F480703860FFF7A8FDFC
:100B4000054600BF3868C0051ED4FFF7A1FD401B55
:100B50006428F7D905E100BF2069002840F20000B1
:100B6000C4F2422000F0828001210160FFF790FD75
:100B7000054600BF306880073FF588AFFFF788FD66
:100B8000401B0228F6D9ECE0E068002800F08080E5
:100B9000052800F09780012800F09880306A20F046
:100BA00001003062306A20F0040092E00020C4F2BC
:100BB00042200021C0F88014FFF76AFD054600BFFF
:100BC000706A80077FF56CAFFFF762FD401B02285B
:100BD000F6D9C6E00027C4F2422700203866FFF7A6
:100BE00057FD022D05460BD13068800140F1BE80D3
:100BF000FFF74EFD401B02284FF00300F4D968E7D1
:100C0000306880017FF564AFFFF742FD401B02288A
:100C10004FF00300F4D95CE740F20800C2F2000094
:100C2000006844F6D351C1F26201A0FB0101480AF9
:100C3000019000BF00BF0198411E002801913FF4C0
:100C40002FAF00BF0198411E002801913FF428AF4B
:100C500000BF0198411E002801913FF421AF00BF61
:100C60000198411E00280191E4D119E7002101609B
:100C7000FFF70EFD054600BF306880077FF50DAF1A
:100C8000FFF706FD401B02284FF00300F4D920E7D0
:100C9000306A20F001003062306A20F004003062D7
:100CA000FFF7F6FC054641F2883700BF306A80073F
:100CB00020D5FFF7EDFC401BB8424FF00300F5D9FB
:100CC00007E700BF306A40F004003062306A40F04D
:100CD00001003062FFF7DCFC054641F2883700BFB7
:100CE000306A800706D4FFF7D3FC401BB842F7D91F
:100CF00037E000BFB8F1000F7FF4D5AEF06920F007
:100D00008050F061CFE600BF306820F48030306062
:100D1000306820F480203060FFF7BAFC054600BF41
:100D2000306880037FF59DAEFFF7B2FC401B64285E
:100D30004FF00300F4D9CCE6306840F480203060F6
:100D4000306840F480303060FFF7A2FC054600BFF9
:100D5000306880033FF585AEFFF79AFC401B64289E
:100D6000F6D9032002B0BDE8F08100BF206AB0F5DB
:100D7000803F05D17168A26821F400311143716090
:100D80007168626A21F47411114308437060012094
:100D90003866FFF77DFC0446306880013FF598AE69
:100DA000FFF776FC001B02284FF00300F4D990E611
:100DB000411E0020B0EB116F1CBF012070474EF2A6
:100DC0001002CEF2000251604EF62351CEF2000125
:100DD000F0230B70072190601160704710B590F8F8
:100DE0003C20012A4FF0020233D080F83D200268F7
:100DF000D2F804E0D2F808C00C682EF07003234348
:100E000040F2FF74C4F20004A24253600ADCB2F163
:100E1000804F13D040F20043C4F200039A420DD039
:100E200011E000BF42F60043C4F201039A4205D02C
:100E300040F60003C4F200039A4204D149682CF042
:100E40008003194391600121002280F83D1080F851
:100E50003C20104610BD0000002804BF0120704750
:100E600010B5044690F83D0028B9002084F83C00F5
:100E7000204600F067F8022084F83D00206840F228
:100E8000FF730268C4F2000342F6004C9842C4F2B9
:100E9000010C15DCB0F1804F1AD040F20041C4F2D1
:100EA0000001884214D0984218DCB0F1804F1DD068
:100EB00040F20041C4F20001884217D01AE000BF9E
:100EC000604505D040F60001C4F200018842EAD135
:100ED000A16822F070020A439842E6DD604505D021
:100EE00040F60001C4F20001884203D1216922F4D6
:100EF00040720A43A36922F08001D4F804E0E2685A
:100F0000194360450160C262C0F828E002D16169FE
:100F1000CCF8301001214161002084F8461084F89B
:100F20003E1084F83F1084F8401084F8411084F893
:100F3000421084F8431084F8441084F8451084F873
:100F40003D1010BD81B0006842F60041C4F20101BD
:100F5000884201D001B0704741F21800C4F202008B
:100F6000016841F400610160006800F400600090D5
:100F7000009801B07047000090F83D1001291CBF97
:100F800001207047022180F83D10006840F2FF7197
:100F9000C4F20001884209DCB0F1804F12D040F267
:100FA0000041C4F2000188420CD012E042F6004138
:100FB000C4F20101884205D040F60001C4F20001EC
:100FC000884206D1816801F00701062904BF00208C
:100FD0007047016841F00101016000207047000086
:100FE00080B590F83C20012A4FF0020200F0BF804B
:100FF00080F83D20D0F800C04FF67772DCF808305A
:1010000023EA0202CCF808200B683F2B1CDD5F2B83
:1010100020DD602B50D0B3F5005F6DD0702B40F019
:10102000A080D1E901E3C968DCF8082043EA0E0397
:1010300022F47F4243EA01211143CCF80810DCF886
:10104000081041F077018AE01F2B29DC63B3102BD5
:101050002AD086E0402B63D0502B40F08280D1F81C
:1010600004E0C968DCF82030DCF8202022F001021E
:10107000CCF82020DCF8182022F0F00242EA01111E
:1010800023F00A0242EA0E02CCF81810CCF8202015
:10109000DCF8081041F0570121F020015FE000BFAB
:1010A000202B01D0302B5CD1DCF8081021F070012E
:1010B000194341F0070152E0D1F804E0C968DCF8B7
:1010C000203023F01003CCF82030DCF81830DCF8A6
:1010D000202023F4704322F0A00243EA013142EAC7
:1010E0000E12CCF81810CCF82020DCF8081041F0D3
:1010F000670121F0100132E0D1E901E3C968DCF8B1
:10110000082043EA0E0322F47F4243EA01211143FF
:10111000CCF80810DCF8081041F480411FE000BF53
:10112000D1F804E0C968DCF82030DCF8202022F097
:101130000102CCF82020DCF8182022F0F00242EA6C
:10114000011123F00A0242EA0E02CCF81810CCF882
:101150002020DCF8081041F0470121F03001CCF8E4
:1011600008100121002280F83D1080F83C20104634
:1011700080BD0000002804BF0120704710B5044660
:1011800090F83D0028B9002084F83C00204600F08B
:1011900061F8242084F83D002068D4E90212C36875
:1011A00023F40053C360036923F440531A430261DC
:1011B000D4E904231143C268194341F20C639A43F2
:1011C0001143C1604169A26921F44071114343F6A2
:1011D0000002C4F201029042416103D0FFF7E6FB36
:1011E00002E000BFFFF7F6FB626819214843910057
:1011F000B0FBF1F048F21F51C5F2EB11A0FB012347
:101200005A094FF69C73C0F6FF7302FB03003223AA
:1012100003EB0010A0FB0101F02303EA5113206847
:1012200003EB0212C1F3431111448160016921F4FF
:1012300090410161416921F02A014161C16841F495
:101240000051C16000202021206484F83D1084F802
:101250003E1010BD70B586B040F60004C4F2010423
:10126000006804F5405100268842049602D006B07A
:1012700070BD00BF41F21800C4F20200016802AD67
:1012800041F480410160016801F4804101910199BC
:10129000016841F0040101600068294600F0040083
:1012A000019001984FF400700290022003900320F7
:1012B00005902046FFF7D0F84FF48060CDE9020694
:1012C000204629460496FFF7C7F806B070BD000017
:1012D0002DE9F041044690F83D0020280ED10D463E
:1012E00000294FF0010000F08E801646002A08BF4A
:1012F000BDE8F08194F83C00012803D10220BDE84C
:10130000F08100BF012084F83C00002020642120EF
:10131000984684F83D00FFF7BBF9A684E684A168EF
:101320000646B1F5805F03D12069002800F0A08057
:101330002F460025002084F83C00E08CE0B118F135
:1013400001001BD0B8F1000F60D120680BE000BF96
:1013500035F8021B00276FF35F214160E18C0139F2
:10136000E184E18C51B3016809066DD5002FEFD0FF
:1013700017F8011BF1E700BF20681FE0206802E0BA
:101380000168090609D40168090606D4016809063E
:101390005CBF01685FEA0161F2D51FB117F8011B5C
:1013A00005E000BF35F8021B00276FF35F214160A5
:1013B000E18C0139E184E18C0029E4D1016849061E
:1013C0001DD4B8F1000F3FD018F101010ED1016812
:1013D000490614D4016849065CBF01685FEA4161AF
:1013E0000DD401684906F2D509E000BFFFF750F9B6
:1013F000811B2068414527D800684006F6D520208B
:1014000084F83D000020BDE8F08100BF206800BFE7
:101410000168090606D4FFF73BF9811B20684145A6
:10142000F6D911E017B117F8011B04E035F8021BDB
:1014300000276FF35F214160E18C0139E184E18C89
:101440000029E5D1BAE700BFC16821F4D071C160BD
:10145000416921F001014161202084F83D0084F8B8
:101460003E00002084F83C000320BDE8F08100BF6E
:1014700000275FE7FEE70000FEE70000FEE7000050
:101480007047000070470000FFF708B97047000080
:10149000FEE7000080B582B0019040F20C10C2F26D
:1014A000000001A901226423FFF712FF019802B096
:1014B00080BD000090B0FFF7FFF84FF480300024AB
:1014C0000125079006A8CDE90E44CDE90C44CDE9ED
:1014D0000A44CDE908440695FFF790FA20B1EFF3EE
:1014E000108072B6FEE700BF0F20CDE90005684608
:1014F0000021CDE902440494FFF774F920B1EFF321
:10150000108072B6FEE700BF002641F21800CDE958
:101510000866C4F20200016840F6000441F01001C0
:1015200001600168C4F2010401F01001009100990A
:101530000168002241F0200101600168012701F0EB
:10154000200100910099016841F0040101600168E7
:1015500001F0040100910099016841F00801016067
:101560000068012100F00800009000982046FFF775
:1015700089F84FF4604006AD06904FF0030804F57B
:1015800000602946CDF81C80FEF766FFCDE906779E
:1015900002272046294608960997FEF75DFF204658
:1015A0002946CDE906760896FEF756FF49F6FC1067
:1015B000CDE9060820462946FEF74EFF4FF6FF7795
:1015C00004F580602946CDE90678FEF745FF40F234
:1015D000C40004F51051C2F200000996CDE9076677
:1015E000CDE90066C0E90016C0E90267C0E90466FB
:1015F0008661FFF731FC28B1EFF3108072B600BFAF
:10160000FEE700BF4FF48050069040F2C400C2F2E3
:10161000000006A9FFF7E4FC20B1EFF3108072B6DA
:10162000FEE700BF40F2C405C2F200056946284645
:10163000FFF7D4FB20B1EFF3108072B6FEE700BFD6
:1016400040F20C1004F54051C2F2000000230C27B8
:101650004FF4165280E80E00C0E90333C0E9057369
:10166000C361FFF787FD28B1EFF3108072B600BFAA
:10167000FEE700BF2846FFF77FFC0BA66FF00107CF
:1016800003E000BF3046FEF7A3FD40F6DF01286807
:10169000E9600069C007F5D020460121FEF7EAFFA6
:1016A0002868E9680761EDE7256420000102000071
:1016B0000000000000000102030406070809000002
:1016C00000000102030402030405060708090A0BCF
:1016D0000C0D0E0F10100000F8160008000000207E
:1016E0001000000028010008081700081000002062
:1016F000480700004401000801000000100000003D
:081700000024F40000000000C9
:04000005080000ED02
:00000001FF
