:020000040800F2
:1000000038070020990100083F100008050F00087C
:100010003D100008FB030008A113000800000000C9
:100020000000000000000000000000004310000875
:10003000FD0300080000000041100008BF11000887
:10004000B3010008B3010008B3010008B3010008C0
:10005000B3010008B3010008B3010008B3010008B0
:10006000B3010008B3010008B3010008B3010008A0
:10007000B3010008B3010008B3010008B301000890
:10008000B3010008B3010008B3010008B301000880
:10009000B3010008B3010008B3010008B301000870
:1000A000B3010008B3010008B3010008B301000860
:1000B000B3010008B3010008B3010008B301000850
:1000C000B3010008B3010008B3010008B301000840
:1000D000B3010008B3010008B3010008B301000830
:1000E000B3010008B3010008B301000800F002F8F2
:1000F00000F042F80AA090E8000C82448344AAF180
:100100000107DA4501D100F037F8AFF2090EBAE87D
:100110000F0013F0010F18BFFB1A43F0010318473B
:10012000E418000004190000103A24BF78C878C110
:10013000FAD8520724BF30C830C144BF04680C60ED
:10014000704700000023002400250026103A28BF35
:1001500078C1FBD8520728BF30C148BF0B60704739
:10016000632900F0D680732900F0DB8000207047FF
:100170001FB51FBD10B510BD00F006F91146FFF701
:10018000F7FF01F025F900F024F903B4FFF7F2FFBF
:1001900003BC00F02BF900000948804709480047DC
:1001A000FEE7FEE7FEE7FEE7FEE7FEE7FEE7FEE727
:1001B000FEE7FEE704480549054A064B7047000084
:1001C0000F120008ED000008380100203807002059
:1001D00038030020380300200FB4044910B503AAE7
:1001E000029800F0A3F810BC5DF814FB0C0000208E
:1001F0002DE9F0410E460446002020622046E168C9
:10020000884730B3252805D0D4E901219047206ADA
:10021000401CF2E7E168204600278847050018D017
:10022000A5F14100192802D820354FF40067324665
:10023000294620462760FFF793FF40B1012804D0EC
:10024000F61D26F007060836D8E7361DD6E72846FD
:10025000DAE7206ABDE8F08170B50C460546012A50
:1002600005D02878800600D5EA69002302E0012342
:1002700005E05B1C934202D2E05C0028F9D1A8693A
:10028000E618C01AA861286A184428622846AFF305
:10029000008004E0D5E9012114F8010B9047B44235
:1002A000F8D32846AFF3008070BD4FF0000200B5D0
:1002B000134694469646203922BFA0E80C50A0E889
:1002C0000C50B1F12001BFF4F7AF090728BFA0E837
:1002D0000C5048BF0CC05DF804EB890028BF40F803
:1002E000042B08BF704748BF20F8022B11F0804F45
:1002F00018BF00F8012B704770477047704710B562
:10030000436913B1AFF3008001E0FFF7A5FF0120BF
:1003100010BD127800F124010A7000224A700122F7
:10032000EDE711684FF0FF32E9E70000074B70B5C9
:100330000D467B4400F011F80446284600F020F8F2
:1003400010B14FF0FF3070BD204670BD8D10000021
:1003500001694A1C02610878704700B58FB0CDE989
:1003600001310021059105497944CDE90310114679
:100370006846FFF73DFF0FB000BD0000E5FFFFFF3F
:10038000007B00F080007047754600F02BF8AE4609
:1003900005006946534620F00700854618B020B591
:1003A000FFF708FFBDE820404FF000064FF00007C0
:1003B0004FF000084FF0000B21F00701AC46ACE80D
:1003C000C009ACE8C009ACE8C009ACE8C0098D467A
:1003D000704710B50446AFF300802046BDE81040DA
:1003E000FFF7D3BE00487047D40000200149182011
:1003F000ABBEFEE7260002007047FEE77047000034
:100400002DE9F84FDFF8B8910024A9F1040B234639
:100410000F2709F1040AABF1040EC9E00125A5403C
:100420002A40AA427DD1674ED1F804C0ACEB060841
:10043000B44532D014DCBCF1030F3AD009DCBCF176
:10044000000F2AD0BCF1010F1CD0BCF1020F31D13A
:100450001DE0BCF1110F17D0BCF1120F2AD119E029
:10046000B8F5881F19D006DCB8F5803F15D0B8F56F
:10047000801F1FD111E0B8F5001F0ED0B8F5041F82
:1004800018D10AE0CB6815E0CB681B1D12E0CB68E1
:1004900008330FE0CB680C330CE08B682BB1012BD9
:1004A0004FF0080303D0456104E0042302E0056136
:1004B00000E00023FF2A01D8064601E000F104060F
:1004C0004FEA840501D9A5F12005D6F8008007FA86
:1004D00005FC28EA0C0803FA05F548EA0508C6F801
:1004E00000804D68ED0062D5374DAE6946F00106DB
:1004F000AE61AD6924F0030605F001050095334DAA
:1005000006EB050CDCF80850A607360F07FA06F8CC
:1005100025EA0805DFF8B880404503D14FF0000810
:1005200017E044E0DFF8AC80404502D14FF001080D
:100530000FE0DFF8A480404502D14FF0020808E048
:10054000DFF89880404502D14FF0030801E04FF0FA
:10055000040808FA06F848EA0508CCF808804D684F
:10056000D9F80060ED024D4601D5164300E09643F0
:100570002E604D68DAF80060AD02554601D516438D
:1005800000E096432E604D68DBF80060AD035D46E9
:1005900001D5164300E096432E604D68DEF80060FA
:1005A000ED03754601D5164300E096432E60641CAA
:1005B0000D682A46E5407FF431AFBDE8F88F0000B2
:1005C000080401400000111000100240000001402A
:1005D00000080140000C01400010014000140140DF
:1005E0008068084000D0012070470AB1016170475F
:1005F0000904FBE7014880687047000010000020F4
:100600000248816802781144816070471000002020
:10061000074810B5016841F010010160032000F0A7
:1006200067F80F2000F006F800F024F8002010BD55
:100630000020024070B50D4D04464FF47A712878C1
:10064000B1FBF0F00A490968B1FBF0F000F0D0FA14
:1006500048B9102C07D200222146501E00F028F87D
:1006600000206C6070BD012070BD000010000020F3
:100670001C0000200C4808B5816941F0010181612E
:10068000816901F001010091C16941F08051C161AE
:10069000C06900F0805000900448416821F0E0619A
:1006A00041F00071416008BD0010024000000140AF
:1006B000F0B40E4B1B680C46C3F30223C3F10705CD
:1006C000042D00D90425191D072901D2002300E0BB
:1006D000DB1E012606FA05F1491E214099409E4085
:1006E000761E16403143F0BC00F05BBE0CED00E01E
:1006F000064900F0070208684FF6FF03184040EA79
:100700000220034A10430860704700000CED00E02F
:100710000000FA052DE9F0470F46050061D0434E71
:10072000306800F00700B84209D2306820F00700B6
:1007300038433060306800F00700B84251D1286873
:100740003B4C810712D5400703D5606840F4E06058
:1007500060602878000703D5606840F460506060EE
:100760006068A96820F0F000084360602878C0073E
:1007700028D06868012810D02168022810D0890785
:1007800000292EDA616821F0030101436160FFF75F
:1007900031FF804641F288390DE021688903EFE797
:1007A0008901EDE7FFF726FFA0EB0801494502D9D3
:1007B0000320BDE8F0876068696800F00C00B0EBCA
:1007C000810FEFD1306800F00700B8420BD93068D4
:1007D00020F0070038433060306800F00700B8426E
:1007E00001D00120E5E72878400705D56068E96871
:1007F00020F4E060084360602878000706D5606850
:10080000296920F4605040EAC100606000F038F8C7
:100810006168084AC1F30311515CC8400649086089
:1008200006480068FFF706FF0020C2E700200240EC
:1008300000100240EA1900081C00002014000020EB
:100840000448054900684968044AC1F30221515C23
:10085000C84070471C00002000100240FA19000830
:100860000448054900684968044AC1F3C221515C43
:10087000C84070471C00002000100240FA19000810
:100880000F4A516801F00C00042803D0082803D057
:100890000C4870470C4870470C48C1F38343C903A8
:1008A000C05C0AD55168094AC1F34041921E515CAF
:1008B000054A5043B0FBF1F0704703494843704785
:1008C0000010024000127A0000093D00DA19000809
:1008D0002DE9F84F040070D02078C04DC00749D0F2
:1008E0006868C0F38100012807D06868C0F3810000
:1008F000022809D16868C00306D52868800339D565
:1009000060680028E7D035E06068B0F5803F0BD024
:1009100010B1B0F5A02F11D0286820F480302860E5
:10092000286820F4802002E0286840F480302860A5
:10093000606890B1FFF75EFE06460AE0286840F462
:1009400080202860F0E700BFFFF754FE801B64287A
:1009500073D828688003F7D50CE0FFF74BFE0646F6
:1009600005E000BFFFF746FE801B6428F0D828682A
:100970008003F7D420789A4E80074FF001094FF09A
:10098000000839D5686810F00C0F07D06868C0F30C
:100990008100022809D16868C00306D4286880074E
:1009A00014D52069012808D110E02069B0B1C6F83B
:1009B0000090FFF71FFE074605E00AE1FFF71AFE69
:1009C000C01B0228C4D828688007F7D52868616949
:1009D00020F0F80040EAC10028600DE0C6F8008071
:1009E000FFF708FE074604E0FFF704FEC01B0228DD
:1009F00023D828688007F7D4207800072CD57948B9
:100A0000A169D9B1C0F80090FFF7F4FD074604E0F2
:100A1000FFF7F0FDC01B02280FD8686A8007F7D5E2
:100A200071484FF4FA510068B0FBF1F0009000BF3C
:100A30000098411E0091FAD20EE080E0C0F80080DC
:100A4000FFF7D8FD074604E0FFF7D4FDC01B0228DE
:100A500075D8686A8007F7D42078400760D5E869C0
:100A60000027C00008D4E86940F08050E861E869D8
:100A7000012700F0805000905C480168C90513D43C
:100A80000168834641F480710160FFF7B3FD82463F
:100A900006E000BFFFF7AEFDA0EB0A0064284ED8C9
:100AA000DBF80000C005F5D5E06801280AD008B1E0
:100AB000052813D0286A20F001002862286A20F057
:100AC000040002E0286A40F001002862E06841F278
:100AD000883B98B1FFF78EFD82460BE0286A40F014
:100AE00004002862EEE700BFFFF784FDA0EB0A01D7
:100AF00059455AD8286A8007F6D50CE0FFF77AFDE9
:100B0000824605E0FFF776FDA0EB0A0159454CD877
:100B1000286A8007F6D41FB1E86920F08050E861A8
:100B2000E06988B36968C1F38101022944D00228D1
:100B3000C6F8608004D0FFF75DFD044638E034E07D
:100B4000FFF758FD074604E0FFF754FDC01B0228DD
:100B50002BD828688001F7D4206AB0F5803F05D1F2
:100B60006868A16820F4003008436860D4E908018F
:100B70000843696821F4741108436860C6F86090FE
:100B8000FFF738FD044606E025E000BFFFF732FD21
:100B9000001B022809D828688001F7D51BE000BF98
:100BA000FFF728FD001B022802D90320BDE8F88FBB
:100BB00028688001F4D40EE00128F7D06868226A22
:100BC00000F48031914204D1616A00F470108842CF
:100BD00001D00120EAE70020E8E700000010024011
:100BE00000004242800442421C000020007000408D
:100BF00010B5401EB0F1807F01D3012010BD4FF031
:100C0000E02460610F21601700F0CBFB0020A061A1
:100C100007202061002010BD70B590F83C20012A0B
:100C200026D0012480F83C40022280F83D20036851
:100C30005A689D6822F070060A6832435A600D4B6C
:100C400002689A4208D0B2F1804F05D00A4B9A420E
:100C500002D00A4B9A4204D1496825F08003194317
:100C6000916080F83D40002180F83C10084670BD3E
:100C7000022070BD002C014000040040000800402C
:100C800010B5040003D094F83D0010B107E0012036
:100C900010BD002084F83C00204600F01FF8022020
:100CA00084F83D00211D206800F0B2FA012084F88C
:100CB000460084F83E0084F83F0084F8400084F841
:100CC000410084F8420084F8430084F8440084F82A
:100CD000450084F83D00002010BD000008B5006804
:100CE0000649884208D10648816941F40061816162
:100CF000806900F40060009008BD0000002C0140F5
:100D00000010024090F83D10012901D001207047E9
:100D1000022180F83D1000680B49884208D0B0F1EC
:100D2000804F05D00949884202D00949884204D140
:100D3000816801F00701062903D0016841F0010133
:100D40000160002070470000002C014000040040BA
:100D50000008004070B5044690F83C0000250128CA
:100D600017D0012684F83C60022084F83D002068FA
:100D7000826822F0770222F47F428260086850285D
:100D800038D00DDC20284FD005DC90B3102811D1CD
:100D90004AE0022070BD302846D040280AD13BE00E
:100DA00060282FD070280DD0B0F5805F03D0B0F54B
:100DB000005F12D0012584F83D60002084F83C00DB
:100DC000284670BDCB68D1E90121206800F056FAB1
:100DD0002068816841F0770109E0CB68D1E9012101
:100DE000206800F04BFA2068816841F480418160FE
:100DF000E1E719E0CA684968206800F051FA50211B
:100E0000206806E0CA684968206800F05AFA602144
:100E1000206800F03DFACEE7CA684968206800F013
:100E20003FFA40212068F4E7226801461046F0E7C7
:100E300070B5040004D094F84100002510B106E01C
:100E4000012070BD84F84050204600F023F8242093
:100E500084F841002068C16821F40051C160204637
:100E600000F042FA2068016921F490410161206894
:100E7000416921F02A0141612068C16841F40051B3
:100E8000C1606564202084F8410084F842006563F5
:100E9000002070BD30B585B0002400940194029408
:100EA000039400681449884224D11448816941F4AC
:100EB00080418161816901F480410491816941F03F
:100EC0000401816180690E4D00F0040004904FF42C
:100ED000007000900220019003200390694628468C
:100EE000FFF78EFA2815CDE90004694628460294DA
:100EF000FFF786FA05B030BD00380140001002400F
:100F000000080140FEE700002DE9F04186B0002412
:100F10002C480094019402940394816941F01001DB
:100F20008161816901F010010491816941F0200122
:100F30008161816901F020010491816941F004011E
:100F40008161816901F004010491816941F0080126
:100F500081618069DFF8708000F008000490002251
:100F600001214046FFF741FB4FF460400325CDE9E6
:100F7000000569461548FFF743FA01260227039743
:100F80000096CDE9016469464046FFF739FA0097BB
:100F9000CDE9014669464046FFF732FA49F6FC10B2
:100FA000CDE9000569464046FFF72AFA4FF6FF7083
:100FB000CDE9000569460648FFF722FA06B0BDE80C
:100FC000F0810000001002400008014000100140C4
:100FD000000C014010B586B000241748009401941D
:100FE00002940394049413490594C0E900144FF645
:100FF000FF71C0E90241046144618461FFF740FE72
:1010000008B172B6FEE74FF48050009069460A4876
:10101000FFF7A0FE08B172B6FEE7049404A90648E3
:101020000594FFF7F9FD002801D072B6FEE706B07F
:1010300010BD0000002C014020000020FEE7FEE76C
:101040007047704710B50F4C4FF416500E49206092
:10105000B1FBF0F000F0F7FA022200F077FC00227A
:101060000A4B00F057FB00F0C1FA206100206060DD
:10107000A060E0600648012160612183E0610220F8
:10108000208410BDB000002040420F000000384016
:10109000000801402DE9F0471A4C80460022218BC0
:1010A0006069FFF7A2FAA4F190050027286847625B
:1010B000296820694A6A8242FCD300264FF0010960
:1010C00009FA06F202EA0802218B6069FFF78DFA3D
:1010D0002868476228682169426A8A42FCD3761CE4
:1010E000F6B2082EECD3218B01226069FFF77DFA5E
:1010F0002868476228682169426A8A42FCD3BDE8B1
:10110000F0870000B00000202DE9F041254D0E468B
:101110004FF0000829680446C1F8248006E02868DA
:10112000406A2169884201D9C6B3761E218CE069E4
:10113000FFF756FA0028F2D129684046C1F824800A
:10114000216901EB410229684B6AB3EB520FFBD3D3
:1011500000268046218CE069FFF742FA2968B040FA
:101160003843C7B2C1F82480296820694A6A82429C
:10117000FCD3761CF6B2082EECD3C1F82480296883
:1011800020694A6AB2EB500FFBD3218CE069FFF76C
:1011900027FA0028F9D03846BDE8F081FFE70020A3
:1011A000FAE700002000002070B50D46002402E0A0
:1011B000FFF770FF641C285D0028F9D170BDFFF7B0
:1011C0001FBA30B58FB028216846FFF76EF814219A
:1011D0000AA8FFF76AF801252804CDE90050002489
:1011E00007946846FFF774FB08B172B6FEE70F205C
:1011F0000A90CDE90B540D9400210AA80E94FFF734
:1012000089FA002801D072B6FEE70FB030BD7047F2
:10121000F0B50268164B174C174D4FF080479842B7
:1012200005D0B84203D0A04201D0A84203D122F099
:1012300070064A683243984205D0B84203D0A042B3
:1012400001D0A84203D122F44074CA6822434C69F9
:1012500022F08002224302608A68C2620A688262C7
:10126000984201D10969016301214161F0BD00008B
:10127000002C0140000400400008004010B58468C4
:1012800042EA032224F47F440A432243826010BDD1
:10129000826822F070020A4342F0070181607047C1
:1012A00010B5036A046A24F001040462846924F01E
:1012B000F00444EA021423F00A020A438461026241
:1012C00010BD10B5036A046A24F010040462846936
:1012D00023F0A00324F4704444EA023243EA0111EB
:1012E0008261016210BD000070B5044600680169AA
:1012F000E26821F44051114301612169A06808436B
:10130000616908432168CA6841F20C639A43024349
:10131000CA6020684169A26921F4407111434161AA
:101320001E492068884202D1FFF79AFA01E0FFF7D0
:1013300087FA00EBC00101EB0012606864218000B5
:10134000B2FBF0F3B3FBF1F36FF018067343B2FB9B
:10135000F0F5B2FBF0F605EB8305322303EB051540
:10136000B5FBF1F5B6FBF1F605F0F00505EB06155A
:10137000B2FBF0F6B2FBF0F0B0FBF1F06FF0180248
:10138000504306EB800003EB0010B0FBF1F0216846
:1013900000F00F002844886070BD00000038014054
:1013A000FEE70907090E002804DB00F1E02080F8C1
:1013B0000014704700F00F0000F1E02080F8141DC9
:1013C000704710B50446C0B2FFF764FE204610BD5A
:1013D000FFF71EF9FFF7F5FEFFF796FDFFF7FAFDA1
:1013E000254824490C2201604FF416514160002128
:1013F0008160C160C0E904128161C161FFF718FD1D
:1014000008B172B6FEE7FFF71DFE012211461B4828
:10141000FFF7EBF818484838FFF774FC6820FFF72F
:1014200039FE6520FFF736FE6C20FFF733FE6C2097
:10143000FFF730FE6F20FFF72DFE2020FFF72AFE7A
:101440000F4910A0FEF7C8FE2020FFF723FE0C492D
:101450000948C91C4830FFF7A7FE4FF0FF34064883
:1014600021464830FFF750FE014607A0FEF7B4FEC4
:10147000F5E7000000380140680000200008014046
:1014800000000020257300002563000010B591EADC
:10149000030F48BF83F0004300F14481841A71EBCD
:1014A000030C05D2121943EB0C03001B61EB0C017A
:1014B000DFF824E14FEA1154A4EB135C1EEA430F5A
:1014C00018BF9EEA445F73D023EA0E03DCF1200EBE
:1014D00021EA045143F4801332D322FA0CFE10EBBC
:1014E0000E0023FA0CFE41EB0E01CCF1200E03FAA4
:1014F0000EFE10EB0E0051F10001B1F5801FCCF192
:10150000200E32D201EB045112FA0EF2BDE8104067
:1015100058BF7047401C38BF5FEA420218BF70478F
:10152000002814BF20F0010041F100014FEA4103FF
:1015300013F5001F38BF7047A1F1C04100F0E4B8B7
:10154000012A43EB0302ACF1200CDCF11F0E32BF89
:101550004FF0000E23FA0CF310EB030041EB0451A3
:10156000B4EB115FD0D0A1EB045101F58011490813
:101570005FEA300001EB04510ED350F1000038BF98
:1015800012FA0EFE08D1BDE81040C9E7401C38BF72
:101590005FEA4202CAD1C3E7BDE810404FEA410307
:1015A00013F5001F38BF7047A1F1C04100F0ACB87F
:1015B0009EEA445F08D011EA5E0FBDE8104004BF08
:1015C00001F0004100207047BDE8104070B500F008
:1015D0004DF800BF64FBBE3E0000E0FF02494FF043
:1015E000000000F081B900BF0000F87F4FEA1153FE
:1015F000A3F58063D3F11E03A8BFD3F1200C08DB51
:101600004FF0004242EAC12252EA505232FA03F04D
:10161000704709420BD4102BC4BF0020704703F55C
:10162000787CBCF1FF3F05D04FF0FF3070474FF0A2
:101630000000704770B500F019F800BF499224808F
:1016400000207047F0E7B0FA80F310FA03F10AD0F7
:10165000C3F11D0303F580634FEA41504FEA035283
:1016600002EBD12170474FF0000070470EF1020EDF
:101670002EF0030E5EF8046B364205D4012A43EBCC
:10168000030515F5001F12D8012841EB010C1CF5CC
:10169000001F0CD80ED14FEAD17C15F5001F0CEBC2
:1016A0004C0C0CF1020C08BF4CEBD37C04E04FF067
:1016B000080C01E04FEAD37C0CEB4C0526FA05F64A
:1016C00006F00706B6F1040C06D20EEB860CBDE858
:1016D00070404CF0010C6047DFE80CF0090B02028F
:1016E0004FF000414FF00000A1F5002170BD1946F8
:1016F0001046012851EB010418BFD4F5001484BF33
:10170000002001F0004170BD0808A0F500114FEA6B
:101710003101704710B591EA030F48BF83F00043D1
:101720003FF5BCAE841A71EB030C07D212198CF092
:10173000004C43EB0C03001B61EB0C01DFF8A4E150
:101740004FEA1154A4EB135C1EEA430F18BF9EEA44
:10175000445F00F0B08023EA6E03524221EA045154
:10176000C3EB6E0338BF5B1EDCF1200E25D322FADB
:101770000CFE10EB0E0043FA0CFE41EB0E01CCF117
:10178000200E03FA0EFE10EB0E0051F10001CCF119
:10179000200E29D412FA0EF201EB0451BDE81040DC
:1017A00058BF7047401C1CBFB2F1004F7047002863
:1017B0000CBF491C20F00100704712EB020E43EBF6
:1017C000030218BF4FF0010E4EEA4202ACF1200CAA
:1017D000DCF11E0E54D943FA0CFE10EB0E0051F151
:1017E000FF31CCF11E0ED5D50EF1010E12FA0EFE10
:1017F000404141EB010101EB445C5FEA5C5C10D9C4
:1018000010EBDE7001EB045138BFBEF1004FBDE8B4
:10181000104018BF704700280CBF491C20F0010081
:10182000704730D24FEAD42C11F5001124F4006433
:101830001BD0B1FA81F20B3AA41AA41ED2F12003F4
:10184000914030FA03F31943904001EBCC71002C26
:1018500001EB0451BDE81040A8BF704701F1C04141
:101860004FF0000001F000417047B0FA80F310FA29
:1018700003F100D110BDE41A173C4805C90AE4E79A
:1018800001EB045110BD491001EB0451BDE81040BB
:101890004FEA300002E04FF0000170474A0008BFF5
:1018A0000042F8D0B2F5001F28BF704701F0004198
:1018B0004FF0000070479EEA445F07D011EA5E0FC8
:1018C000BDE8104004BF002100207047BDE8104073
:1018D00070B5FFF7CBFE00BF40DFF63E83F000415E
:1018E000104670470000E0FF0CF00F03092B08BF03
:1018F000082000F059800A2B0BD0082B18BF704726
:1019000008BF1CF0400F0AD04FF000004FF000015C
:1019100070471CF0400F18BF4FF0004070471CF09C
:10192000100F08D020F0704300F07F4242EAD3014C
:101930004FEA4370704700F0604021F07F4242EA76
:10194000000201F07F4040EA727070474FF0FF0CD8
:101950004CF4E06C1CEA11531CBF9CEA030C944548
:10196000C2BFDA4201EB02517047002B0DD0BCF12F
:10197000000F0FD0002A01F00041A4BF41F0E04168
:1019800041F07F614FF00000704701F000414FF0DF
:101990000000704750EA01334FF09B0C18BF4CF029
:1019A000806C7FF41BAE70471CF4801F11D01CF4B8
:1019B000E02F03D06FEACC31490070474FF0405020
:1019C000EFF3008222F0704242EA000282F30088C4
:1019D00070474FF00000704701020203040506073C
:1019E00008090A0B0C0D0E0F10100000000000007B
:1019F00000000102030406070809000000000102BC
:101A000003040000241A0008000000202000000049
:101A100028010008441A00082000002018070000D0
:101A2000440100086D7900746561636865720000A7
:101A30000000000001000000100000000000000095
:041A40000024F4008A
:04000005080000ED02
:00000001FF
