:020000040800F2
:100000007806002089010008410F0008DD0B000878
:100010003D0F000891020008550F00080000000085
:10002000000000000000000000000000490F000870
:100030009502000800000000450F00084D0F000861
:10004000A3010008A3010008A3010008A301000800
:10005000A3010008A3010008A3010008A3010008F0
:10006000A3010008A3010008A3010008A3010008E0
:10007000A3010008A3010008A3010008A3010008D0
:10008000A3010008A3010008A3010008A3010008C0
:10009000A3010008A3010008A3010008A3010008B0
:1000A000A3010008A3010008A3010008A3010008A0
:1000B000A3010008A3010008A3010008A301000890
:1000C000A3010008A3010008A3010008A301000880
:1000D000A3010008A3010008A3010008A301000870
:1000E000A3010008A3010008A301000800F002F822
:1000F00000F03AF80AA090E8000C82448344AAF188
:100100000107DA4501D100F02FF8AFF2090EBAE885
:100110000F0013F0010F18BFFB1A43F0010318473B
:10012000B4100000D4100000103A24BF78C878C181
:10013000FAD8520724BF30C830C144BF04680C60ED
:10014000704700000023002400250026103A28BF35
:1001500078C1FBD8520728BF30C148BF0B60704739
:100160001FB51FBD10B510BD00F058F81146FFF7C0
:10017000F7FF00F0F1FE00F076F803B4FFF7F2FFAE
:1001800003BC00F07DF8000009488047094800479B
:10019000FEE7FEE7FEE7FEE7FEE7FEE7FEE7FEE737
:1001A000FEE7FEE704480549054A064B7047000094
:1001B000510F0008ED0000087800002078060020AC
:1001C00078020020780200204FF0000200B51346AC
:1001D00094469646203922BFA0E80C50A0E80C5067
:1001E000B1F12001BFF4F7AF090728BFA0E80C5018
:1001F00048BF0CC05DF804EB890028BF40F8042B11
:1002000008BF704748BF20F8022B11F0804F18BF7D
:1002100000F8012B7047704770477047754600F033
:100220002BF8AE4605006946534620F00700854688
:1002300018B020B5FFF7B6FFBDE820404FF000062C
:100240004FF000074FF000084FF0000BAC46ACE851
:10025000C009ACE8C009ACE8C009ACE8C00921F0AD
:1002600007018D46704710B50446AFF30080204665
:10027000BDE81040FFF781BF004870471000002024
:1002800001491820ABBEFEE72600020070470000BF
:10029000FEE7000070470000B0B5044600F024F906
:1002A000054640F20000C2F200000078611C18BF51
:1002B000044400BF00F018F9401BA042FAD3B0BDBF
:1002C0002DE9F04F82B00E68002E00F0038140F25D
:1002D0000C4C41F200424FF6FF7EC4F2010CC4F216
:1002E0000102042700240123C1F2100E4FF0000A7E
:1002F0004FF00009904208BF0327009745E000BF78
:10030000012704F00C030F229A402BEA020207FA9D
:1003100003F34FEA9A051A4346F82520D1F804B0B2
:1003200040F20045C4F201055FEACB322A6854BFAF
:1003300022EA080242EA08022A606A685FEA8B330E
:1003400054BF22EA080242EA08026A605FEACB234D
:10035000AA6854BF22EA080242EA08025FEA8B2335
:10036000AA60DCF800204FF0010354BF22EA080223
:1003700042EA0802CCF800200E680AF1010A36FAB7
:100380000AF204F1040400F0A58003FA0AF816EA60
:10039000080FF1D04E68764512DC122E56D8DFE8F1
:1003A00006F0350B45495555555555555555555537
:1003B0005555554D510000BFD1F80C9046E000BF97
:1003C0004FF6FF72C1F2210296420FDC0022C1F209
:1003D000110296421AD00022C1F21202964215D0A2
:1003E0000022C1F22102964210D02FE00022C1F279
:1003F000220296420AD00022C1F23102964205D072
:100400000022C1F23202964220D100BF8A684AB16E
:10041000012A14BFC0F81480C0F810804FF00809FA
:1004200014E000BF4FF0040910E000BFCA6802F1F9
:1004300008090BE04FF0000908E000BFCA6802F1AC
:10044000040903E0CA6802F10C0900BF224606460F
:10045000BAF1080F24BF203A043637680F259540BB
:1004600027EA050509FA02F22A433260CA79D20660
:100470007FF582AF41F21803C4F202031A6842F01A
:1004800001021A601A6802F001020192019A40F218
:100490000042C4F20102A2F57E762AF0030256F869
:1004A00002B040F60002C4F20102904210D040F6C1
:1004B0000042C4F2010290423FF422AF41F2000236
:1004C000C4F20102009F904208BF022719E700BF53
:1004D000002716E702B0BDE8F08F0000002A08BF31
:1004E000090401617047000040F27000C2F2000090
:1004F0000068704740F2000040F27001C2F2000054
:10050000C2F2000100780A681044086070470000D9
:1005100080B542F20000C4F20200016841F010010F
:100520000160032000F07AF80F2000F005F800F0D9
:1005300027F8002080BD000070B540F20006C2F22E
:10054000000640F208013278C2F200014FF47A73DB
:100550000968B3FBF2F20446B1FBF2F1084600F081
:1005600027FB0F2C4FF0010508D838B94FF0FF30AA
:1005700021460022002500F025F87460284670BD51
:1005800082B041F21800C4F202000168022241F078
:1005900001010160016801F00101019101994168C7
:1005A00041F080514160406800F080500090009818
:1005B0000420C4F20100016862F31A61016002B014
:1005C0007047000010B54EF60C5CCEF2000CDCF863
:1005D0000030C3F3022E8EF00704042C28BF04243D
:1005E000BEF103034FF0FF3E0EFA04F438BF0023C0
:1005F000A14399400EFA03F39A43114300F00F020E
:1006000000F160430901043A03F5644362440028A1
:1006100048BF02F10C03197010BD00004EF60C51DA
:10062000CEF200010A684FF6FF031A4060F30A2277
:1006300042F0806040F0FD70086070472DE9F043A3
:1006400081B0002800F0858042F20008C4F2020860
:100650000446D8F800000D4600F0070088420CD28E
:10066000D8F8000020F007002843C8F80000D8F8A8
:10067000000000F00700A8426BD1206841F2040995
:100680008107C4F2020917D5410705D5D9F8001032
:1006900041F4E061C9F80010010705D5D9F8001050
:1006A00041F46051C9F80010D9F80010A26821F097
:1006B000F0011143C9F80010C00741D1D8F800007B
:1006C00000F00700A8420CD9D8F8000020F007007D
:1006D0002843C8F80000D8F8000000F00700A8423E
:1006E00037D12068410707D5D9F80010E26821F416
:1006F000E0611143C9F80010000708D5D9F80000DF
:10070000216920F4605040EAC100C9F80000D9F81E
:10071000002002F00C00082841F20020C0F27A000C
:1007200050D141F2C413C2F38341C0F60003595CB7
:10073000D2033BD440F60010C0F23D00484341E0F4
:10074000606802280AD001282AD159F8041C8903BC
:1007500008D4012001B0BDE8F08300BF59F8041CA3
:100760008901F6D5D9F8001021F003010843C9F832
:100770000000FFF7B9FE064641F28837D9F80000BD
:10078000616800F00C00B0EB810F97D0FFF7ACFE72
:10079000801BB842F2D9032001B0BDE8F08300BF4E
:1007A00059F8041C8907D4D5DCE700BFD9F800202C
:1007B00041F29213C2F34042C0F600039A5C4843F0
:1007C000B0FBF2F0D9F8001041F29412C1F303111A
:1007D000C0F60002515C40F2080220FA01F140F23A
:1007E0000400C2F200000068C2F200021160FFF7CC
:1007F000A3FE002001B0BDE8F08300002DE9F04128
:1008000082B0002868D00446007841F20006C00794
:10081000C4F2020625D0706800F00C0004281BD03A
:10082000706800F00C00082802D17068C00313D46F
:100830006068002800F06881B0F5A02F00F07C818E
:10084000B0F5803F00F07C81306820F4803030606B
:10085000306820F4802076E13068800301D560683C
:10086000D0B32078800718D5706810F00C0F07D02F
:10087000706800F00C0008286ED17068C0036BD45B
:100880003068800702D52069012825D13068616968
:1008900020F0F80040EAC1003060207800071FD443
:1008A0002078400732D4E56995B1706800F00C00FB
:1008B000082840F08F80012D0ED07068216A00F466
:1008C00080328A4208D1616A00F47010884203D1F4
:1008D000002002B0BDE8F081012002B0BDE8F08147
:1008E000A069002862D00020C4F242200121C0F893
:1008F0008014FFF7F9FD0546706A800700F18C80CF
:10090000FFF7F2FD401B0228F6D92AE1F06910F04A
:10091000805808D1F06940F08050F061F06900F033
:1009200080500090009847F20007C4F20007386832
:10093000C00529D4386840F480703860FFF7D4FDD2
:10094000054600BF3868C0051ED4FFF7CDFD401B2B
:100950006428F7D905E100BF2069002840F20000B3
:10096000C4F2422000F0828001210160FFF7BCFD4B
:10097000054600BF306880073FF588AFFFF7B4FD3C
:10098000401B0228F6D9ECE0E068002800F08080E7
:10099000052800F09780012800F09880306A20F048
:1009A00001003062306A20F0040092E00020C4F2BE
:1009B00042200021C0F88014FFF796FD054600BFD5
:1009C000706A80077FF56CAFFFF78EFD401B022831
:1009D000F6D9C6E00027C4F2422700203866FFF7A8
:1009E00083FD022D05460BD13068800140F1BE80A9
:1009F000FFF77AFD401B02284FF00300F4D968E7A7
:100A0000306880017FF564AFFFF76EFD401B022860
:100A10004FF00300F4D95CE740F20800C2F2000096
:100A2000006844F6D351C1F26201A0FB0101480AFB
:100A3000019000BF00BF0198411E002801913FF4C2
:100A40002FAF00BF0198411E002801913FF428AF4D
:100A500000BF0198411E002801913FF421AF00BF63
:100A60000198411E00280191E4D119E7002101609D
:100A7000FFF73AFD054600BF306880077FF50DAFF0
:100A8000FFF732FD401B02284FF00300F4D920E7A6
:100A9000306A20F001003062306A20F004003062D9
:100AA000FFF722FD054641F2883700BF306A800714
:100AB00020D5FFF719FD401BB8424FF00300F5D9D0
:100AC00007E700BF306A40F004003062306A40F04F
:100AD00001003062FFF708FD054641F2883700BF8C
:100AE000306A800706D4FFF7FFFC401BB842F7D9F5
:100AF00037E000BFB8F1000F7FF4D5AEF06920F009
:100B00008050F061CFE600BF306820F48030306064
:100B1000306820F480203060FFF7E6FC054600BF17
:100B2000306880037FF59DAEFFF7DEFC401B642834
:100B30004FF00300F4D9CCE6306840F480203060F8
:100B4000306840F480303060FFF7CEFC054600BFCF
:100B5000306880033FF585AEFFF7C6FC401B642874
:100B6000F6D9032002B0BDE8F08100BF206AB0F5DD
:100B7000803F05D17168A26821F400311143716092
:100B80007168626A21F47411114308437060012096
:100B90003866FFF7A9FC0446306880013FF598AE3F
:100BA000FFF7A2FC001B02284FF00300F4D990E6E7
:100BB000411E0020B0EB116F1CBF012070474EF2A8
:100BC0001002CEF2000251604EF62351CEF2000127
:100BD000F0230B700721906011607047FEE7000062
:100BE00010B50F20FFF758FB0120FFF755FB40F62B
:100BF0000044C4F20104204640210022FFF76EFCAD
:100C0000204680210022FFF769FC20464FF4004176
:100C10000022FFF763FC20464FF480410022FFF7DB
:100C20005DFC20464FF400510122FFF757FC20469F
:100C30004FF480510122FFF751FC20468021012210
:100C4000FFF74CFC204680210022FFF747FC0520DF
:100C5000FFF722FB0120FFF71FFB20464021002267
:100C6000FFF73CFC204680210022FFF737FC20469E
:100C70004FF400410022FFF731FC20464FF4804141
:100C80000022FFF72BFC20464FF400510122FFF712
:100C900025FC20464FF480510122FFF71FFC20461F
:100CA00080210122FFF71AFC204680210022FFF755
:100CB00015FC0120FFF7F0FA0120FFF7EDFA2046BE
:100CC00040210022FFF70AFC204680210022FFF786
:100CD00005FC20464FF400410022FFF7FFFB2046B1
:100CE0004FF480410022FFF7F9FB20464FF40051FA
:100CF0000122FFF7F3FB20464FF480510122FFF75A
:100D0000EDFB204680210122FFF7E8FB20468021F1
:100D10000022FFF7E3FB0120FFF7BEFA2046402147
:100D20000022FFF7DBFB204680210022FFF7D6FBE5
:100D300020464FF400410022FFF7D0FB20464FF43D
:100D400080410022FFF7CAFB20464FF400510122E8
:100D5000FFF7C4FB20464FF480510022FFF7BEFB93
:100D6000204680210122FFF7B9FB20468021002286
:100D7000FFF7B4FB00202C2100F070F800200F21B9
:100D800000F06CF80020062100F068F80020012136
:100D900000F064F80220BDE81040FFF77DBA0000C3
:100DA000B0B50546402040EAC5000C46C1B200205F
:100DB00000F054F82178012000F050F8412040EA7A
:100DC000C500C1B2002000F049F86178012000F0B0
:100DD00045F8422040EAC500C1B2002000F03EF8CC
:100DE000A178012000F03AF8432040EAC500C1B2E2
:100DF000002000F033F8E178012000F02FF84420C3
:100E000040EAC500C1B2002000F028F82179012095
:100E100000F024F8452040EAC500C1B2002000F0EF
:100E20001DF86179012000F019F8462040EAC5005C
:100E3000C1B2002000F012F8A179012000F00EF8F4
:100E4000472040EAC500C1B2002000F007F8E17970
:100E50000120BDE8B04000F001B8000070B50646C2
:100E600040F6004401200D46C4F20104FFF714FAD5
:100E7000B6F1FF0220464FF0400118BF3246FFF79F
:100E80002DFB204680210022FFF728FBEA0920469F
:100E90004FF40041FFF722FBC5F3801220464FF4C8
:100EA0008041FFF71BFBC5F3401220464FF4005171
:100EB000FFF714FBC5F3001220464FF48051FFF7F3
:100EC0000DFB204680210122FFF708FB20468021F0
:100ED0000022FFF703FBFF2E08BF70BD0120FFF7C4
:100EE000DBF9204640213246FFF7F8FAC5F3C0028D
:100EF00020464FF40041FFF7F1FAC5F38002204687
:100F00004FF48041FFF7EAFAC5F3400220464FF460
:100F10000051FFF7E3FA05F0010220464FF480513B
:100F2000FFF7DCFA204680210122FFF7D7FA20469E
:100F300080210022BDE87040FFF7D0BAFEE7000034
:100F4000FEE700007047000070470000FFF7D2BACC
:100F500070470000FEE7000090B0FFF7D9FA06AC3A
:100F6000201D2421FFF730F90220069001200A906D
:100F700010200B90002520460D95FFF73FFC28B16F
:100F8000EFF3108072B600BFFEE700BF0F20CDE97F
:100F9000010501A80021CDE903550595FFF74EFB9A
:100FA00020B1EFF3108072B6FEE700BF4FF0000AE9
:100FB00041F21800CDE908AAC4F20200016840F627
:100FC000000641F0100101600168C4F2010601F061
:100FD0001001019101990168002241F02001016096
:100FE00001684FF0020801F02001019101990168A8
:100FF00041F004010160016801F0040101910199CF
:10100000016841F0080101600068022100F0080059
:10101000019001983046FFF761FA06F5806420469A
:101020004FF6C47100224FF6C479FFF757FA4FF418
:10103000604006AD06904FF0030B06F500602946B0
:10104000CDF81CB0FFF73CF906F540602946CDE924
:1010500006BBFFF735F949F6F570CDE9060B3046CA
:101060002946FFF72DF9012730462946CDF818808B
:10107000CDE9077ACDF82480FFF722F90820CDE9E1
:10108000060A304629460897FFF71AF920462946EE
:10109000CDE9067ACDF820A0FFF712F93A20CDE984
:1010A000060B20462946FFF70BF920462946CDE9D5
:1010B0000697CDE908A8FFF703F90420C4F2010060
:1010C000016841F0E06141F400410160FFF788FDF3
:1010D00041F2A411C0F600010020FFF761FE41F2C9
:1010E000AC11C0F600010120FFF75AFE41F2B41125
:1010F000C0F600010220FFF753FE41F2BC11C0F61A
:1011000000010320FFF74CFE00208021FFF7A6FE20
:1011100001204321FFF7A2FE01206821FFF79EFE78
:1011200001200021FFF79AFE01202021FFF796FE03
:1011300001200121FFF792FE01200221FFF78EFE20
:1011400001207021FFF78AFE01202021FFF786FE93
:1011500001207421FFF782FE01207221FFF77EFE3D
:1011600001206121FFF77AFE01206921FFF776FE59
:1011700001202021FFF772FE01200321FFF76EFE00
:1011800001200321FFF76AFE01200321FFF766FE1D
:10119000FEE701020000000000000000010203045D
:1011A00006070809020400040404040E00020702F2
:1011B0000E12120F000E111F100E0004000A1F1F46
:1011C0000E04000002030405060708090A0B0C0DB3
:1011D0000E0F1010F8110008000000201000000091
:1011E000280100080812000810000020680600000E
:1011F0004401000800000000010000001000000091
:081200000024F40000000000CE
:04000005080000ED02
:00000001FF
