:020000040800F2
:10000000700A0020E9010008291F0008211F0008CC
:10001000251F0008E50E00080D2000080000000064
:10002000000000000000000000000000311F000878
:10003000E90E0008000000002D1F0008351F000811
:10004000030200080302000803020008030200087C
:10005000030200080302000803020008030200086C
:10006000030200080302000803020008030200085C
:10007000030200080302000803020008030200084C
:10008000030200080302000803020008030200083C
:10009000030200080302000803020008030200082C
:1000A000030200080302000803020008030200081C
:1000B000030200080302000803020008030200080C
:1000C00003020008030200080302000803020008FC
:1000D00003020008012000080302000803020008D0
:1000E00003020008030200080302000800F002F8FF
:1000F00000F06AF80AA090E8000C82448344AAF158
:100100000107DA4501D100F05FF8AFF2090EBAE855
:100110000F0013F0010F18BFFB1A43F0010318473B
:10012000882D0000A82D0000103A24BF78C878C19F
:10013000FAD8520724BF30C830C144BF04680C60ED
:10014000704700000023002400250026103A28BF35
:1001500078C1FBD8520728BF30C148BF0B60704739
:10016000662902F06B85652902F0688503681B0A21
:1001700028BF41F08001692900F0D280642900F095
:10018000CF80752900F0CC806F2900F04381782959
:1001900000F06A81E42900F0FF80F52900F0FC807E
:1001A000632900F05185732900F0568500207047BF
:1001B0001FB500F067FD04000020002102F028FDBB
:1001C000E0601FBD10B510BD00F016FE1146FFF730
:1001D000EFFF01F033FF00F034FE03B4FFF7F2FF4E
:1001E00003BC00F077FE000009488047094800473B
:1001F000FEE7FEE7FEE7FEE7FEE7FEE7FEE7FEE7D7
:10020000FEE7FEE704480549054A064B7047000033
:10021000391F0008ED00000870040020700A00205B
:1002200070060020700600200FB4044910B503AA20
:10023000029800F015FD10BC5DF814FBF4000020DE
:100240000FB41CB50C0007AA009007D04142A14290
:1002500002D32044401E01E04FF0FF30074B7B44A7
:1002600069460190069800F0CAFC0020002C01D0DD
:10027000009908701CBC5DF814FB0000C309000065
:1002800070B5044685690068C10601D5302600E0D6
:100290002026C00707D070BDD4E901213046904721
:1002A000206A401C20626D1EF6D570BD70B50446F4
:1002B00085690078C00707D170BDD4E901212020ED
:1002C0009047206A401C20626D1EF6D570BD70B547
:1002D0000C460546012A05D02878800600D5EA6933
:1002E000002302E0012305E05B1C934202D2E05CA4
:1002F0000028F9D1A869E618C01AA861286A18442C
:1003000028622846FFF7BCFF04E0D5E9012114F874
:10031000010B9047B442F8D32846FFF7C7FF70BDE2
:100320002DE9F0410646002410687529314616A5CE
:1003300010D0AFF30080002802DA404213A507E096
:1003400031688A0701D512A502E0490704D511A535
:10035000012401E0AFF3008000210A2206F1240706
:1003600009E0B0FBF2FCB0FBF2F302FB1C00303002
:1003700078541846491C0028F3D123462A463046B3
:10038000BDE8F04100F0CFB9000000002D000000F2
:100390002B000000200000002DE9F0418046D21D16
:1003A00022F007020025D2E90002F52915A614D093
:1003B000011E72F1000106DA0023D0EB030063EBAB
:1003C000020211A608E0D8F800108B0701D50FA68D
:1003D00002E0490701D50EA601251146002408F1C7
:1003E000240704E000F05AF930323A55641C50EA10
:1003F0000102F7D12B46324621464046BDE8F04186
:1004000000F091B9000000002D0000002B0000005A
:100410002000000070B5044621461068AFF300804C
:10042000002104F1240505E000F007023032C00885
:100430006A54491C0028F7D12068002308A2050748
:1004400008D500F02000084304D0E069012305A28C
:10045000401EE0612046BDE8704000F064B9000035
:10046000000000003000000070B504460D46214633
:100470001068AFF300802188090502D50F4A7A443D
:1004800002E00E4A7A440E32002104F1240305E012
:1004900000F00F060009965D5E54491C0028F7D154
:1004A00020780023000704D5702D02D009B1022363
:1004B00011322046BDE8704000F035B9BE2700007B
:1004C0002DE9F05F894604464FF0000ADFF874B169
:1004D000FB44C0F820A02046E1688847002874D07B
:1004E000252806D0D4E901219047206A401C2062CB
:1004F000F1E700265F462046E16888472028054648
:1005000007DB312D05D2781910F8200C08B106430D
:10051000F1E7B00701D526F00406C4F81CA00027B7
:10052000C4F818A02A2D09D0284602F069FB38B378
:1005300004EB8708303DC8F8185019E059F8041B3F
:10054000204604EB87029161E1688847012F054648
:1005500018D1E069002820DA26F020061DE0D8F83E
:10056000180000EB800005EB40003038C8F8180098
:100570002046E1688847054602F042FB0028EED19C
:10058000012F0AD02E2D08D12046E16888477F1C14
:100590000546022F46F02006C4DBA069002803DAD6
:1005A000404246F00106A061F00701D026F0100697
:1005B0006C2D0BD0682D09D04C2D39D06A2D35D03B
:1005C000742D35D07A2D33D016E038E0E1682F460F
:1005D00020468847B842054609D16C2F26D04FF4F3
:1005E0008060E168064320468847054604E06C2F9A
:1005F0001AD04FF4807006430DB3A5F141001928BD
:1006000002D8203546F400664A4629462046266030
:100610004E46FFF7A5FD80B101280BD0F61D26F050
:10062000070000F1080956E74020E4E78020D8E7FA
:100630000020D6E706F104094DE7284652E7206A74
:10064000BDE8F09F942700004FF0000200B513466C
:1006500094469646203922BFA0E80C50A0E80C50E2
:10066000B1F12001BFF4F7AF090728BFA0E80C5093
:1006700048BF0CC05DF804EB890028BF40F8042B8C
:1006800008BF704748BF20F8022B11F0804F18BFF9
:1006900000F8012B704770477047704730B5B0F1D4
:1006A0000A0271F100034FEA900E4EEA817EB0EB30
:1006B0000E0061EB91014FEA101E4EEA017E10EB35
:1006C0000E0041EB11114FEA102E4EEA016E10EBB5
:1006D0000E0041EB11214FEA104E4EEA014E10EB95
:1006E0000E0041EB1141401841F100014FEAD000EA
:1006F00040EA41704FEAD1014FEA810444EA907424
:1007000010EB800544EB01046D1944EB0404521B0B
:10071000A3414FF0000348BF0A3200D530BD401C52
:1007200041F1000130BD2DE9F0470D469946924652
:10073000044600F124080168880604D5E06921F028
:100740001001216000E00120A84201DD471B00E00C
:100750000027A1697A1902EB0900081AA061207824
:10076000C00602D42046FFF78BFD002608E0D4E93E
:1007700001211AF806009047206A401C761C20626E
:100780004E45F4DB2078C0060AD52046FFF778FDF9
:1007900006E0D4E9012130209047206A401C206205
:1007A000381EA7F10107F4DC07E0D4E9012118F8AD
:1007B00005009047206A401C2062281EA5F1010513
:1007C000F3DC2046FFF772FD2078000602D50220F8
:1007D000BDE8F0870120FBE72DE9FF4F0C461E46E0
:1007E0004FF0FF378BB0D2E90001DDF860800A904E
:1007F0008A46C1F30A5505B93D46002108464FF027
:100800000000BAF1000F00F4400005DA00EB8000B0
:100810004FF4400101EA50004FEA9059B9F1010F3D
:1008200000DDB9460A9850EA4A000ED044F610504E
:10083000A5F2FF3545432F14B8F1000F1ED07542C5
:10084000291E1EDDC9F100021CE0B8F1010F4FF0B6
:10085000000001D0302103E0F24305E02154401CA8
:10086000B042FBDB30460022002121540B99C1F835
:100870000880C1E900200FB0BDE8F08FBD1B6D1CE2
:10088000DEE74A4600DA694206A800F03FFA06AB06
:1008900093E8070003AB83E8070050460A9901F08C
:1008A000D3FD8DE80700A0F500501F380090039895
:1008B000002D0ADD42F21F014A460844002303A925
:1008C0000390684602F03CF809E0A0F500504A4663
:1008D0001F38002303A90390684602F046F88DE80C
:1008E00007000004000C03D04FF0FF30410800E087
:1008F0001046B8F1000F03D00022009215461EE00A
:10090000751E05D4FFF7CAFE303262556D1EF9D54B
:10091000B3460122084302D000227F1C04E0207865
:10092000302801D100227F1E002A099784D01DE0C3
:10093000112D07DAFFF7B2FE303262556D1C50EA16
:100940000102F5D1084302D00098C8B10EE00021A1
:10095000681E05E0235C625C63542254401E491CFF
:100960008142F7DBAB46A81B401E0990002004F82B
:100970000B000B98099AC0F80880C0E9002B7AE7B1
:1009800011264FF0000857E72DE9F04F884604463E
:10099000D21D22F0070191B0D1E90001CDE90A0191
:1009A00002F01AF902460B98C00F01D02D2007E083
:1009B0002068810701D52B2002E0202101EAC00038
:1009C000032A099001D0072A05DB03464146204649
:1009D00000F05CF90BE12078800601D5E06900E0C9
:1009E0000620B8F1650F814606D0B8F1660F18D021
:1009F000B8F1670F70D131E00020B9F1110F00900C
:100A000001DB112301E009F101030AAA01A90CA8E5
:100A1000FFF7E2FEDDE90C70002609F101058346CF
:100A200047E001204B4600904FF000470AAA01A979
:100A30000CA8FFF7D1FEDDE90DB00C995D4600264C
:100A400010B909F101000D18B9EB050003D4C0F18C
:100A5000FF3609F10105A5EB09002BE0B9F1010F03
:100A600001DA4FF001090020B9F1110F009048465A
:100A700001DD112300E003460AAA01A90CA8FFF733
:100A8000ABFEDDE90C704D4600268346207800075A
:100A90000AD4AB4500DA5D4601A8012D04DD4119F9
:100AA00011F8011C302907D04F4502DA17F1040F65
:100AB00004DA012082460FE06D1EEEE7002F02DC13
:100AC000ED1B3E4403E0781CA84200DD7D1CB81BF2
:100AD00000F1010A4FF000472078000703D4AA452F
:100AE00001DB4FF0FF3A0021B7F1004F0DF1430851
:100AF0008DF8431024D002202B23002F01DA7F42EF
:100B00002D230A21021EA0F1010000DC5FB197FB3A
:100B1000F1FC97FBF1F201FB1C7C17460CF1300C49
:100B200008F801CDEEE7A8F101000370218809055E
:100B300001D5452100E06521A0F1010800F8011C64
:100B400009980FA9A1EB0807FF1D00B10120411969
:100B500001EBEA70A1693844081A401EA0612078B0
:100B6000C00602D42046FFF78BFB099828B1D4E9D0
:100B700001219047206A401C20622078C00622D5BF
:100B80002046FFF77DFB1EE0002E04DBB34502DDAF
:100B900001A8805D00E03020D4E901219047206A5F
:100BA000401C2062761CAAF101005FEA000A0AD10B
:100BB00000F068F8C0680168405CD4E90121904702
:100BC000206A401C2062281EA5F10105DCDC07E03C
:100BD000D4E9012118F8010B9047206A401C2062DB
:100BE000381EA7F10107F3DC2046FFF75FFB032067
:100BF00011B041E601694A1C02610878704700B5EE
:100C00008FB0CDE901310021059105497944CDE945
:100C1000031011466846FFF753FC0FB000BD0000FB
:100C2000E5FFFFFFD1E900239A4202D2531C0B607B
:100C30001070704710B5436913B1AFF3008001E045
:100C4000FFF745FB012010BD127800F124010A7066
:100C500000224A700122EDE711684FF0FF32E9E708
:100C6000074B70B50D467B44FFF7C9FF0446284685
:100C700001F0CEF910B14FF0FF3070BD204670BDCD
:100C8000AB13000000487047600000202DE9F041E0
:100C90001F46044603260168072A01F4006004DBAE
:100CA00008B116A505E016A503E008B115A500E0FA
:100CB00015A521F010002060A069C01EA0610FB131
:100CC000401EA0612046FFF7DBFA4FB1D4E90121B5
:100CD00038469047206A401C2062C01C206206E013
:100CE000206AFAE7D4E9012115F8010B9047761E36
:100CF000F8D22046FFF7DAFABDE8F0814E414E0007
:100D00006E616E00494E4600696E66002DE9F0473F
:100D1000814616468AB0354878440DC88DE80D00E6
:100D200032487844801C03AC0DC884E80D0041F6BD
:100D30009B300844372190FBF1F290FBF1F5A5F1CF
:100D4000800501FB12041B3C02D56442012000E037
:100D50000020DFF898A080460027FA44AAF1BE0AD6
:100D60000EE0E0070AD03246684607EB4701012350
:100D70000AEB810101F0F9FD8DE8070064107F1C8A
:100D8000002CEED1194F7F44AE3F19E0E80715D093
:100D900007EB04100DF1180A90E80E008AE80E0027
:100DA000C068F04201D1981908903246012306A983
:100DB00003A801F0DAFD03AB83E807006D10641CA3
:100DC000002DE3D14FF0010332466946B8F1000F20
:100DD00003A802D001F0B4FD01E001F0C6FDC9E9AD
:100DE0000001C9F808200AB0BDE8F087DC1F000048
:100DF00000487047400000207546FFF7F9FFAE46F7
:100E000005006946534620F00700854618B020B516
:100E1000FFF7F8F9BDE820404FF000064FF000075B
:100E20004FF000084FF0000BAC46ACE8C009ACE84E
:100E3000C009ACE8C009ACE8C00921F007018D4643
:100E4000704710B50446AFF300802046BDE810405F
:100E5000FFF7C3B94FF0013C50F8042B51F8043BA5
:100E60009A4221D1A2EB0C03934313EACC1317D17E
:100E700050F8042B51F8043B9A4215D1A2EB0C0315
:100E8000934313EACC130BD150F8042B51F8043BD5
:100E90009A4209D1A2EB0C03934313EACC13DBD0A3
:100EA0004FF00000704700BFD01A01BAB1FA81F1CB
:100EB00001F0180122FA01F0CB40DBB2C0B2C01A37
:100EC000C1F120012CFA01F3D11A914311EAC311A7
:100ED000E6D1704701491820ABBEFEE726000200AC
:100EE00070470000FEE7000070470000014690F8E0
:100EF0002100022816D10868D1E90FC3026822F048
:100F00000E020260026822F001020260012000FA73
:100F100003F2CCF8042081F821000020002281F89F
:100F200020207047042088630120002281F82020BF
:100F30007047000080B590F82110022924D1026882
:100F4000116821F00E0111602F211368C4F2020113
:100F50008A4240F20401C4F2020123F0010313604B
:100F600016DD3023C4F202039A421DD04423C4F29A
:100F700002039A421CD05823C4F202039A421DD1A4
:100F80004FF4803322E000BF04218163012080BD43
:100F90000823C4F202039A420ED01C23C4F20203B7
:100FA0009A420BD1102311E04FF480730EE000BF82
:100FB0004FF480530AE000BF012307E001F1680C01
:100FC0004FF08073624508BF4FF480130B60416B94
:100FD0004FF48072028401B18847002080BD000078
:100FE000B0B5044600F01EF9054640F23000C2F2EA
:100FF00000000078611C18BF044400BF00F012F923
:10100000401BA042FAD3B0BD2DE9F04F82B00E686C
:10101000002E00F0038140F20C4C41F200424FF6EA
:10102000FF7EC4F2010CC4F2010204270024012354
:10103000C1F2100E4FF0000A4FF00009904208BFB5
:101040000327009745E000BF012704F00C030F229F
:101050009A402BEA020207FA03F34FEA9A051A4371
:1010600046F82520D1F804B040F20045C4F201054D
:101070005FEACB322A6854BF22EA080242EA080239
:101080002A606A685FEA8B3354BF22EA080242EAA8
:1010900008026A605FEACB23AA6854BF22EA08020A
:1010A00042EA08025FEA8B23AA60DCF800204FF0D6
:1010B000010354BF22EA080242EA0802CCF80020E9
:1010C0000E680AF1010A36FA0AF204F1040400F08B
:1010D000A58003FA0AF816EA080FF1D04E687645A3
:1010E00012DC122E56D8DFE806F0350B454955556F
:1010F00055555555555555555555554D510000BFEC
:10110000D1F80C9046E000BF4FF6FF72C1F2210209
:1011100096420FDC0022C1F2110296421AD0002240
:10112000C1F21202964215D00022C1F2210296426B
:1011300010D02FE00022C1F2220296420AD00022F3
:10114000C1F23102964205D00022C1F2320296422B
:1011500020D100BF8A684AB1012A14BFC0F81480A8
:10116000C0F810804FF0080914E000BF4FF00409E8
:1011700010E000BFCA6802F108090BE04FF0000957
:1011800008E000BFCA6802F1040903E0CA6802F17E
:101190000C0900BF22460646BAF1080F24BF203AC8
:1011A000043637680F25954027EA050509FA02F24B
:1011B0002A433260CA79D2067FF582AF41F2180322
:1011C000C4F202031A6842F001021A601A6802F0BF
:1011D00001020192019A40F20042C4F20102A2F51A
:1011E0007E762AF0030256F802B040F60002C4F2FE
:1011F0000102904210D040F60042C4F20102904237
:101200003FF422AF41F20002C4F20102009F90427B
:1012100008BF022719E700BF002716E702B0BDE8A4
:10122000F08F000040F26840C2F200000068704792
:1012300040F2300040F26841C2F20000C2F2000108
:1012400000780A68104408607047000080B542F2D8
:101250000000C4F20200016841F0100101600320A7
:1012600000F08EF80F2000F005F800F027F80020BD
:1012700080BD000070B540F23006C2F2000640F2B8
:1012800038013278C2F200014FF47A730968B3FB77
:10129000F2F20446B1FBF2F1084600F063FB0F2CBA
:1012A0004FF0010508D838B94FF0FF302146002231
:1012B000002500F039F87460284670BD82B041F214
:1012C0001800C4F202000168022241F0010101602D
:1012D000016801F0010101910199416841F08051DB
:1012E0004160406800F08050009000980420C4F2F3
:1012F0000100016862F31A61016002B070470000EA
:10130000002848BF7047C1B200F01F00012202FA56
:1013100000F04EF20012CEF2000242EAD10121F0BA
:10132000030108607047000010B54EF60C5CCEF269
:10133000000CDCF80030C3F3022E8EF00704042CFE
:1013400028BF0424BEF103034FF0FF3E0EFA04F45D
:1013500038BF0023A14399400EFA03F39A43114387
:1013600000F00F0200F160430901043A03F5644301
:101370006244002848BF02F10C03197010BD000040
:101380004EF60C51CEF200010A684FF6FF031A40E8
:1013900060F30A2242F0806040F0FD700860704700
:1013A0002DE9F04381B0002800F0858042F200086A
:1013B000C4F202080446D8F800000D4600F0070009
:1013C00088420CD2D8F8000020F007002843C8F863
:1013D0000000D8F8000000F00700A8426BD1206898
:1013E00041F204098107C4F2020917D5410705D566
:1013F000D9F8001041F4E061C9F80010010705D5E3
:10140000D9F8001041F46051C9F80010D9F8001063
:10141000A26821F0F0011143C9F80010C00741D1C2
:10142000D8F8000000F00700A8420CD9D8F8000056
:1014300020F007002843C8F80000D8F8000000F0AA
:101440000700A84237D12068410707D5D9F8001016
:10145000E26821F4E0611143C9F80010000708D5E3
:10146000D9F80000216920F4605040EAC100C9F8B1
:101470000000D9F8002002F00C00082841F20020FA
:10148000C0F27A0050D142F62A53C2F38341C0F62B
:101490000003595CD2033BD440F60010C0F23D007B
:1014A000484341E0606802280AD001282AD159F84F
:1014B000041C890308D4012001B0BDE8F08300BFFB
:1014C00059F8041C8901F6D5D9F8001021F0030160
:1014D0000843C9F80000FFF7A5FE064641F2883729
:1014E000D9F80000616800F00C00B0EB810F97D0D4
:1014F000FFF798FE801BB842F2D9032001B0BDE887
:10150000F08300BF59F8041C8907D4D5DCE700BF7D
:10151000D9F8002042F61053C2F34042C0F600034F
:101520009A5C4843B0FBF2F0D9F8001042F6125230
:10153000C1F30311C0F60002515C40F2380220FAF8
:1015400001F140F23400C2F200000068C2F2000271
:101550001160FFF78FFE002001B0BDE8F0830000AE
:1015600040F2380041F20401C2F20000C4F202016C
:101570000068096842F62252C1F30221C0F6000257
:10158000515CC8407047000040F2380041F204014D
:10159000C2F20000C4F202010068096842F6225259
:1015A000C1F3C221C0F60002515CC8407047000080
:1015B0002DE9F04182B0002868D00446007841F25D
:1015C0000006C007C4F2020625D0706800F00C00C7
:1015D00004281BD0706800F00C00082802D1706845
:1015E000C00313D46068002800F06881B0F5A02F14
:1015F00000F07C81B0F5803F00F07C81306820F401
:1016000080303060306820F4802076E130688003DC
:1016100001D56068D0B32078800718D5706810F0C5
:101620000C0F07D0706800F00C0008286ED17068AD
:10163000C0036BD43068800702D52069012825D10A
:101640003068616920F0F80040EAC100306020781D
:1016500000071FD42078400732D4E56995B170683F
:1016600000F00C00082840F08F80012D0ED070682B
:10167000216A00F480328A4208D1616A00F4701055
:10168000884203D1002002B0BDE8F081012002B001
:10169000BDE8F081A069002862D00020C4F2422099
:1016A0000121C0F88014FFF7BDFD0546706A800770
:1016B00000F18C80FFF7B6FD401B0228F6D92AE125
:1016C000F06910F0805808D1F06940F08050F06166
:1016D000F06900F080500090009847F20007C4F2D3
:1016E00000073868C00529D4386840F48070386035
:1016F000FFF798FD054600BF3868C0051ED4FFF708
:1017000091FD401B6428F7D905E100BF206900283E
:1017100040F20000C4F2422000F08280012101600A
:10172000FFF780FD054600BF306880073FF588AFB2
:10173000FFF778FD401B0228F6D9ECE0E0680028AE
:1017400000F08080052800F09780012800F0988044
:10175000306A20F001003062306A20F0040092E02C
:101760000020C4F242200021C0F88014FFF75AFD87
:10177000054600BF706A80077FF56CAFFFF752FD2A
:10178000401B0228F6D9C6E00027C4F242270020F9
:101790003866FFF747FD022D05460BD13068800102
:1017A00040F1BE80FFF73EFD401B02284FF00300D2
:1017B000F4D968E7306880017FF564AFFFF732FD48
:1017C000401B02284FF00300F4D95CE740F23800D8
:1017D000C2F20000006844F6D351C1F26201A0FBDE
:1017E0000101480A019000BF00BF0198411E002876
:1017F00001913FF42FAF00BF0198411E00280191D5
:101800003FF428AF00BF0198411E002801913FF42A
:1018100021AF00BF0198411E00280191E4D119E7D2
:1018200000210160FFF7FEFC054600BF306880071D
:101830007FF50DAFFFF7F6FC401B02284FF00300C9
:10184000F4D920E7306A20F001003062306A20F0DD
:1018500004003062FFF7E6FC054641F2883700BF1E
:10186000306A800720D5FFF7DDFC401BB8424FF0FF
:101870000300F5D907E700BF306A40F0040030628A
:10188000306A40F001003062FFF7CCFC054641F2BF
:10189000883700BF306A800706D4FFF7C3FC401BBF
:1018A000B842F7D937E000BFB8F1000F7FF4D5AEEA
:1018B000F06920F08050F061CFE600BF306820F47E
:1018C00080303060306820F480203060FFF7AAFC60
:1018D000054600BF306880037FF59DAEFFF7A2FC90
:1018E000401B64284FF00300F4D9CCE6306840F484
:1018F00080203060306840F480303060FFF792FC28
:10190000054600BF306880033FF585AEFFF78AFCCF
:10191000401B6428F6D9032002B0BDE8F08100BF67
:10192000206AB0F5803F05D17168A26821F40031CA
:10193000114371607168626A21F4741111430843A4
:10194000706001203866FFF76DFC04463068800146
:101950003FF598AEFFF766FC001B02284FF003002E
:10196000F4D990E6411E0020B0EB116F1CBF01209E
:1019700070474EF21002CEF2000251604EF6235133
:10198000CEF20001F0230B700721906011607047C8
:101990007047000070470000B0B582B0026805468D
:1019A0001068D368546900F02F01202903F020014A
:1019B00006D129B1284602B0BDE8B04000F0C4BA53
:1019C0005FEA007C1EBF04F0010E03F4907414EB78
:1019D0000E0453D1296B012905D110F0100118BF55
:1019E00013F0100136D1010622D513F080011FD06B
:1019F00095F83D0021283FD1A868B0F5805F03D15C
:101A00002869002800F0F880286A411C29620078C3
:101A10005060E88C01380104E8842DD1D06820F0B2
:101A20008000D060D06840F04000D06002B0B0BD0F
:101A3000400621D513F040001ED0D068202120F0B0
:101A40004000D060284685F83D1002B0BDE8B040A7
:101A500000F064BA00200190106801905068019075
:101A600001985069400611D4A88DE98DEB8D002BAB
:101A700018BF884240F0A68002B0B0BDC40718BFAE
:101A800013F480732CD1430730D436E0A86B01687F
:101A90004B689CB2002CEFD0A98D8C42ECD2EB8528
:101AA0008369202B17D0D16821F48071D1605169EE
:101AB00021F001015161516921F040015161202162
:101AC00085F83E1000212963D16821F01001D16012
:101AD000FFF70CFAA98DE88D081A81B2284685E037
:101AE0002B6C43F001032B64430706D5BEF1000FB6
:101AF00003D02B6C43F002032B64830706D5BEF1A1
:101B0000000F03D02B6C43F004032B64BCF1000FD7
:101B100009D541EA0E03B3FA83F35B0903D12B6CB9
:101B200043F008032B642B6C002BA5D010F0200091
:101B300018BF002903D0284600F006FA2A68506929
:101B4000296C00F0400001F0080140182CD0D0684A
:101B500020F49070D060506920F001005061286B33
:101B6000012803D1D06820F01000D060202085F833
:101B70003E0000202863506940061DD5506920F0C2
:101B800040005061A86BB8B141F63D71C0F600014C
:101B90004163FFF7CFF900283FF46EAFA86B416BAC
:101BA00002B0BDE8B04008472846FFF7F3FE00202A
:101BB000286402B0B0BD00BF284602B0BDE8B04006
:101BC000FFF7E8BED368401A23F49073D3605369DB
:101BD00081B223F001035361202385F83E300023B6
:101BE0002B63D368284623F01003D36002B0BDE80E
:101BF000B040FFF7CDBE00BF286A30F8021B6FF37C
:101C00005F215160286204E7002804BF012070476B
:101C100010B5044690F83D0028B9002084F83C0037
:101C2000204600F061F8242084F83D002068D4E9C3
:101C30000212C36823F40053C360036923F44053C2
:101C40001A430261D4E904231143C268194341F2E3
:101C50000C639A431143C1604169A26921F4407148
:101C6000114343F60002C4F201029042416103D0E5
:101C7000FFF776FC02E000BFFFF786FC62681921DF
:101C800048439100B0FBF1F048F21F51C5F2EB114F
:101C9000A0FB01235A094FF69C73C0F6FF7302FBA9
:101CA0000300322303EB0010A0FB0101F02303EA41
:101CB0005113206803EB0212C1F3431111448160F8
:101CC000016921F490410161416921F02A014161DA
:101CD000C16841F40051C16000202021206484F8D3
:101CE0003D1084F83E1010BD70B586B040F600047B
:101CF000C4F20104006804F54051002688420496AD
:101D000002D006B070BD00BF41F21800C4F202005C
:101D1000016802AD41F480410160016801F4804135
:101D200001910199016841F00401016000682946B0
:101D300000F00400019001984FF40070029002201E
:101D40000390032005902046FFF75EF94FF4806072
:101D5000CDE90206204629460496FFF755F92520CD
:101D600000210022FFF7E0FA2520FFF7C9FA06B0AC
:101D700070BD0000704700002DE9F041044690F866
:101D80003D0020280ED10D4600294FF0010000F043
:101D90008E801646002A08BFBDE8F08194F83C000A
:101DA000012803D10220BDE8F08100BF012084F8A2
:101DB0003C00002020642120984684F83D00FFF775
:101DC00031FAA684E684A1680646B1F5805F03D1A6
:101DD0002069002800F0A0802F460025002084F80C
:101DE0003C00E08CE0B118F101001BD0B8F1000F0D
:101DF00060D120680BE000BF35F8021B00276FF3AD
:101E00005F214160E18C0139E184E18C51B30168CB
:101E100009066DD5002FEFD017F8011BF1E700BFC1
:101E200020681FE0206802E00168090609D4016803
:101E3000090606D4016809065CBF01685FEA016112
:101E4000F2D51FB117F8011B05E000BF35F8021BE2
:101E500000276FF35F214160E18C0139E184E18C5F
:101E60000029E4D1016849061DD4B8F1000F3FD024
:101E700018F101010ED10168490614D40168490620
:101E80005CBF01685FEA41610DD401684906F2D583
:101E900009E000BFFFF7C6F9811B2068414527D83C
:101EA00000684006F6D5202084F83D000020BDE8FB
:101EB000F08100BF206800BF0168090606D4FFF763
:101EC000B1F9811B20684145F6D911E017B117F827
:101ED000011B04E035F8021B00276FF35F2141600E
:101EE000E18C0139E184E18C0029E5D1BAE700BF3A
:101EF000C16821F4D071C160416921F001014161E3
:101F0000202084F83D0084F83E00002084F83C0046
:101F10000320BDE8F08100BF00275FE770470000A5
:101F2000FEE70000FEE70000FEE70000704700004B
:101F300070470000FFF77CB970470000406A00213D
:101F4000C185C184FFF726BD81B090F83E102229DB
:101F500021D183680246B3F5805F09D152F8281F6A
:101F600052F8183C002B3FD003685B680AE000BFC2
:101F700052F8281F13B90369002BF5D003685B687A
:101F800003F07F030B70116801311160C18D0139BD
:101F90000A04C18502D001B0704700BF0168CA6859
:101FA00022F02002CA60CA6822F48072CA604A69BC
:101FB00022F001024A61202280F83E20026B012AB1
:101FC0001AD100220263CB6823F01003CB600B68A8
:101FD000DB0605D500920A680092496800910099D5
:101FE000818D01B0FFF7D4BC026852686FF35F22A5
:101FF00021F8022B8162C9E701B0FFF7BBBE0000E8
:1020000040F2B000C2F20000FFF7C6BCFEE70000DD
:102010000020704710B582B004468DF8070040F2EA
:10202000A000C2F2000010300DF10701012264236C
:10203000FFF7A2FE204602B010BD000094B0FFF7EB
:1020400005F90AAC201D2421FEF7FEFA02200A90B1
:1020500001200E9010200F90002520461195FFF7CB
:10206000A7FA28B1EFF3108072B600BFFEE700BFF9
:102070000F20CDE9050505A80021CDE907550995F3
:10208000FFF78EF920B1EFF3108072B6FEE700BFC4
:1020900041F21800C4F20200016840F2A00441F0CD
:1020A000040101600068C2F2000400F004000A901C
:1020B0000A9843F60001C4F20101204640F8101FBF
:1020C0004FF4165100220C23C0E90112C0E903228B
:1020D000C0E90532C261FFF797FD28B1EFF3108028
:1020E00072B600BFFEE700BF40F20005C2F2000575
:1020F00095F9010095F90030009040F2742042F605
:102100005662C2F20000C0F6000264214FF064097A
:10211000FEF796F8B5F90430B5F9067040F24810AC
:1021200042F63862C2F20000C0F600026421009755
:10213000FEF786F8D5E9033740F2AC1042F61A6292
:10214000C2F20000C0F6000264210097FEF778F8A2
:1021500005F118030FCB03938DE8070040F2102020
:1021600042F68562C2F20000C0F600026421FEF76A
:1021700067F82378AF7840F20440C2F200008EA2E4
:1021800064210097FEF75CF863882F8940F2D8201D
:10219000C2F2000090A264210097FEF751F8636834
:1021A0006F6940F23C30C2F2000093A264210097B4
:1021B000FEF746F8D4E90201D5E90A238DE80700C5
:1021C00040F2A030C2F2000093A264210393FEF714
:1021D00037F842F2F91548F26E6642F6675A42F64F
:1021E000E15B42F6F85748F2A068C4F20905CFF265
:1021F0001B06C0F6000AC0F6000B90A4C0F600074C
:10220000C0F2010842F6E6504FF28021C0F600000D
:10221000CFF6FF718022FEF707F842F65350C0F662
:1022200000007A215022FDF7FFFF42F67360C0F6EE
:10223000000040F2CD714FF4FA42FDF7F5FF42F68F
:10224000B650C0F60000642164226423CDF80090EB
:10225000CDF80490FDF7E8FF42F63A50C0F60000D2
:1022600032462B46CDE9006502960395FDF7DCFF6B
:1022700042F67450C0F6000040F2CD71FDF7D4FF75
:1022800042F69850C0F6000040F2CD71FDF7CCFF49
:1022900050460F218C22FDF7C7FF58462146FDF717
:1022A000C3FF4FF47A70FEF79BFE38464B214B225A
:1022B000FDF7BAFF38464C214C22FDF7B5FF3846F2
:1022C0004D214D22FDF7B0FF38464E214E22FDF73D
:1022D000ABFF38464F214F22FDF7A6FF384650216D
:1022E0005022FDF7A1FF384651215122FDF79CFFF6
:1022F000384652215222FDF797FF38465321532288
:10230000FDF792FF384654215422FDF78DFF3846E1
:1023100055215522FDF788FF384656215622FDF7F4
:1023200083FF384657215722FDF77EFF3846582154
:102330005822FDF779FF384659215922FDF774FFDD
:1023400038465A215A22FDF76FFF38465B215B223F
:10235000FDF76AFF38465C215C22FDF765FF3846D1
:102360005D215D22FDF760FF38465E215E22FDF7AC
:102370005BFF38465F215F22FDF756FF384660213C
:102380006022FDF751FF384661216122FDF74CFFC5
:10239000384662216222FDF747FF384663216322F7
:1023A000FDF742FF384664216422FDF73DFF4046B9
:1023B000FEF716FE26E700BF75696E74385F74205D
:1023C0006D696E2C206D61782076616C75652025B5
:1023D000642025640A00000075696E7431365F74EC
:1023E000206D696E2C206D61782076616C7565209A
:1023F00025642025640A000075696E7433325F74A9
:10240000206D696E2C206D61782076616C75652079
:1024100025752025750A000075696E7436345F7461
:10242000206D696E2C206D61782076616C75652059
:10243000256C6C7520256C6C750A0A002041207390
:102440007472696E672000005FEA400C08BF91F06B
:10245000000F4FEA8C234FEAC12243EA51514FEA61
:102460001C5018BF00F5F0404FEA300018BF41F093
:1024700000415FEA6C5C00F02980BCF1FF3F08BFBF
:1024800040F080407047130C06BF12044FF0100C50
:102490004FF0000C130E04BF12020CF1080C130FC6
:1024A00004BF12010CF1040C930F04BF92000CF155
:1024B000020CD30F04BF52000CF1010C11464FF077
:1024C0000002A0F11F00A0EB0C00704711F0004FBC
:1024D00008BF704731F000413FF4D5AF0B0C06BF89
:1024E00009044FF0100C4FF0000C0B0E04BF090252
:1024F0000CF1080C0B0F04BF09010CF1040C8B0F3D
:1025000004BF89000CF1020CCB0F04BF49000CF191
:10251000010CCCF1200322FA03F341EA030102FA91
:102520000CF2A0EB0C0000F10100704723F07F4794
:1025300020F07F4C80EA030000F00040ACEB070382
:1025400003F57C5303F1FF032DE9804909B44FEAF9
:10255000144324EA03484FEA154B25EA0B4E0FF2C9
:10256000042606EB13273E7803FB0667C7F5000732
:1025700007FB06F64FEAD64606F102064FEA543745
:1025800007FB066CCCF1005C4FEA1C472CEA074CB9
:102590000CFB06F507FB06F404EB15464FEA96160E
:1025A00049085FEA320234BF00204FF000404FEA92
:1025B000D13706FB07FC4FEA1C4C0CFB0BF7D21B78
:1025C00003FB0CF761EB07010CFB0EF7B0EB0740C8
:1025D00072EB17420CFB08F734BFA2EB0742B2EBD9
:1025E000074261EB17414FEA0C444FEA910706FBA3
:1025F00007FC4FEA1C4C0CFB0BF7B0EBC74072EB2F
:10260000573203FB0CF734BFA2EBC742B2EBC74211
:1026100061EB57310CFB0EF7B0EBC70072EB577252
:102620000CFB08F734BFA2EBC702B2EBC70261EBA9
:1026300057714FEA816141EA92114FEA826242EAA0
:1026400090124FEA806004EBCC04039F4FEAD1372D
:1026500006FB07FC4FEA1C4C0CFB0BF7D21B03FBE1
:102660000CF761EB07010CFB0EF7B0EB074072EBC8
:1026700017420CFB08F734BFA2EB0742B2EB07424C
:1026800061EB17414FEA8C5504EB9C244FEA91070C
:1026900006FB07FC4FEA1C4C0CFB0BF7B0EBC740EA
:1026A00072EB573203FB0CF734BFA2EBC742B2EB1D
:1026B000C74261EB57310CFB0EF7B0EBC70072EB72
:1026C00057720CFB08F734BFA2EBC702B2EBC7028C
:1026D00061EB57714FEA816141EA92114FEA8262E0
:1026E00042EA90124FEA806015EB4C2544F1000459
:1026F0004FEAD13706FB07FC4FEA1C4C0CFB0BF7EB
:10270000D21B03FB0CF761EB07010CFB0EF7B0EBE0
:10271000074072EB17420CFB08F734BFA2EB0742ED
:10272000B2EB074261EB17414FEA813141EA924136
:102730004FEA823242EA90424FEA80304FEA0C760A
:1027400015EB1C1544F1000448EA03434EEA0B481C
:102750004FF0000EB2EB080C71EB030724BF62468A
:1027600039464EEB0E0E4FF0000B00185241494116
:102770004BEB0B0BB2EB080C71EB03077BF1000B7F
:1027800024BF624639464EEB0E0E4FF0000B001888
:10279000524149414BEB0B0BB2EB080C71EB0307B9
:1027A0007BF1000B24BF624639464EEB0E0E51EA18
:1027B000020718BF46F0010616EB0E7655F100022F
:1027C00054F1000103D5BDE88901BDE80088BDE8EA
:1027D0008901BDE80048B619524141EB0101A3F15E
:1027E0000103704780807F7E7D7C7B7A7978777665
:1027F00076757473727171706F6E6E6D6C6C6B6ADE
:102800006A6968686766666564646363626161607B
:10281000605F5F5E5E5D5D5C5C5B5B5A5A595958F8
:102820005857575656555555545453535252525162
:10283000515050504F4F4F4E4E4D4D4D4C4C4C4BB8
:102840004B4B4A4A4A4949494848484747474746FF
:10285000464645454544444444434343434242423B
:10286000424141419C46002B30D477002BD04FEAA7
:1028700037071CB503B44FF010004FF01001BAF148
:10288000000F06D0BCF1000FDCBF40F0080040F0A4
:1028900008014FF000000FBCBDE810400BF1010B28
:1028A000BBF1010F08BF5FEA170722BF12F1010257
:1028B00011F101014FF0004143F1000300F000402D
:1028C00043EA00007047F9D35708D0E746EA0646C6
:1028D0004FEA164613F1400F1FDD13F1200FDFBF43
:1028E00016430A46002120335B42BED0C3F12007C5
:1028F00046EA06464FEA164602FA07F746EA070690
:1029000022FA03F2C3F1200701FA07F742EA0702AD
:1029100021FA03F14FF00003A7E746EA020646EA70
:1029200006464FEA164646EA0106BCBF46EA064698
:10293000360C4FF000034FF000024FF0000194E717
:102940002DE9804C70B49A46934691E8380007C848
:1029500031EA400C48BF34EA430C03D5FFF7E6FDEB
:10296000FFF780FFF0BCBDE8008C2DE9804C70B40F
:102970009A46934691E8380007C810F0804F08BF88
:1029800013F0804F03D100F005F8FFF76BFFF0BCA8
:10299000BDE8008C20F07F4723F07F4C80EA0300E5
:1029A00000F0004007EB0C03A3F57C53A3F1FE03FA
:1029B00092F0000F00F0B38095F0000F00F07780E8
:1029C0002DE901494FEA114021EA00484FEA144637
:1029D00024EA064700FB06FC08FB06F607FB08F89E
:1029E00018EB06484CEB164C00FB07F718EB0748B2
:1029F0004CEB17404FEA124B22EA0B4E4FEA1546BA
:102A000025EA06470BFB06FC0EFB06F607FB0EFE4F
:102A10001EEB064E4CEB164C0BFB07F71EEB074E5E
:102A20004CEB174B18EB0B0840F1000018EB0E0BAA
:102A300058EB000840F100008F1A4FF000014FF0F2
:102A400000063CBFC943661B14BFB5EB040C002154
:102A50003CBFC943F61B4FEA174427EA04454FEA37
:102A60001C472CEA074C04FB076205FB07F70CFB2D
:102A700005F616EB074642EB174204FB0CFC16EB7F
:102A80000C4642EB1C421BEB060658EB020241418E
:102A90004EEA8E0E46EA9E0601D5BDE80189B619BA
:102AA000524141EB0101A3F10103BDE801894FEA65
:102AB000144524EA05464FEA114721EA074C05FB75
:102AC00007F406FB07F70CFB06F111EB074144EB9B
:102AD000174405FB0CFC11EB0C4144EB1C444FEA82
:102AE000124722EA074C05FB07F206FB07F70CFB2F
:102AF00006F616EB074642EB174205FB0CFC16EBFD
:102B00000C4642EB1C456A1854F1000148BF70475F
:102B1000B619524141EB0101A3F10103704795F051
:102B2000000F37D04FEA114221EA02464FEA14471C
:102B300024EA074C02FB07F106FB07F70CFB06F43F
:102B400014EB074441EB174102FB0CFC14EB0C4463
:102B500041EB1C414FEA154725EA074C02FB07F5FC
:102B600006FB07F70CFB06F616EB074645EB174589
:102B700002FB0CFC16EB0C4645EB1C42121951F102
:102B8000000148BF7047B619524141EB0101A3F162
:102B9000010370474FEA144524EA05464FEA1147FE
:102BA00021EA074C05FB07F106FB07F70CFB06F2D1
:102BB00012EB074241EB174105FB0CFC12EB0C42F8
:102BC00051EB1C414FF0000648BF7047921841EB93
:102BD0000101A3F101037047490050EAC12018BF69
:102BE00004204A0D18BF40F0010040F2FF72B2EB22
:102BF000515F08BF40F00200012808BF0520704760
:102C000030380A2801D201207047002070470000A8
:102C100010B500290AD00878002807D00548784464
:102C2000FEF718F9002801D0002010BD02487844B2
:102C300010BD0000AA020000A2020000FDF7A4BE21
:102C400030313233343536373839414243444546E2
:102C500040305800303132333435363738396162DC
:102C600063646566403078000400000800000000DE
:102C700000000002000100001000000002400000FF
:102C8000000000A00000000005400000000000C897
:102C9000000000000C4000000000409C000000000C
:102CA000194000000020BCBE0000000034400000BD
:102CB000BFC91B8E00000004B5400000504BCFD0B0
:102CC0006607E2CF010000006C4100003E8251AA7D
:102CD000DFEEA73401000000D9420000DCB5A0E21D
:102CE0003A301F97FFFFFFFFB4450000FD25A0C845
:102CF000E9A3C14FFFFFFFFFFF3F0000000000807E
:102D000000000000FF3F0000000000800000000005
:102D10000102000000000000000001020304060799
:102D2000080900000000010203040203040506076D
:102D300008090A0B0C0D0E0F1010666C6F6174738E
:102D40003A2025342E326620252B2E30652025454D
:102D5000200A00436861726163746572733A2025CA
:102D600063202563200A0057696474683A20252A85
:102D700064200A00507265636564696E6720776934
:102D8000746820656D707479207370616365733A3F
:102D90002025313064200A00507265636564696ED5
:102DA000672077697468207A65726F733A202530DE
:102DB000313064200A00536F6D6520646966666572
:102DC00072656E7420726164696365733A2025646C
:102DD00020257820256F202523782025236F200AA1
:102DE000002573200A00496E7465676572733A2086
:102DF0002569202575200A00415343494920766101
:102E00006C7565203D2025642C20436861726163E8
:102E1000746572203D2025630A00696E7433325F49
:102E200074206D696E2C206D61782076616C7565FB
:102E30002025642025640A00696E7431365F742091
:102E40006D696E2C206D61782076616C756520252A
:102E5000642025640A00696E74385F74206D696EA1
:102E60002C206D61782076616C75652025642025A5
:102E7000640A00446563696D616C733A20256420BF
:102E8000256C640A00696E7436345F74206D696E57
:102E90002C206D61782076616C756520256C6C64E2
:102EA00020256C6C640A0000E82E00080000002059
:102EB0004000000028010008282F000840000020E2
:102EC000300A0000440100081C000000430000001C
:102ED000F8FFFFFF0C0000000E0000000F000000D4
:102EE0002E00000000000000807FFF000080FF7FB8
:102EF000FFFF000000000080FFFFFF7FFFFFFFFFDC
:102F00000000000000000080FFFFFFFFFFFFFF7FC9
:102F1000FFFFFFFFFFFFFFFF0100000010000000A8
:082F20000024F4000000000091
:04000005080000ED02
:00000001FF
