:020000040800F2
:10000000A806002089010008F10B0008E90B000890
:10001000ED0B000891020008050C0008000000002C
:10002000000000000000000000000000F90B0008C4
:100030009502000800000000F50B0008FD0B000809
:10004000A3010008A3010008A3010008A301000800
:10005000A3010008A3010008A3010008A3010008F0
:10006000A3010008A3010008A3010008A3010008E0
:10007000A3010008A3010008A3010008A3010008D0
:10008000A3010008A3010008A3010008A3010008C0
:10009000A3010008A3010008A3010008A3010008B0
:1000A000A3010008A3010008A3010008A3010008A0
:1000B000A3010008A3010008A3010008A301000890
:1000C000A3010008A3010008A3010008A301000880
:1000D000A3010008A3010008A3010008A301000870
:1000E000A3010008A3010008A301000800F002F822
:1000F00000F03AF80AA090E8000C82448344AAF188
:100100000107DA4501D100F02FF8AFF2090EBAE885
:100110000F0013F0010F18BFFB1A43F0010318473B
:1001200094130000B4130000103A24BF78C878C1BB
:10013000FAD8520724BF30C830C144BF04680C60ED
:10014000704700000023002400250026103A28BF35
:1001500078C1FBD8520728BF30C148BF0B60704739
:100160001FB51FBD10B510BD00F058F81146FFF7C0
:10017000F7FF00F049FD00F076F803B4FFF7F2FF57
:1001800003BC00F07DF8000009488047094800479B
:10019000FEE7FEE7FEE7FEE7FEE7FEE7FEE7FEE737
:1001A000FEE7FEE704480549054A064B7047000094
:1001B000010C0008ED000008A8000020A80600209F
:1001C000A8020020A80200204FF0000200B513464C
:1001D00094469646203922BFA0E80C50A0E80C5067
:1001E000B1F12001BFF4F7AF090728BFA0E80C5018
:1001F00048BF0CC05DF804EB890028BF40F8042B11
:1002000008BF704748BF20F8022B11F0804F18BF7D
:1002100000F8012B7047704770477047754600F033
:100220002BF8AE4605006946534620F00700854688
:1002300018B020B5FFF7B6FFBDE820404FF000062C
:100240004FF000074FF000084FF0000BAC46ACE851
:10025000C009ACE8C009ACE8C009ACE8C00921F0AD
:1002600007018D46704710B50446AFF30080204665
:10027000BDE81040FFF781BF0048704740000020F4
:1002800001491820ABBEFEE72600020070470000BF
:10029000FEE7000070470000B0B5044600F02AF900
:1002A000054640F23000C2F200000078611C18BF21
:1002B000044400BF00F01EF9401BA042FAD3B0BDB9
:1002C0002DE9F04F82B00E68002E00F0038140F25D
:1002D0000C4C41F200424FF6FF7EC4F2010CC4F216
:1002E0000102042700240123C1F2100E4FF0000A7E
:1002F0004FF00009904208BF0327009745E000BF78
:10030000012704F00C030F229A402BEA020207FA9D
:1003100003F34FEA9A051A4346F82520D1F804B0B2
:1003200040F20045C4F201055FEACB322A6854BFAF
:1003300022EA080242EA08022A606A685FEA8B330E
:1003400054BF22EA080242EA08026A605FEACB234D
:10035000AA6854BF22EA080242EA08025FEA8B2335
:10036000AA60DCF800204FF0010354BF22EA080223
:1003700042EA0802CCF800200E680AF1010A36FAB7
:100380000AF204F1040400F0A58003FA0AF816EA60
:10039000080FF1D04E68764512DC122E56D8DFE8F1
:1003A00006F0350B45495555555555555555555537
:1003B0005555554D510000BFD1F80C9046E000BF97
:1003C0004FF6FF72C1F2210296420FDC0022C1F209
:1003D000110296421AD00022C1F21202964215D0A2
:1003E0000022C1F22102964210D02FE00022C1F279
:1003F000220296420AD00022C1F23102964205D072
:100400000022C1F23202964220D100BF8A684AB16E
:10041000012A14BFC0F81480C0F810804FF00809FA
:1004200014E000BF4FF0040910E000BFCA6802F1F9
:1004300008090BE04FF0000908E000BFCA6802F1AC
:10044000040903E0CA6802F10C0900BF224606460F
:10045000BAF1080F24BF203A043637680F259540BB
:1004600027EA050509FA02F22A433260CA79D20660
:100470007FF582AF41F21803C4F202031A6842F01A
:1004800001021A601A6802F001020192019A40F218
:100490000042C4F20102A2F57E762AF0030256F869
:1004A00002B040F60002C4F20102904210D040F6C1
:1004B0000042C4F2010290423FF422AF41F2000236
:1004C000C4F20102009F904208BF022719E700BF53
:1004D000002716E702B0BDE8F08F000080680840F2
:1004E00018BF012070470000002A08BF09040161FD
:1004F0007047000040F2A400C2F20000006870479C
:1005000040F2300040F2A401C2F20000C2F2000149
:1005100000780A68104408607047000080B542F215
:100520000000C4F20200016841F0100101600320E4
:1005300000F07AF80F2000F005F800F027F800200E
:1005400080BD000070B540F23006C2F2000640F2F5
:1005500038013278C2F200014FF47A730968B3FBB4
:10056000F2F20446B1FBF2F1084600F027FB0F2C33
:100570004FF0010508D838B94FF0FF30214600226E
:10058000002500F025F87460284670BD82B041F265
:100590001800C4F202000168022241F0010101606A
:1005A000016801F0010101910199416841F0805118
:1005B0004160406800F08050009000980420C4F230
:1005C0000100016862F31A61016002B07047000027
:1005D00010B54EF60C5CCEF2000CDCF80030C3F324
:1005E000022E8EF00704042C28BF0424BEF103035E
:1005F0004FF0FF3E0EFA04F438BF0023A1439940A8
:100600000EFA03F39A43114300F00F0200F1604326
:100610000901043A03F564436244002848BF02F12B
:100620000C03197010BD00004EF60C51CEF2000103
:100630000A684FF6FF031A4060F30A2242F0806016
:1006400040F0FD70086070472DE9F04381B000284C
:1006500000F0858042F20008C4F202080446D8F88F
:1006600000000D4600F0070088420CD2D8F80000C8
:1006700020F007002843C8F80000D8F8000000F078
:100680000700A8426BD1206841F204098107C4F237
:10069000020917D5410705D5D9F8001041F4E061EA
:1006A000C9F80010010705D5D9F8001041F46051D0
:1006B000C9F80010D9F80010A26821F0F001114328
:1006C000C9F80010C00741D1D8F8000000F00700B9
:1006D000A8420CD9D8F8000020F007002843C8F839
:1006E0000000D8F8000000F00700A84237D12068C9
:1006F000410707D5D9F80010E26821F4E061114301
:10070000C9F80010000708D5D9F80000216920F4C5
:10071000605040EAC100C9F80000D9F8002002F09A
:100720000C00082841F20020C0F27A0050D141F2BA
:10073000A143C2F38341C0F60003595CD2033BD40A
:1007400040F60010C0F23D00484341E060680228D6
:100750000AD001282AD159F8041C890308D40120A1
:1007600001B0BDE8F08300BF59F8041C8901F6D53B
:10077000D9F8001021F003010843C9F80000FFF781
:10078000B9FE064641F28837D9F80000616800F0EA
:100790000C00B0EB810F97D0FFF7ACFE801BB84286
:1007A000F2D9032001B0BDE8F08300BF59F8041C62
:1007B0008907D4D5DCE700BFD9F8002041F2844393
:1007C000C2F34042C0F600039A5C4843B0FBF2F02B
:1007D000D9F8001041F28642C1F30311C0F60002BD
:1007E000515C40F2380220FA01F140F23400C2F2CA
:1007F00000000068C2F200021160FFF7A3FE0020B3
:1008000001B0BDE8F08300002DE9F04182B000287E
:1008100068D00446007841F20006C007C4F2020620
:1008200025D0706800F00C0004281BD0706800F020
:100830000C00082802D17068C00313D46068002837
:1008400000F06881B0F5A02F00F07C81B0F5803F0A
:1008500000F07C81306820F480303060306820F413
:10086000802076E13068800301D56068D0B32078BD
:10087000800718D5706810F00C0F07D0706800F072
:100880000C0008286ED17068C0036BD430688007F4
:1008900002D52069012825D13068616920F0F8006F
:1008A00040EAC1003060207800071FD4207840075C
:1008B00032D4E56995B1706800F00C00082840F06A
:1008C0008F80012D0ED07068216A00F480328A4238
:1008D00008D1616A00F47010884203D1002002B090
:1008E000BDE8F081012002B0BDE8F081A0690028D8
:1008F00062D00020C4F242200121C0F88014FFF72A
:10090000F9FD0546706A800700F18C80FFF7F2FD63
:10091000401B0228F6D92AE1F06910F0805808D16E
:10092000F06940F08050F061F06900F08050009074
:10093000009847F20007C4F200073868C00529D4C0
:10094000386840F480703860FFF7D4FD054600BF7A
:100950003868C0051ED4FFF7CDFD401B6428F7D9C9
:1009600005E100BF2069002840F20000C4F24220E7
:1009700000F0828001210160FFF7BCFD054600BF49
:10098000306880073FF588AFFFF7B4FD401B0228B1
:10099000F6D9ECE0E068002800F08080052800F03F
:1009A0009780012800F09880306A20F001003062C2
:1009B000306A20F0040092E00020C4F242200021BE
:1009C000C0F88014FFF796FD054600BF706A8007E7
:1009D0007FF56CAFFFF78EFD401B0228F6D9C6E00D
:1009E0000027C4F2422700203866FFF783FD022D5E
:1009F00005460BD13068800140F1BE80FFF77AFDDB
:100A0000401B02284FF00300F4D968E730688001EA
:100A10007FF564AFFFF76EFD401B02284FF0030027
:100A2000F4D95CE740F23800C2F20000006844F6F6
:100A3000D351C1F26201A0FB0101480A019000BF3D
:100A400000BF0198411E002801913FF42FAF00BF65
:100A50000198411E002801913FF428AF00BF019882
:100A6000411E002801913FF421AF00BF0198411EB3
:100A700000280191E4D119E700210160FFF73AFD58
:100A8000054600BF306880077FF50DAFFFF732FDE8
:100A9000401B02284FF00300F4D920E7306A20F011
:100AA00001003062306A20F004003062FFF722FD5E
:100AB000054641F2883700BF306A800720D5FFF72E
:100AC00019FD401BB8424FF00300F5D907E700BFFE
:100AD000306A40F004003062306A40F00100306259
:100AE000FFF708FD054641F2883700BF306A8007EE
:100AF00006D4FFF7FFFC401BB842F7D937E000BF30
:100B0000B8F1000F7FF4D5AEF06920F08050F061AD
:100B1000CFE600BF306820F480303060306820F4C9
:100B200080203060FFF7E6FC054600BF3068800398
:100B30007FF59DAEFFF7DEFC401B64284FF00300FD
:100B4000F4D9CCE6306840F480203060306840F45E
:100B500080303060FFF7CEFC054600BF3068800370
:100B60003FF585AEFFF7C6FC401B6428F6D903208D
:100B700002B0BDE8F08100BF206AB0F5803F05D12A
:100B80007168A26821F40031114371607168626A72
:100B900021F4741111430843706001203866FFF797
:100BA000A9FC0446306880013FF598AEFFF7A2FC2F
:100BB000001B02284FF00300F4D990E6411E0020EC
:100BC000B0EB116F1CBF012070474EF21002CEF245
:100BD000000251604EF62351CEF20001F0230B705B
:100BE0000721906011607047FEE70000FEE70000FB
:100BF000FEE700007047000070470000FFF780BC70
:100C000070470000FEE7000090B0FFF787FC06ACDD
:100C1000201D2421FFF7D8FA0220069001200A9017
:100C200010200B90002520460D95FFF7EDFD28B113
:100C3000EFF3108072B600BFFEE700BF0F20CDE9D2
:100C4000010501A80021CDE903550595FFF7FCFC3E
:100C500020B1EFF3108072B6FEE700BF4FF000083E
:100C600041F21800CDE90888C4F20200016840F69C
:100C7000004441F0100101600168C4F2010401F078
:100C80001001019101990168A4F5806541F02001EE
:100C90000160016840F60C4B01F0200101910199BF
:100CA0000168002241F0040101600168C4F2010BF7
:100CB00001F004010191019901684FF07F0A41F0B0
:100CC0000801016000687F2100F008000190019890
:100CD0002846FFF709FC204640F6FF710022FFF787
:100CE00003FC4FF4604006AE06904FF003090BF58D
:100CF0007D703146CDF81C90FFF7E2FA41F20040DA
:100D0000C4F201003146CDE90699FFF7D9FACDF8D2
:100D100018A001274FF0020A28463146CDE907788E
:100D2000CDF824A0FFF7CCFA4FF4F060CDE9060827
:100D3000284631460897FFF7C3FA40F6FF7006A928
:100D400081E8810520463146FFF7BAFA4FF470403A
:100D5000CDE9060920463146FFF7B2FA4FF41840B4
:100D6000CDE9060928463146FFF7AAFA0420C4F265
:100D700001000168012241F0E06141F4004101609D
:100D800020464FF48071FFF7AFFB20464FF400710F
:100D90000122FFF7A9FB20464FF480610122FFF7F3
:100DA000A3FB20464FF400610122FFF79DFB28467C
:100DB00040210122FFF798FB284610210122FFF76E
:100DC00093FB284620210122FFF78EFB40F200050D
:100DD0004CF6CD4941F2964AC2F200054FF6FF7635
:100DE000CCF6CC49C0F6000A5EE000BF00F01CFA69
:100DF00044F6D351C1F26201A0FB01018809A0FBB6
:100E00000912D10801EB8101A0EB41001AF8007032
:100E10002869298807F00102FFF766FB686969887D
:100E2000C7F34002FFF760FBA869A988C7F38002F7
:100E3000FFF75AFBE869E988C7F3C002FFF754FBE4
:100E4000286A2989C7F30012FFF74EFB686A69898F
:100E5000C7F34012FFF748FBA86AA989C7F38012BD
:100E6000FFF742FBE86AE989FA09FFF73DFB2046F4
:100E70004FF480710022FFF737FB20464FF40071DA
:100E80000222FFF731FB20464FF480610222FFF778
:100E90002BFB20464FF400610222FFF725FB0120C7
:100EA000FFF7FAF9CBF8006000F0BEF9D0B300F01C
:100EB000BBF9A0FB0912D10801EB8101A0EB4100B5
:100EC0001AF800802869298808F00102FFF70CFB56
:100ED00068696988C8F34002FFF706FBA869A9881A
:100EE000C8F38002FFF700FBE869E988C8F3C00295
:100EF000FFF7FAFA286A2989C8F30012FFF7F4FA13
:100F0000686A6989C8F34012FFF7EEFAA86AA989EE
:100F1000C8F38012FFF7E8FAE86AE9894FEAD812C5
:100F200026E000BF286929880022FFF7DDFA6869FA
:100F300069880022FFF7D8FAA869A9880022FFF77C
:100F4000D3FAE869E9880022FFF7CEFA286A2989EE
:100F50000022FFF7C9FA686A69890022FFF7C4FA1C
:100F6000A86AA9890022FFF7BFFAE86AE989002286
:100F7000FFF7BAFA20464FF480710122FFF7B4FA66
:100F800020464FF400710122FFF7AEFA20464FF4DD
:100F900080610222FFF7A8FA20464FF40061002288
:100FA000FFF7A2FA0120FFF777F9CBF8006000F015
:100FB0003BF9092826D8286929880022FFF794FAE6
:100FC000686969880022FFF78FFAA869A98800225A
:100FD000FFF78AFAE869E9880022FFF785FA286AAC
:100FE00029890022FFF780FA686A69890022FFF7E1
:100FF0007BFAA86AA9890022FFF776FAE86AE989EC
:1010000000223AE000F010F9A0FB0901C808A0FB9B
:101010000912D10801EB8101A0EB41001AF8007020
:101020002869298807F00102FFF75EFA6869698874
:10103000C7F34002FFF758FAA869A988C7F38002EE
:10104000FFF752FAE869E988C7F3C002FFF74CFAE4
:10105000286A2989C7F30012FFF746FA686A698986
:10106000C7F34012FFF740FAA86AA989C7F38012B4
:10107000FFF73AFAE86AE989FA09FFF735FA2046F4
:101080004FF480710122FFF72FFA20464FF40071D0
:101090000222FFF729FA20464FF480610022FFF771
:1010A00023FA20464FF400610522FFF71DFA0120C4
:1010B000FFF7F2F8CBF8006000F0B6F8632827D805
:1010C000286929880022FFF70FFA686969880022D9
:1010D000FFF70AFAA869A9880022FFF705FAE8696C
:1010E000E9880022FFF700FA286A29890022FFF721
:1010F000FBF9686A69890022FFF7F6F9A86AA989ED
:101100000022FFF7F1F9E86AE98900223FE000BF19
:1011100000F08AF848F21F51C5F2EB11A0FB010163
:101120004809A0FB0912D10801EB8101A0EB4100A5
:101130001AF800702869298807F00102FFF7D4F92E
:1011400068696988C7F34002FFF7CEF9A869A988E2
:10115000C7F38002FFF7C8F9E869E988C7F3C0025E
:10116000FFF7C2F9286A2989C7F30012FFF7BCF913
:10117000686A6989C7F34012FFF7B6F9A86AA989B6
:10118000C7F38012FFF7B0F9E86AE989FA09FFF7B7
:10119000ABF920464FF480710122FFF7A5F92046F4
:1011A0004FF400710022FFF79FF920464FF4806151
:1011B0000322FFF799F920464FF400610322FFF75D
:1011C00093F90120FFF768F8CBF8006000F02CF8E5
:1011D000C0087C283FF60AAE286929880022FFF75C
:1011E00083F9686969880022FFF77EF9A869A988F0
:1011F0000022FFF779F9E869E9880022FFF774F91E
:10120000286A29890022FFF76FF9686A6989002234
:10121000FFF76AF9A86AA9890022FFF765F9E86A69
:10122000E989002221E60000B0B540F60004C4F2CE
:101230000104204610210022FFF756F92046202104
:101240000122FFF751F9204640210122FFF74CF916
:1012500020468021FFF742F940F2A005C2F20005C6
:1012600060B900BF20468021FFF738F90028F9D087
:10127000286800EB800040000130286020464FF4D1
:101280008071FFF72BF968B920464FF48071FFF7A2
:1012900025F90028F8D02868042100EB800001EB34
:1012A0004000286020464FF40071FFF717F968B935
:1012B00020464FF40071FFF711F90028F8D0286894
:1012C000072100EB800001EB4000286020464FF42E
:1012D0008061FFF703F940B920464FF48061FFF7C2
:1012E000FDF80028F8D000202860204610210122B7
:1012F000FFF7FAF8204620210022FFF7F5F82046F4
:1013000040210122FFF7F0F820468021FFF7E6F8A0
:1013100068B900BF20468021FFF7E0F80028F9D027
:101320002868022100EB800001EB40002860204685
:101330004FF48071FFF7D2F870B900BF20464FF428
:101340008071FFF7CBF80028F8D02868052100EB62
:10135000800001EB4000286020464FF40071FFF749
:10136000BDF868B920464FF40071FFF7B7F80028C0
:10137000F8D02868082100EB800001EB40002860CD
:1013800020464FF48061FFF7A9F858B920464FF482
:101390008061FFF7A3F80028F8D0286800EB8000F0
:1013A00040002860204610210122FFF79DF82046CA
:1013B00020210122FFF798F8204640210022FFF764
:1013C00093F820468021FFF789F860B920468021F4
:1013D000FFF784F80028F9D02868032100EB80008B
:1013E00001EB4000286020464FF48071FFF776F84B
:1013F00070B900BF20464FF48071FFF76FF80028E6
:10140000F8D02868062100EB800001EB400028603E
:1014100020464FF40071FFF761F868B920464FF499
:101420000071FFF75BF80028F8D02868092100EB6D
:10143000800001EB4000286020464FF48061FFF7F8
:101440004DF808B128680FE020464FF48061FFF79F
:1014500045F80028F8D028684CF6CD41CCF6CC41B0
:10146000A0FB0101C808286042F21071884238BF11
:10147000B0BD4CF6CD41CCF6CC41A0FB0101C80873
:101480002860B0BD01020000000000000000010261
:101490000304060708093F065B4F666D7D077F6FF3
:1014A0000002030405060708090A0B0C0D0E0F10B5
:1014B00010000000D81400080000002040000000C8
:1014C00028010008181500084000002068060000E8
:1014D00044010008000000000100020004000800B0
:1014E0001000200040008000000C0140000C014072
:1014F000000C0140000C0140000C0140000C0140B8
:10150000000C0140000C0140010000001000000030
:081510000024F40000000000BB
:04000005080000ED02
:00000001FF
