:020000040800F2
:10000000A806002089010008F10B0008E90B000890
:10001000ED0B000891020008050C0008000000002C
:10002000000000000000000000000000F90B0008C4
:100030009502000800000000F50B0008FD0B000809
:10004000A3010008A3010008A3010008A301000800
:10005000A3010008A3010008A3010008A3010008F0
:10006000A3010008A3010008A3010008A3010008E0
:10007000A3010008A3010008A3010008A3010008D0
:10008000A3010008A3010008A3010008A3010008C0
:10009000A3010008A3010008A3010008A3010008B0
:1000A000A3010008A3010008A3010008A3010008A0
:1000B000A3010008A3010008A3010008A301000890
:1000C000A3010008A3010008A3010008A301000880
:1000D000A3010008A3010008A3010008A301000870
:1000E000A3010008A3010008A301000800F002F822
:1000F00000F03AF80AA090E8000C82448344AAF188
:100100000107DA4501D100F02FF8AFF2090EBAE885
:100110000F0013F0010F18BFFB1A43F0010318473B
:10012000C8130000E8130000103A24BF78C878C153
:10013000FAD8520724BF30C830C144BF04680C60ED
:10014000704700000023002400250026103A28BF35
:1001500078C1FBD8520728BF30C148BF0B60704739
:100160001FB51FBD10B510BD00F058F81146FFF7C0
:10017000F7FF00F049FD00F076F803B4FFF7F2FF57
:1001800003BC00F07DF8000009488047094800479B
:10019000FEE7FEE7FEE7FEE7FEE7FEE7FEE7FEE737
:1001A000FEE7FEE704480549054A064B7047000094
:1001B000010C0008ED000008A8000020A80600209F
:1001C000A8020020A80200204FF0000200B513464C
:1001D00094469646203922BFA0E80C50A0E80C5067
:1001E000B1F12001BFF4F7AF090728BFA0E80C5018
:1001F00048BF0CC05DF804EB890028BF40F8042B11
:1002000008BF704748BF20F8022B11F0804F18BF7D
:1002100000F8012B7047704770477047754600F033
:100220002BF8AE4605006946534620F00700854688
:1002300018B020B5FFF7B6FFBDE820404FF000062C
:100240004FF000074FF000084FF0000BAC46ACE851
:10025000C009ACE8C009ACE8C009ACE8C00921F0AD
:1002600007018D46704710B50446AFF30080204665
:10027000BDE81040FFF781BF0048704740000020F4
:1002800001491820ABBEFEE72600020070470000BF
:10029000FEE7000070470000B0B5044600F02AF900
:1002A000054640F23000C2F200000078611C18BF21
:1002B000044400BF00F01EF9401BA042FAD3B0BDB9
:1002C0002DE9F04F82B00E68002E00F0038140F25D
:1002D0000C4C41F200424FF6FF7EC4F2010CC4F216
:1002E0000102042700240123C1F2100E4FF0000A7E
:1002F0004FF00009904208BF0327009745E000BF78
:10030000012704F00C030F229A402BEA020207FA9D
:1003100003F34FEA9A051A4346F82520D1F804B0B2
:1003200040F20045C4F201055FEACB322A6854BFAF
:1003300022EA080242EA08022A606A685FEA8B330E
:1003400054BF22EA080242EA08026A605FEACB234D
:10035000AA6854BF22EA080242EA08025FEA8B2335
:10036000AA60DCF800204FF0010354BF22EA080223
:1003700042EA0802CCF800200E680AF1010A36FAB7
:100380000AF204F1040400F0A58003FA0AF816EA60
:10039000080FF1D04E68764512DC122E56D8DFE8F1
:1003A00006F0350B45495555555555555555555537
:1003B0005555554D510000BFD1F80C9046E000BF97
:1003C0004FF6FF72C1F2210296420FDC0022C1F209
:1003D000110296421AD00022C1F21202964215D0A2
:1003E0000022C1F22102964210D02FE00022C1F279
:1003F000220296420AD00022C1F23102964205D072
:100400000022C1F23202964220D100BF8A684AB16E
:10041000012A14BFC0F81480C0F810804FF00809FA
:1004200014E000BF4FF0040910E000BFCA6802F1F9
:1004300008090BE04FF0000908E000BFCA6802F1AC
:10044000040903E0CA6802F10C0900BF224606460F
:10045000BAF1080F24BF203A043637680F259540BB
:1004600027EA050509FA02F22A433260CA79D20660
:100470007FF582AF41F21803C4F202031A6842F01A
:1004800001021A601A6802F001020192019A40F218
:100490000042C4F20102A2F57E762AF0030256F869
:1004A00002B040F60002C4F20102904210D040F6C1
:1004B0000042C4F2010290423FF422AF41F2000236
:1004C000C4F20102009F904208BF022719E700BF53
:1004D000002716E702B0BDE8F08F000080680840F2
:1004E00018BF012070470000002A08BF09040161FD
:1004F0007047000040F2A400C2F20000006870479C
:1005000040F2300040F2A401C2F20000C2F2000149
:1005100000780A68104408607047000080B542F215
:100520000000C4F20200016841F0100101600320E4
:1005300000F07AF80F2000F005F800F027F800200E
:1005400080BD000070B540F23006C2F2000640F2F5
:1005500038013278C2F200014FF47A730968B3FBB4
:10056000F2F20446B1FBF2F1084600F027FB0F2C33
:100570004FF0010508D838B94FF0FF30214600226E
:10058000002500F025F87460284670BD82B041F265
:100590001800C4F202000168022241F0010101606A
:1005A000016801F0010101910199416841F0805118
:1005B0004160406800F08050009000980420C4F230
:1005C0000100016862F31A61016002B07047000027
:1005D00010B54EF60C5CCEF2000CDCF80030C3F324
:1005E000022E8EF00704042C28BF0424BEF103035E
:1005F0004FF0FF3E0EFA04F438BF0023A1439940A8
:100600000EFA03F39A43114300F00F0200F1604326
:100610000901043A03F564436244002848BF02F12B
:100620000C03197010BD00004EF60C51CEF2000103
:100630000A684FF6FF031A4060F30A2242F0806016
:1006400040F0FD70086070472DE9F04381B000284C
:1006500000F0858042F20008C4F202080446D8F88F
:1006600000000D4600F0070088420CD2D8F80000C8
:1006700020F007002843C8F80000D8F8000000F078
:100680000700A8426BD1206841F204098107C4F237
:10069000020917D5410705D5D9F8001041F4E061EA
:1006A000C9F80010010705D5D9F8001041F46051D0
:1006B000C9F80010D9F80010A26821F0F001114328
:1006C000C9F80010C00741D1D8F8000000F00700B9
:1006D000A8420CD9D8F8000020F007002843C8F839
:1006E0000000D8F8000000F00700A84237D12068C9
:1006F000410707D5D9F80010E26821F4E061114301
:10070000C9F80010000708D5D9F80000216920F4C5
:10071000605040EAC100C9F80000D9F8002002F09A
:100720000C00082841F20020C0F27A0050D141F2BA
:10073000D543C2F38341C0F60003595CD2033BD4D6
:1007400040F60010C0F23D00484341E060680228D6
:100750000AD001282AD159F8041C890308D40120A1
:1007600001B0BDE8F08300BF59F8041C8901F6D53B
:10077000D9F8001021F003010843C9F80000FFF781
:10078000B9FE064641F28837D9F80000616800F0EA
:100790000C00B0EB810F97D0FFF7ACFE801BB84286
:1007A000F2D9032001B0BDE8F08300BF59F8041C62
:1007B0008907D4D5DCE700BFD9F8002041F2B8435F
:1007C000C2F34042C0F600039A5C4843B0FBF2F02B
:1007D000D9F8001041F2BA42C1F30311C0F6000289
:1007E000515C40F2380220FA01F140F23400C2F2CA
:1007F00000000068C2F200021160FFF7A3FE0020B3
:1008000001B0BDE8F08300002DE9F04182B000287E
:1008100068D00446007841F20006C007C4F2020620
:1008200025D0706800F00C0004281BD0706800F020
:100830000C00082802D17068C00313D46068002837
:1008400000F06881B0F5A02F00F07C81B0F5803F0A
:1008500000F07C81306820F480303060306820F413
:10086000802076E13068800301D56068D0B32078BD
:10087000800718D5706810F00C0F07D0706800F072
:100880000C0008286ED17068C0036BD430688007F4
:1008900002D52069012825D13068616920F0F8006F
:1008A00040EAC1003060207800071FD4207840075C
:1008B00032D4E56995B1706800F00C00082840F06A
:1008C0008F80012D0ED07068216A00F480328A4238
:1008D00008D1616A00F47010884203D1002002B090
:1008E000BDE8F081012002B0BDE8F081A0690028D8
:1008F00062D00020C4F242200121C0F88014FFF72A
:10090000F9FD0546706A800700F18C80FFF7F2FD63
:10091000401B0228F6D92AE1F06910F0805808D16E
:10092000F06940F08050F061F06900F08050009074
:10093000009847F20007C4F200073868C00529D4C0
:10094000386840F480703860FFF7D4FD054600BF7A
:100950003868C0051ED4FFF7CDFD401B6428F7D9C9
:1009600005E100BF2069002840F20000C4F24220E7
:1009700000F0828001210160FFF7BCFD054600BF49
:10098000306880073FF588AFFFF7B4FD401B0228B1
:10099000F6D9ECE0E068002800F08080052800F03F
:1009A0009780012800F09880306A20F001003062C2
:1009B000306A20F0040092E00020C4F242200021BE
:1009C000C0F88014FFF796FD054600BF706A8007E7
:1009D0007FF56CAFFFF78EFD401B0228F6D9C6E00D
:1009E0000027C4F2422700203866FFF783FD022D5E
:1009F00005460BD13068800140F1BE80FFF77AFDDB
:100A0000401B02284FF00300F4D968E730688001EA
:100A10007FF564AFFFF76EFD401B02284FF0030027
:100A2000F4D95CE740F23800C2F20000006844F6F6
:100A3000D351C1F26201A0FB0101480A019000BF3D
:100A400000BF0198411E002801913FF42FAF00BF65
:100A50000198411E002801913FF428AF00BF019882
:100A6000411E002801913FF421AF00BF0198411EB3
:100A700000280191E4D119E700210160FFF73AFD58
:100A8000054600BF306880077FF50DAFFFF732FDE8
:100A9000401B02284FF00300F4D920E7306A20F011
:100AA00001003062306A20F004003062FFF722FD5E
:100AB000054641F2883700BF306A800720D5FFF72E
:100AC00019FD401BB8424FF00300F5D907E700BFFE
:100AD000306A40F004003062306A40F00100306259
:100AE000FFF708FD054641F2883700BF306A8007EE
:100AF00006D4FFF7FFFC401BB842F7D937E000BF30
:100B0000B8F1000F7FF4D5AEF06920F08050F061AD
:100B1000CFE600BF306820F480303060306820F4C9
:100B200080203060FFF7E6FC054600BF3068800398
:100B30007FF59DAEFFF7DEFC401B64284FF00300FD
:100B4000F4D9CCE6306840F480203060306840F45E
:100B500080303060FFF7CEFC054600BF3068800370
:100B60003FF585AEFFF7C6FC401B6428F6D903208D
:100B700002B0BDE8F08100BF206AB0F5803F05D12A
:100B80007168A26821F40031114371607168626A72
:100B900021F4741111430843706001203866FFF797
:100BA000A9FC0446306880013FF598AEFFF7A2FC2F
:100BB000001B02284FF00300F4D990E6411E0020EC
:100BC000B0EB116F1CBF012070474EF21002CEF245
:100BD000000251604EF62351CEF20001F0230B705B
:100BE0000721906011607047FEE70000FEE70000FB
:100BF000FEE700007047000070470000FFF780BC70
:100C000070470000FEE7000090B0FFF787FC06ACDD
:100C1000201D2421FFF7D8FA0220069001200A9017
:100C200010200B90002520460D95FFF7EDFD28B113
:100C3000EFF3108072B600BFFEE700BF0F20CDE9D2
:100C4000010501A80021CDE903550595FFF7FCFC3E
:100C500020B1EFF3108072B6FEE700BF4FF0000A3C
:100C600041F21800CDE908AAC4F20200016840F67A
:100C7000004941F0100101600168C4F2010901F06E
:100C80001001019101990168A9F5806541F02001E9
:100C90000160016840F60C4801F0200101910199C2
:100CA0000168002241F0040101600168C4F20108FA
:100CB00001F004010191019901684FF07F0B41F0AF
:100CC0000801016000687F2100F008000190019890
:100CD0002846FFF709FC484640F6FF710022FFF75F
:100CE00003FC4FF4604006AE0690032708F57D70C4
:100CF00031460797FFF7E4FA41F20040C4F20100E1
:100D00003146CDE90677FFF7DBFACDF818B00124BC
:100D10004FF0020B28463146CDE9074ACDF824B002
:100D2000FFF7CEFA4FF4F060CDE9060A28463146C7
:100D30000894FFF7C5FA40F6FF7006A981E8110C88
:100D400048463146FFF7BCFA4FF47040CDE906073C
:100D500048463146FFF7B4FA4FF41840CDE906078C
:100D600028463146FFF7ACFA0420C4F201000168BE
:100D7000012241F0E06141F40041016048464FF436
:100D80008071FFF7B1FB48464FF400710122FFF775
:100D9000ABFB48464FF480610122FFF7A5FB4846B4
:100DA0004FF400610122FFF79FFB284640210122FA
:100DB000FFF79AFB284610210122FFF795FB2846F2
:100DC00020210122FFF790FB40F200044CF6CD4BAE
:100DD000C2F200044FF6FF7ACCF6CC4B63E000BFC2
:100DE00000F03CFA44F6D351C1F26201A0FB0101CC
:100DF0008809A0FB0B12D10801EB8101A0EB410097
:100E000041F2CA41C0F600010D5C2069218805F05D
:100E10000102FFF769FB60696188C5F34002FFF7D3
:100E200063FBA069A188C5F38002FFF75DFBE06961
:100E3000E188C5F3C002FFF757FB206A2189C5F39B
:100E40000012FFF751FB606A6189C5F34012FFF79A
:100E50004BFBA06AA189C5F38012FFF745FBE06A4E
:100E6000E189EA09FFF740FB0226002202254846F5
:100E70004FF48071FFF738FB48464FF4007132465B
:100E8000FFF732FB48464FF480610222FFF72CFB4C
:100E900048464FF400612A46FFF726FB0120FFF782
:100EA000FBF9C8F800A000F0D9F9D8B300F0D6F9E2
:100EB000A0FB0B12D10801EB8101A0EB410041F234
:100EC000CA41C0F600010D5C2069218805F00102CD
:100ED000FFF70AFB60696188C5F34002FFF704FB76
:100EE000A069A188C5F38002FFF7FEFAE069E188F6
:100EF000C5F3C002FFF7F8FA206A2189C5F3001292
:100F0000FFF7F2FA606A6189C5F34012FFF7ECFA65
:100F1000A06AA189C5F38012FFF7E6FAE06AE189C9
:100F2000EA0925E0206921880022FFF7DDFA6069DF
:100F300061880022FFF7D8FAA069A1880022FFF794
:100F4000D3FAE069E1880022FFF7CEFA206A21890E
:100F50000022FFF7C9FA606A61890022FFF7C4FA2C
:100F6000A06AA1890022FFF7BFFAE06AE1890022A6
:100F7000FFF7BAFA48464FF480710122FFF7B4FA3E
:100F800048464FF400710122FFF7AEFA48464FF48D
:100F900080610222FFF7A8FA48464FF40061002260
:100FA000FFF7A2FA0120FFF777F9C8F800A000F0D8
:100FB00055F909282CD82069218800220025FFF73F
:100FC00093FA606961880022FFF78EFAA069A18810
:100FD0000022FFF789FAE069E1880022FFF784FA2E
:100FE000206A21890022FFF77FFA606A6189002266
:100FF000FFF77AFAA06AA1890022FFF775FAE06A82
:10100000E1890022FFF770FA0226012743E000BFC2
:1010100000F024F9A0FB0B01C808A0FB0B12D108BB
:1010200001EB8101A0EB410041F2CA41C0F6000191
:101030000D5C2069218805F00102FFF755FA60690F
:101040006188C5F34002FFF74FFAA069A188C5F394
:101050008002FFF749FAE069E188C5F3C002FFF7B3
:1010600043FA206A2189C5F30012FFF73DFA606A4E
:101070006189C5F34012FFF737FAA06AA189C5F369
:101080008012FFF731FAE06AE189EA09FFF72CFAEA
:1010900005250026022748464FF480710122FFF7FC
:1010A00023FA48464FF400713A46FFF71DFA4846C6
:1010B0004FF480613246FFF717FA48464FF400615B
:1010C0002A46FFF711FA0120FFF7E6F8C8F800A05A
:1010D00000F0C4F863282BD820692188002200255D
:1010E000FFF702FA606961880022FFF7FDF9A06945
:1010F000A1880022FFF7F8F9E069E1880022FFF7F4
:10110000F3F9206A21890022FFF7EEF9606A61890C
:101110000022FFF7E9F9A06AA1890022FFF7E4F9AC
:10112000E06AE1890022FFF7DFF90226012746E0A5
:1011300000F094F848F21F51C5F2EB11A0FB010139
:101140004809A0FB0B12D10801EB8101A0EB410083
:1011500041F2CA41C0F600010D5C2069218805F00A
:101160000102FFF7C1F960696188C5F34002FFF72A
:10117000BBF9A069A188C5F38002FFF7B5F9E06962
:10118000E188C5F3C002FFF7AFF9206A2189C5F3F2
:101190000012FFF7A9F9606A6189C5F34012FFF7F1
:1011A000A3F9A06AA189C5F38012FFF79DF9E06A4F
:1011B000E189EA09FFF798F9032600270325484645
:1011C0004FF480710122FFF78FF948464FF4007108
:1011D0003A46FFF789F948464FF480613246FFF7F7
:1011E00083F948464FF400612A46FFF77DF9012054
:1011F000FFF752F8C8F800A000F030F8C0087C28CB
:101200003FF6EEAD2069218800220025FFF76CF93A
:10121000606961880022FFF767F9A069A188002250
:10122000FFF762F9E069E1880022FFF75DF9206AC3
:1012300021890022FFF758F9606A61890022FFF7CF
:1012400053F9A06AA1890022FFF74EF9E06AE1890B
:101250000022FFF749F90122012608E6B0B540F661
:101260000004C4F20104204610210022FFF73CF9DB
:10127000204620210122FFF737F920464021012294
:10128000FFF732F920468021FFF728F940F2A00548
:10129000C2F2000560B900BF20468021FFF71EF9A9
:1012A0000028F9D0286800EB800040000130286059
:1012B00020464FF48071FFF711F968B920464FF4CA
:1012C0008071FFF70BF90028F8D02868042100EBA3
:1012D000800001EB4000286020464FF40071FFF7CA
:1012E000FDF868B920464FF40071FFF7F7F80028C1
:1012F000F8D02868072100EB800001EB400028604F
:1013000020464FF48061FFF7E9F840B920464FF4DA
:101310008061FFF7E3F80028F8D00020286020461D
:1013200010210122FFF7E0F8204620210022FFF7DC
:10133000DBF8204640210122FFF7D6F82046802125
:10134000FFF7CCF868B900BF20468021FFF7C6F848
:101350000028F9D02868022100EB800001EB400052
:10136000286020464FF48071FFF7B8F870B900BFCD
:1013700020464FF48071FFF7B1F80028F8D02868B4
:10138000052100EB800001EB4000286020464FF46F
:101390000071FFF7A3F868B920464FF40071FFF71A
:1013A0009DF80028F8D02868082100EB800001EBA8
:1013B0004000286020464FF48061FFF78FF858B94D
:1013C00020464FF48061FFF789F80028F8D028689C
:1013D00000EB800040002860204610210122FFF72A
:1013E00083F8204620210122FFF77EF82046402185
:1013F0000022FFF779F820468021FFF76FF860B9E7
:1014000020468021FFF76AF80028F9D028680321D8
:1014100000EB800001EB4000286020464FF4807113
:10142000FFF75CF870B900BF20464FF48071FFF7FA
:1014300055F80028F8D02868062100EB800001EB61
:101440004000286020464FF40071FFF747F868B964
:1014500020464FF40071FFF741F80028F8D02868C3
:10146000092100EB800001EB4000286020464FF48A
:101470008061FFF733F808B128680FE020464FF489
:101480008061FFF72BF80028F8D028684CF6CD4192
:10149000CCF6CC41A0FB0101C808286042F21071D3
:1014A000884238BFB0BD4CF6CD41CCF6CC41A0FB54
:1014B0000101C8082860B0BD010200000000000062
:1014C000000001020304060708093F065B4F666D32
:1014D0007D077F6F0002030405060708090A0B0C4D
:1014E0000D0E0F101000000008150008000000206D
:1014F00040000000280100084815000840000020B6
:101500006806000044010008010002000400080011
:101510001000200040008000000C0140000C014041
:10152000000C0140000C0140000C0140000C014087
:10153000000C0140000C0140010000001000000000
:081540000024F400000000008B
:04000005080000ED02
:00000001FF
