:020000040800F2
:10000000E8070020E90100081F200008C51D0008BE
:100010001D200008DF0600088126000800000000FF
:10002000000000000000000000000000D7200008D1
:10003000E106000800000000D5200008D9200008D3
:10004000030200080302000803020008030200087C
:10005000030200080302000803020008030200086C
:100060000302000803020008E30600080302000878
:10007000030200080302000803020008030200084C
:10008000030200080302000803020008030200083C
:10009000030200080302000803020008E906000842
:1000A000030200080302000803020008030200081C
:1000B00003020008030200083D21000803020008B3
:1000C00003020008030200080302000803020008FC
:1000D0000302000875260008030200080302000856
:1000E00003020008030200080302000803020008DC
:1000F00003020008030200080302000803020008CC
:100100000302000803020008492100080302000856
:1001100003020008030200080302000803020008AB
:10012000030200080302000803020008030200089B
:1001300000F002F800F048F80AA090E8000C8244B1
:100140008344AAF10107DA4501D100F03DF8AFF28E
:10015000090EBAE80F0013F0010F18BFFB1A43F0A5
:10016000010318474C3300006C330000103A24BFE1
:1001700078C878C1FAD8520724BF30C830C144BF0C
:1001800004680C607047000000230024002500264E
:10019000103A28BF78C1FBD8520728BF30C148BFEA
:1001A0000B607047642900F07F80002070471FB506
:1001B00000F032FA04000020002102F0D7FA401CBF
:1001C00060601FBD10B510BD00F001FA1146FFF7C9
:1001D000EEFF02F075FA00F031FA03B4FFF7F2FF18
:1001E00003BC00F075FA0000094880470948004741
:1001F000FEE7FEE7FEE7FEE7FEE7FEE7FEE7FEE7D7
:10020000FEE7FEE704480549054A064B7047000033
:100210003921000831010008E8010020E80700202A
:10022000E8030020E80300200FB4044910B503AA36
:10023000029800F00BF910BC5DF814FB40000020A0
:100240002DE9F0410E460446002020622046E16878
:10025000884730B3252805D0D4E901219047206A8A
:10026000401CF2E7E168204600278847050018D0C7
:10027000A5F14100192802D820354FF40067324615
:10028000294620462760FFF78DFF40B1012804D0A2
:10029000F61D26F007060836D8E7361DD6E72846AD
:1002A000DAE7206ABDE8F0812DE9F0410646002436
:1002B00010687529314616A510D0AFF300800028CC
:1002C00002DA404213A507E031688A0701D512A57A
:1002D00002E0490704D511A5012401E0AFF3008035
:1002E00000210A2206F1240709E0B0FBF2FCB0FB72
:1002F000F2F302FB1C00303078541846491C0028E9
:10030000F3D123462A463046BDE8F04100F044B818
:10031000000000002D0000002B0000002000000065
:1003200070B5064600F034F80468054630460A22E7
:10033000002100F09DF82C6070BD4FF0000200B568
:10034000134694469646203922BFA0E80C50A0E8F8
:100350000C50B1F12001BFF4F7AF090728BFA0E8A6
:100360000C5048BF0CC05DF804EB890028BF40F872
:10037000042B08BF704748BF20F8022B11F0804FB4
:1003800018BF00F8012B7047704770477047000096
:1003900000487047880100202DE9F0470D46994636
:1003A0009246044600F124080168880604D5E069F5
:1003B00021F01001216000E00120A84201DD471B6F
:1003C00000E00027A1697A1902EB0900081AA06170
:1003D0002078C00602D42046AFF30080002608E053
:1003E000D4E901211AF806009047206A401C761CC7
:1003F00020624E45F4DB2078C0060AD52046AFF3D4
:10040000008006E0D4E9012130209047206A401C9A
:100410002062381EA7F10107F4DC07E0D4E90121CE
:1004200018F805009047206A401C2062281EA5F19C
:100430000105F3DC2046AFF300802078000602D5EA
:100440000220BDE8F0870120FBE70000074B70B5F4
:100450000D467B4400F055F80446284600F0B3F8FA
:1004600010B14FF0FF3070BD204670BD4F2200002C
:100470002DE9F04791460F4680460446002614F8C1
:10048000015B2DB100F030F80068405DC007F6D187
:100490002B2D02D02D2D18D0641E4A4639462046F9
:1004A00000F042F827B13968A14201D1C7F80080B5
:1004B0004FF0020471050BD54042002803DDFFF721
:1004C00067FF0460A007BDE8F08746F48066E4E7B4
:1004D0000028F8DAFFF75CFF04606FF00040F2E7F5
:1004E000004870478801002010B500F095F8001D05
:1004F00010BD00BF7922000001694A1C0261087822
:10050000704700B58FB0CDE9013100210591054953
:100510007944CDE9031011466846FFF791FE0FB00C
:1005200000BD0000E5FFFFFF2DE9F05F82461546A4
:100530008B4600270AF10104B9460078302801D023
:100540009DB113E014F8010B0127782803D0582837
:1005500001D045B10AE00DB1102D07D1002714F8E4
:10056000010B102502E0082500E00A250026B04610
:100570000EE005FB080005FB06F101271FFA80F8D5
:1005800001EB1046B6F5803F00D3B94614F8010BD5
:10059000294600F045F80028EBDABBF1000F05D042
:1005A0000FB1641E00E05446CBF80040B9F1000FD3
:1005B00006D0FFF7EDFE02210160C81EBDE8F09FE6
:1005C00048EA0640FAE7007B00F080007047754675
:1005D000FFF786FFAE4605006946534620F0070048
:1005E000854618B020B5FFF70DFEBDE820404FF05E
:1005F00000064FF000074FF000084FF0000B21F00D
:100600000701AC46ACE8C009ACE8C009ACE8C009D9
:10061000ACE8C0098D46704700487047A80100202B
:100620003A2800D2303820F02002412A01D3A2F12A
:100630003700884201D34FF0FF30704710B50446B1
:10064000AFF300802046BDE81040FFF7C6BD0000B4
:100650004FF0013C50F8042B51F8043B9A4221D151
:10066000A2EB0C03934313EACC1317D150F8042BDD
:1006700051F8043B9A4215D1A2EB0C03934313EAC1
:10068000CC130BD150F8042B51F8043B9A4209D1FA
:10069000A2EB0C03934313EACC13DBD04FF0000022
:1006A000704700BFD01A01BAB1FA81F101F0180108
:1006B00022FA01F0CB40C1F12001DBB2C0B2C01A76
:1006C0002CFA01F3D11A914311EAC311E6D1704714
:1006D00001491820ABBEFEE7260002007047FEE786
:1006E0007047102000F010B9402000F00DB910B58F
:1006F00090F821100022022905D00421816380F89E
:100700002020012010BD01680B6823F00E030B6050
:1007100001680B6823F001030B6090F84030C46B54
:10072000012101FA03F3636080F8211080F8202092
:10073000104610BD2DE9F05F90F821100024022929
:1007400003D004218163012485E001680A6822F056
:100750000E020A6001680A6822F001020A603F4E38
:100760003E4FB215DFF8F4C0DFF8F090DFF8ECA0F0
:10077000DFF8E8B0DFF8E4E00168783F1301150224
:10078000ACF1640CA9F15009AAF13C0AABF1280BB9
:10079000AEF1140E4FF48018B14227D9B9420ED0F1
:1007A000614512D049451DD0514518D0594518D042
:1007B000714501D1424615E0294EB14201D10122D5
:1007C00010E0274E1436B14201D110220AE0244E27
:1007D0002836B14206D0224A3C32914201D11A4613
:1007E00000E02A461E49091F0A602BE0B94213D0D7
:1007F000614517D0494522D051451DD059451DD0DE
:10080000714501D142461AE0B14202D14FF08072E7
:1008100015E0134EB14201D1012210E0104E143602
:10082000B14201D110220AE00D4E2836B14206D065
:100830000B4A3C32914201D11A4600E02A46074950
:1008400080394A60012180F82110002180F82010B1
:10085000416B01B188472046BDE8F09F800002400F
:10086000080402402DE9F0470025254A4FF4FA66B6
:10087000244CC6F10008402801D0102837D110219F
:100880009146104600F048F940EA470740214846A3
:1008900000F042F940EA470010F0030006D00128BA
:1008A00008D002280AD0032811D10AE0A178012932
:1008B0001FD009E0A17803291BD005E0A178C1B1C0
:1008C00002E0A178022914D02189491E2181A0705B
:1008D0006089401C6081B4F90800B0420CDB2581BE
:1008E000E06A401C02E02581E06A401EE062BDE84B
:1008F000F0872189491CE9E74045F4DDF7E700006E
:10090000000C014000000020044910B50A680242B2
:1009100002D00860FFF7A6FF10BD000014040140DC
:100920002DE9F84FDFF8C8910024A9F1040B234604
:100930000F2709F1040AABF1040ED1E00125A5400F
:1009400006EA0502AA4276D1DFF8A8C14E68A6EBF6
:100950000C0866452BD00DDC032E34D005DC36B3F5
:10096000012E19D0022E2FD11BE0112E16D0122EDF
:100970002AD119E0B8F5881F19D006DCB8F5803FF8
:1009800015D0B8F5801F1FD111E0B8F5001F0ED0AB
:10099000B8F5041F18D10AE0CB6815E0CB681B1D21
:1009A00012E0CB6808330FE0CB680C330CE08B68A7
:1009B0002BB1012B4FF0080303D0456104E0042361
:1009C00002E0056100E00023FF2A01D8064601E0AD
:1009D00000F104064FEA840501D9A5F12005D6F8F7
:1009E000008007FA05FC28EA0C0803FA05F548EA36
:1009F0000508C6F800804D68ED0070D53E4DAE6923
:100A000046F00106AE61AD6924F0030605F001056C
:100A100000953A4D06EB050CDCF80850A607360F9A
:100A200007FA06F825EA0805DFF8D480404503D127
:100A30004FF0000825E052E0DFF8C880404502D1C1
:100A40004FF001081DE0DFF8C080404502D14FF0B3
:100A5000020816E0DFF8B480404502D14FF00308E9
:100A60000FE0DFF8AC80404502D14FF0040808E009
:100A7000DFF8A080404502D14FF0050801E04FF0BB
:100A8000060808FA06F848EA0508CCF808804D6818
:100A9000D9F80060ED024D4601D5164300E09643BB
:100AA0002E604D68DAF80060AD02554601D5164358
:100AB00000E096432E604D68DBF80060AD035D46B4
:100AC00001D5164300E096432E604D68DEF80060C5
:100AD000ED03754601D5164300E096432E60641C75
:100AE0000A681646E2407FF429AFBDE8F88F00009F
:100AF00008040140000011100010024000000140F5
:100B000000080140000C01400010014000140140A9
:100B100000180140001C01408068084000D00120FE
:100B200070470AB1016170470904FBE7014880681A
:100B30007047000044000020024881680278114498
:100B40008160704744000020074810B5016841F0FB
:100B500010010160032000F075F80F2000F006F886
:100B600000F024F8002010BD0020024070B50D4DAB
:100B700004464FF47A712878B1FBF0F00A4909680D
:100B8000B1FBF0F000F0DCFA48B9102C07D20022DB
:100B90002146501E00F036F800206C6070BD012028
:100BA00070BD000044000020500000200C4808B533
:100BB000816941F001018161816901F001010091C8
:100BC000C16941F08051C161C06900F0805000905E
:100BD0000448416821F0E06141F00071416008BDC6
:100BE0000010024000000140002809DB00F01F0255
:100BF000012191404009800000F1E020C0F800117F
:100C000070470000F0B40E4B1B680C46C3F3022380
:100C1000C3F10705042D00D90425191D072901D2A8
:100C2000002300E0DB1E012606FA05F1491E2140E3
:100C300099409E40761E16403143F0BC01F021BD24
:100C40000CED00E0064900F0070208684FF6FF03CC
:100C5000184040EA0220034A104308607047000031
:100C60000CED00E00000FA052DE9F0470F46050005
:100C700061D0434E306800F00700B84209D23068B6
:100C800020F0070038433060306800F00700B842B9
:100C900051D128683B4C810712D5400703D56068C5
:100CA00040F4E06060602878000703D5606840F495
:100CB000605060606068A96820F0F00008436060E0
:100CC0002878C00728D06868012810D02168022839
:100CD00010D0890700292EDA616821F00301014351
:100CE0006160FFF723FF804641F288390DE02168FB
:100CF0008903EFE78901EDE7FFF718FFA0EB080193
:100D0000494502D90320BDE8F0876068696800F0B2
:100D10000C00B0EB810FEFD1306800F00700B84253
:100D20000BD9306820F0070038433060306800F09D
:100D30000700B84201D00120E5E72878400705D533
:100D40006068E96820F4E060084360602878000784
:100D500006D56068296920F4605040EAC1006060EF
:100D600000F038F86168084AC1F30311515CC840CB
:100D70000649086006480068FFF7F8FE0020C2E751
:100D8000002002400010024098340008500000206B
:100D9000480000200448054900684968044AC1F336
:100DA0000221515CC84070475000002000100240F2
:100DB000A83400080448054900684968044AC1F39A
:100DC000C221515CC8407047500000200010024012
:100DD000A83400080E4A51680E4801F00C03042B99
:100DE00011D0082B0FD10C48C1F38343C903C05C59
:100DF0000AD55168084AC1F34041921E515C054A28
:100E00005043B0FBF1F0704704494843704700007D
:100E10000010024000127A008834000800093D00EA
:100E20002DE9F84F040070D02078C04DC00749D09C
:100E30006868C0F38100012807D06868C0F38100AA
:100E4000022809D16868C00306D52868800339D50F
:100E500060680028E7D035E06068B0F5803F0BD0CF
:100E600010B1B0F5A02F11D0286820F48030286090
:100E7000286820F4802002E0286840F48030286050
:100E8000606890B1FFF752FE06460AE0286840F419
:100E900080202860F0E700BFFFF748FE801B642831
:100EA00073D828688003F7D50CE0FFF73FFE0646AD
:100EB00005E000BFFFF73AFE801B6428F0D82868E1
:100EC0008003F7D420789A4E80074FF001094FF045
:100ED000000839D5686810F00C0F07D06868C0F3B7
:100EE0008100022809D16868C00306D428688007F9
:100EF00014D52069012808D110E02069B0B1C6F8E6
:100F00000090FFF713FE074605E00AE1FFF70EFE2B
:100F1000C01B0228C4D828688007F7D528686169F3
:100F200020F0F80040EAC10028600DE0C6F800801B
:100F3000FFF7FCFD074604E0FFF7F8FDC01B0228A1
:100F400023D828688007F7D4207800072CD5794863
:100F5000A169D9B1C0F80090FFF7E8FD074604E0A9
:100F6000FFF7E4FDC01B02280FD8686A8007F7D599
:100F700071484FF4FA510068B0FBF1F0009000BFE7
:100F80000098411E0091FAD20EE080E0C0F8008087
:100F9000FFF7CCFD074604E0FFF7C8FDC01B0228A1
:100FA00075D8686A8007F7D42078400760D5E8696B
:100FB0000027C00008D4E86940F08050E861E86983
:100FC000012700F0805000905C480168C90513D4E7
:100FD0000168834641F480710160FFF7A7FD8246F6
:100FE00006E000BFFFF7A2FDA0EB0A0064284ED880
:100FF000DBF80000C005F5D5E06801280AD008B18B
:10100000052813D0286A20F001002862286A20F001
:10101000040002E0286A40F001002862E06841F222
:10102000883B98B1FFF782FD82460BE0286A40F0CA
:1010300004002862EEE700BFFFF778FDA0EB0A018D
:1010400059455AD8286A8007F6D50CE0FFF76EFD9F
:10105000824605E0FFF76AFDA0EB0A0159454CD82E
:10106000286A8007F6D41FB1E86920F08050E86153
:10107000E06988B36968C1F38101022944D002287C
:10108000C6F8608004D0FFF751FD044638E034E034
:10109000FFF74CFD074604E0FFF748FDC01B0228A0
:1010A0002BD828688001F7D4206AB0F5803F05D19D
:1010B0006868A16820F4003008436860D4E908013A
:1010C0000843696821F4741108436860C6F86090A9
:1010D000FFF72CFD044606E025E000BFFFF726FDE4
:1010E000001B022809D828688001F7D51BE000BF43
:1010F000FFF71CFD001B022802D90320BDE8F88F72
:1011000028688001F4D40EE00128F7D06868226ACC
:1011100000F48031914204D1616A00F47010884279
:1011200001D00120EAE70020E8E7000000100240BB
:101130000000424280044242500000200070004003
:1011400010B5401EB0F1807F01D3012010BD4FF0DB
:10115000E02460610F21601701F093FA0020A06184
:1011600007202061002010BD7047704770B590F8CF
:101170003C20012A2CD0012480F83C40022280F837
:101180003D2003685A689D6822F070060A68324361
:101190005A60104B02689A420ED00F4B9A420BD005
:1011A000B2F1804F08D00D4B9A4205D00C4B9A42B9
:1011B00002D00C4B9A4204D1496825F080031943B0
:1011C000916080F83D40002180F83C10084670BDD9
:1011D000022070BD002C014000340140000400409A
:1011E00000080040000C004010B5040003D094F843
:1011F0003D0010B107E0012010BD002084F83C0044
:10120000204600F01FF8022084F83D00211D2068D0
:1012100000F0A0FF012084F8460084F83E0084F826
:101220003F0084F8400084F8410084F8420084F8CC
:10123000430084F8440084F8450084F83D00002011
:1012400010BD000008B5154A0168154891420ED13D
:10125000C16941F00401C161C069002200F00400CD
:10126000009011461E20FFF7CDFC1E2010E00D4A15
:10127000914211D1C16941F00801C161C0690022E8
:1012800000F00800009011463220FFF7BBFC32202E
:10129000BDE80840FFF7A8BC08BD000000080040FA
:1012A00000100240000C004090F83D10012901D0D0
:1012B00001207047022180F83D100168CA6842F0A1
:1012C0000102CA6000680E4988420ED00D4988426A
:1012D0000BD0B0F1804F08D00B49884205D00B49A4
:1012E000884202D00A49884204D1816801F007018E
:1012F000062903D0016841F0010101600020704718
:10130000002C01400034014000040040000800406F
:10131000000C004070B5044690F83C000025012800
:1013200017D0012684F83C60022084F83D00206834
:10133000826822F0770222F47F4282600868502897
:1013400038D00DDC20284FD005DC90B3102811D107
:101350004AE0022070BD302846D040280AD13BE048
:1013600060282FD070280DD0B0F5805F03D0B0F585
:10137000005F12D0012584F83D60002084F83C0015
:10138000284670BDCB68D1E90121206800F035FF07
:101390002068816841F0770109E0CB68D1E901213B
:1013A000206800F02AFF2068816841F48041816054
:1013B000E1E719E0CA684968206800F0F3FF5021AE
:1013C000206806E0CA684968206800F0FCFF6021D8
:1013D000206800F01CFFCEE7CA684968206800F06A
:1013E000E1FF40212068F4E7226801461046F0E75B
:1013F000704770B50446006801694FF00005C943A5
:10140000890715D4C168C943890711D4E91E016150
:1014100001202077206880698007204602D0FFF7EE
:10142000E7FF04E000F0C8F8204600F06DF92577EA
:1014300020680169C943490717D4C168C9434907EE
:1014400013D46FF0040101610220207720688069C5
:1014500010F4407F204602D0FFF7CAFF04E000F0FE
:10146000ABF8204600F050F9257720680169C943A0
:10147000090716D4C168C943090712D46FF00801DF
:101480000161042020772068C0698007204602D0CF
:10149000FFF7AEFF04E000F08FF8204600F034F9CB
:1014A000257720680169C943C90617D4C168C943B3
:1014B000C90613D46FF0100101610820207720685D
:1014C000C06910F4407F204602D0FFF791FF04E08E
:1014D00000F072F8204600F017F9257720680169BE
:1014E000C943C90708D1C168C943C90704D1891EC6
:1014F0000161204600F064F920680169C9430906CA
:1015000009D4C168C943090605D46FF0800101619F
:101510002046FFF729FE20680169C943490609D41E
:10152000C168C943490605D46FF0400101612046F6
:1015300000F0DAF920680169C94389060BD4C16853
:10154000C943890607D46FF0200101612046BDE838
:101550007040FFF70ABE70BD00B585B00021009154
:1015600001910291039100680F4988421AD10F48F6
:10157000816941F0100181618069694600F01000C5
:101580000490802000900220019003900848FFF70B
:10159000C7F90848416821F4406141F0E06141F435
:1015A0004061416005B000BD0004004000100240F1
:1015B0000010014000000140704770B5044690F8EB
:1015C0003C0000260D4601280FD0012084F83C0085
:1015D0006AB1042A1DD0082A2FD00C2A3FD0012638
:1015E000002084F83C00304670BD022070BD2068A9
:1015F00000F016FE2068816941F0080181612068D1
:10160000816921F004018161206881692A6911439F
:1016100011E0206800F034FE2068816941F4006127
:1016200081612068816921F480618161206881691C
:101630002A6941EA02218161D2E7206800F056FE62
:101640002068C16941F00801C1612068C16921F0C9
:101650000401C1612068C1692A69114311E0206851
:1016600000F078FE2068C16941F40061C161206822
:10167000C16921F48061C1612068C1692A6941EAB8
:101680000221C161ACE710B5040003D094F83D001D
:1016900010B107E0012010BD002084F83C00204676
:1016A00000F01EF8022084F83D00211D206800F0A3
:1016B00051FD012084F8460084F83E0084F83F0084
:1016C00084F8400084F8410084F8420084F8430024
:1016D00084F8440084F8450084F83D00002010BDE3
:1016E00008B500680649884208D10648C16941F03A
:1016F0000201C161C06900F00200009008BD000055
:1017000000040040001002407047000010B504467D
:10171000022249B104290ED0082913D094F84100BF
:10172000012816D0012010BD94F83E000128F9D1FF
:1017300084F83E200FE094F83F000128F2D184F8AD
:101740003F2008E094F840000128EBD184F84020C5
:1017500001E084F841200122206800F041FD134996
:101760002068134A884201D0904203D1436C43F46D
:1017700000434364206888420DD090420BD0B0F102
:10178000804F08D00B49884205D00B49884202D0CF
:101790000A49884204D1816801F00701062903D073
:1017A000016841F001010160002010BD002C0140E2
:1017B000003401400004004000080040000C0040DC
:1017C0002DE9FE4F00683E493E4C4FF0000988422B
:1017D0005ED1B4F908804FEA480001F03EFADFF824
:1017E000E8B0DFF8E8A05A46534601F061FA00225B
:1017F000374B01F0ABF8E76A05460E46780001F07A
:101800002CFA5A46534601F053FA2A46334600F062
:10181000F5FF00F0C1FF82464FF4FA61206398FBA8
:10182000F1F03844E0816589A581C5EB0510A4F885
:101830000A90800001F028FA264E0022334601F07B
:1018400085F801F0DBF92082284601F01DFA5A469E
:10185000214B01F02DFA0022334601F077F800F019
:101860009BFF60636078002828D004F11C0007C843
:101870008DE80700D4E905235146A06A00F0D0FBAB
:10188000C1B22171207803B0BDE8F04F00F050BF25
:101890001249884212D1E078401CC0B2E0706178F1
:1018A00000290BD0052809D184F80390B4F90E1053
:1018B00003B00BA0BDE8F04FFEF7B6BCBDE8FE8F4D
:1018C00000080040000000206F1283C0CA210940B8
:1018D00000409F4000002440CA211940000C0040F5
:1018E0005025640D200A00007047704770470000C3
:1018F000F8B5016804460868CA684B6910F00F0F14
:101900004FF0000559D003F0010602F490773743F9
:1019100065D0C10705D0D10503D5616C41F0010147
:101920006164410705D5D90703D0616C41F002011C
:101930006164810705D5D90703D0616C41F00401CA
:101940006164010707D502F02001314303D0616CC7
:1019500041F008016164616C00293AD0800604D529
:10196000900602D5204600F06FFD20684069616C4A
:10197000C0F38010090700D460B3204600F03DFD9D
:1019800020684069400621D52068143050E8001FC7
:1019900021F0400140E80012002AF5D1E06BA8B127
:1019A0006D494163E06BFEF7C5FE002811D0E06B86
:1019B000416B01B0BDE8F040084783060FD59306A0
:1019C0000DD52046BDE8F84000F03EBD2046FFF7AB
:1019D0008DFFF8BD2046FFF789FF6564F8BD266BD3
:1019E0002023012E7CD1C6067AD5D60678D5086884
:1019F0004868009048694FF00206400640D5E16B08
:101A0000086840680004000CE8D0A28D8242E5D945
:101A1000E085886920282DD020680C3050E8001F10
:101A200021F4807140E80012002AF5D120681430BA
:101A300050E8001F21F0010140E80012002AF5D112
:101A40002068143050E8001F21F0400140E80012E7
:101A5000002AF5D184F84230256320680C3050E824
:101A6000001F21F0100140E80012002AF5D1E06BC0
:101A7000FEF73DFE6663A08DE18D401A81B22AE03B
:101A8000A08DE18D401A81B2E08D0028A6D00029FA
:101A9000A4D022680C3252E8000F20F4907042E883
:101AA0000007002FF5D12068143050E8002F22F0F5
:101AB000010240E80027002FF5D184F84230256369
:101AC00020680C3050E8002F22F0100240E800237C
:101AD000002BF5D166632046FFF707FFF8BDFFE74F
:101AE00005062BD5150629D594F841002128F5D1F6
:101AF000A068B0F5805F01D12069B0B1206A411CB7
:101B00002162216800784860E08C401E0004000CCF
:101B1000E084E3D12068C16821F08001C1602068C1
:101B2000C16841F04001C160D8E7206A0088C0F375
:101B300008004860206A801C2062E5E74006CDD599
:101B40005006CBD5CA68204622F04002CA6084F80D
:101B5000413000F036F9C1E7EB23000870B504000E
:101B600004D094F84100002510B106E0012070BDBA
:101B700084F84050204600F023F8242084F84100E7
:101B80002068C16821F40051C160204600F0BEFC0D
:101B90002068016921F4904101612068416921F0C8
:101BA0002A0141612068C16841F40051C160656447
:101BB000202084F8410084F842006563002070BD55
:101BC00030B585B000240094019402940394006819
:101BD000184988422CD11848816941F480418161BB
:101BE000816901F480410491816941F004018161BE
:101BF0008069124D00F0040004904FF400700090D2
:101C0000022001900320039069462846FEF788FED3
:101C10002815CDE90004694628460294FEF780FEA7
:101C2000002211462520FEF7EDFF2520FEF7DCFF00
:101C300005B030BD003801400010024000080140EE
:101C400090F84230202B01D00220704721B11AB108
:101C50000023036300F0B6BC0120704770B5006834
:101C60002C49884255D12C4C2C4A0025617929B940
:101C700000201554401CC0B21428FAD32648123054
:101C80000078362836D00ADCA0F12D03092B37D294
:101C9000DFE803F030303630303030303000652847
:101CA0000ED006DC372825D0382823D0392827D174
:101CB00020E0722806D0732807D0762820D117E0BC
:101CC00065701DE0012060701AE01448FEF728FBE3
:101CD00000B2E080400000F0C0FF114A114B00F05C
:101CE000E7FF00F059FDA06214210C48FEF725FB28
:101CF000657105E00A44491C617111780143117056
:101D00000549BDE870400548012212314838FFF707
:101D100097BF70BD00380140000000207401002012
:101D20006F1283C0CA2109402DE9F843044690F898
:101D300041001F4616460D46202802D00220BDE86D
:101D4000F8837DB176B100206064212084F84100E1
:101D5000FEF7ECFEA6848046E684A068B0F5805FBE
:101D600002D003E00120EAE7206910B12E460025E9
:101D70000EE000260CE08021204600F03EFCA0B9D9
:101D8000AEB116F8010B21684860E08C401EE0847B
:101D9000E08C43464FF0000200970028EBD14FF053
:101DA0004001204600F029FC30B10320C7E735F898
:101DB000020BC0F30800E6E7202084F84100002071
:101DC000BDE77047FEE70000F0B585B000253C4850
:101DD0000095019502950395816941F0100181619B
:101DE000816901F010010491816941F02001816154
:101DF000816901F020010491816941F00401816150
:101E0000816901F004010491816941F00801816157
:101E100080692C4F00F00800049000220821384609
:101E2000FEF77FFE4FF677700324CDE90004694684
:101E30003846FEF775FD0720CDE9000469462248C3
:101E4000FEF76EFD08200126CDE900060220CDE94F
:101E5000025069463846FEF763FD49F6FF10CDE9AA
:101E6000000469461948FEF75BFD4FF6AF70CDE9F7
:101E70000004174C69462046FEF752FD50200090A2
:101E80001448CDE9010669462046FEF749FD12488F
:101E9000416841F0E06141F4004141600022114697
:101EA0000A20FEF7AFFE0A20FEF79EFE0022114632
:101EB0001720FEF7A7FE1720FEF796FE05B0F0BD2F
:101EC00000100240001001400014014000080140D1
:101ED000000C0140000031100000014010B58AB034
:101EE000002407941C2168460894FEF726FA164839
:101EF000144901600B21C0E901146421C0E90314F5
:101F00008461FFF7C0FB08B172B6FEE7079407A92A
:101F10000D480894FFF72AF908B172B6FEE7602071
:101F2000CDE9000402940422694607480494FFF7AF
:101F300044FB08B172B6FEE70348FFF70DFB0AB099
:101F400010BD0000000400405400002010B586B011
:101F500000241748009401940294039404941349B4
:101F60000594016045F6BF51C0E901140421C0E9A0
:101F700003148461FFF738F908B172B6FEE74FF435
:101F80008050009069460A48FFF7C4F908B172B65C
:101F9000FEE7049404A906480594FFF7E7F8002833
:101FA00001D072B6FEE706B010BD00000008004088
:101FB0009C00002010B586B00024174800940194BE
:101FC00002940394049413490594016045F6BF51AB
:101FD000C0E901140921C0E903148461FFF704F981
:101FE00008B172B6FEE74FF48050009069460A4887
:101FF000FFF790F908B172B6FEE7049404A9064809
:102000000594FFF7B3F8002801D072B6FEE706B0DA
:1020100010BD0000000C0040E4000020FEE7FEE7D9
:102020002DE9F0471E461746DDF8209001F0B6F97D
:10203000254C054610F1FF4F03D380F000450220E8
:1020400005E0B5F5000F01DB012000E00020207065
:102050002946384601F0D6F880462846A16B01F0A3
:102060009DF9314601F0CEF801F00AF8174A184BF5
:1020700000F06CFC00F090FB074649464FF07E50A4
:1020800001F08CF9E16B01F0BDF80646394648468F
:1020900001F0B8F8314601F01FF80646C4E90E56C3
:1020A000404601F07BF801F095F8314601F014F854
:1020B00001F074F8216A884202DC616A884200DA21
:1020C0000846BDE8F0870000000000207B14AE4702
:1020D000E17A743F70477047FEF72EBD30B58FB080
:1020E00028216846FEF729F914210AA8FEF725F9E8
:1020F00002240120049000941020059000254FF444
:102100002010CDE9085007946846FEF789FE08B113
:1021100072B6FEE70AA90F2081E831004FF4A060F3
:102120000D900E9001210AA8FEF79EFD002801D017
:1021300072B6FEE70FB030BD704700000148FFF7F0
:1021400058B900009C0000200148FFF752B9000078
:10215000E4000020F0B502681C4B1D4D1D4E1E4FC3
:102160001E4C4FF0804C984209D0A04207D06045E9
:1021700005D0A84203D0B04201D0B84204D122F029
:10218000700E4A6842EA0E02984209D0A04207D077
:10219000604505D0A84203D0B04201D0B84203D177
:1021A00022F44075CA682A434D6922F080022A430E
:1021B00002608A68C2620A688262984201D0A042C4
:1021C00001D10969016301214161F0BD002C014089
:1021D0000004004000080040000C004000340140B2
:1021E00010B501F01F030121046A99408C43046279
:1021F000016A9A401143016210BD10B5846842EA39
:10220000032224F47F440A432243826010BD826883
:1022100022F070020A4342F007018160704700001B
:10222000F0B5036A026A22F0010202624268846920
:10223000124E24F073050C682C4323F002058B68C2
:102240002B430D4DA84201D0B04205D123F0080721
:10225000CB683B4323F00403A84201D0B04205D130
:102260004D6922F4407215438A692A4342608461B1
:10227000496841630362F0BD002C01400034014015
:10228000F0B5026A036A23F01003036243688469AD
:102290000D6824F4E64444EA05248D6822F0200207
:1022A00042EA05120F4D104EA84201D0B04206D1AD
:1022B000CF6822F0800242EA071222F04002A842D0
:1022C00001D0B04207D14D6923F4406343EA85034E
:1022D0008D6943EA850343608461496881630262D2
:1022E000F0BD0000002C014000340140F0B5026A4E
:1022F000036A23F4807303624368C46922F40072A2
:1023000024F073050C68124E2C438D6842EA0522B6
:102310000E4DA84201D0B04206D1CF6822F400622F
:1023200042EA072222F48062A84201D0B04207D1DB
:102330004D6923F4405343EA05138D6943EA0513BD
:102340004360C4614968C1630262F0BD002C014072
:102350000034014030B5046A026A22F480520262FD
:102360004268C3690D6823F4E64343EA05238D6898
:1023700024F4005444EA0534084DA84202D0084D24
:10238000A84204D14D6922F4804242EA851242609B
:10239000C36149680164046230BD0000002C014043
:1023A0000034014010B5036A046A24F00104046299
:1023B000846924F0F00444EA021423F00A020A4378
:1023C0008461026210BD10B5036A046A24F010042F
:1023D0000462846923F0A00324F4704444EA0232C6
:1023E00043EA01118261016210BD10B5406A00210B
:1023F000C185C184FFF77AFA10BD01680C3151E83C
:10240000002F22F4907241E80023002BF5D10168DF
:10241000143151E8002F22F0010241E80023002B83
:10242000F5D1016B012909D101680C3151E8002F68
:1024300022F0100241E80023002BF5D1202180F882
:10244000421000210163704708B590F8421022291C
:1024500001D0022008BD82684FF480539A4201D116
:10246000016921B1816A9A421BD04AB10AE002682F
:10247000816A5268C2F308020A80816A891C08E0F6
:10248000026972B10268526802F07F020A70816AC2
:10249000491C8162C18D491E0904090CC18503D004
:1024A0001BE002685268F1E70168CA6822F0200266
:1024B000CA600168CA6822F48072CA6001684A6909
:1024C00022F001024A61202180F84210002141637C
:1024D000026B012A03D0FFF7C1FB002008BD016396
:1024E00001680C3151E8002F22F0100241E800236E
:1024F000002BF5D101680A68D20602D50A6849683E
:102500000091818DFFF7F1F9E7E7000070B504460F
:1025100000680169E26821F44051114301612169B9
:10252000A0680843616908432168CA6841F20C63E6
:102530009A430243CA6020684169A26921F440714C
:10254000114341611E492068884202D1FEF732FCE6
:1025500001E0FEF71FFC00EBC00101EB0012606818
:1025600064218000B2FBF0F3B3FBF1F36FF01806C7
:102570007343B2FBF0F5B2FBF0F605EB83053223B3
:1025800003EB0515B5FBF1F5B6FBF1F605F0F0052B
:1025900005EB0615B2FBF0F6B2FBF0F0B0FBF1F084
:1025A0006FF01802504306EB800003EB0010B0FB05
:1025B000F1F0216800F00F002844886070BD000031
:1025C0000038014081628285C28500214164222158
:1025D00080F84210016921B10168CA6842F4807232
:1025E000CA6001684A6942F001024A610068C16834
:1025F00041F02001C160002070472DE9F04198466C
:1026000017460E460446069D27E0681C25D02DB1CE
:10261000FEF78CFAA0EB0800A8421ED920680C3007
:1026200050E8001F21F4D07140E80012002AF5D1D3
:102630002068143050E8001F21F0010140E800122A
:10264000002AF5D1202084F8410084F842000020BF
:1026500084F840000320BDE8F0812068006836EA75
:10266000000004D00020B842CFD00020F3E70120C2
:10267000F9E700000148FFF73BB900002C010020FA
:10268000FEE70907090E002804DB00F1E02080F8CE
:102690000014704700F00F0000F1E02080F8141DD6
:1026A0007047000038B504468DF80000642301220D
:1026B00069460248FFF738FB204638BD2C01002050
:1026C000FEF742FAFFF70AFDFFF77EFBFFF706FC75
:1026D000FFF73CFCFFF76EFC134812490C22016027
:1026E0004FF4E131416000218160C160C0E9041212
:1026F0008161C161FFF732FA08B172B6FEE70A489C
:102700000421D838FFF702F807489038FEF7CCFDCF
:1027100005484838FEF7C8FD012204490248FFF782
:102720008FFAFEE7003801402C0100201200002043
:1027300070B50C4B0C4C0D4601280BD002284FF005
:10274000000208D008211846FEF7EBF921680020A6
:10275000886370BD012208211846FEF7E2F920685F
:10276000856370BD001001405400002010B50029A1
:102770000AD00878002807D005487844FDF768FF9C
:10278000002801D0002010BD0248784410BD000090
:10279000560D00004E0D000021F00042A2F16052E3
:1027A000B2F5801F01F0004328BFD2F17F6C0BD936
:1027B0005FEA001C43EAC20242EB507018BF704748
:1027C00028BF20F001007047B2F5801FBCBF18463B
:1027D00070474FEA410C1CF5001F02D2084600F07A
:1027E000D8BD70B500F00EFB00000089FFF7F6BF02
:1027F0004FF00040A0F580007047000010B591EA4E
:10280000030F48BF83F0004300F15883841A71EB33
:10281000030C05D2121943EB0C03001B61EB0C01F6
:10282000DFF824E14FEA1154A4EB135C1EEA430FD6
:1028300018BF9EEA445F73D023EA0E03DCF1200E3A
:1028400021EA045143F4801332D322FA0CFE10EB38
:102850000E0023FA0CFE41EB0E01CCF1200E03FA20
:102860000EFE10EB0E0051F10001B1F5801FCCF10E
:10287000200E32D201EB045112FA0EF2BDE81040E4
:1028800058BF7047401C38BF5FEA420218BF70470C
:10289000002814BF20F0010041F100014FEA41037C
:1028A00013F5001F38BF7047A1F1C04100F0F8BA1E
:1028B000012A43EB0302ACF1200CDCF11F0E32BF06
:1028C0004FF0000E23FA0CF310EB030041EB045120
:1028D000B4EB115FD0D0A1EB045101F58011490890
:1028E0005FEA300001EB04510ED350F1000038BF15
:1028F00012FA0EFE08D1BDE81040C9E7401C38BFEF
:102900005FEA4202CAD1C3E7BDE810404FEA410383
:1029100013F5001F38BF7047A1F1C04100F0C0BAE5
:102920009EEA445F08D011EA5E0FBDE8104004BF84
:1029300001F0004100207047BDE8104070B500F084
:1029400061FA00BF64FBBE3E0000E0FF2DE9C0411C
:1029500030B4DFF8A0C23CEA111418BF3CEA1314EB
:1029600000F0EC8081EA03051CEA111444EAD574F6
:1029700018BF1CEA131500F0C780A4EB05044FF044
:10298000004545EAC12145EAC32341EA505143EAE3
:10299000525304F17F74994204F500344FEAC02089
:1029A0004FEAC22208BF904200F09C804FEA1365B4
:1029B0000FF24016765D4FEA134506FB05F7C7F1A7
:1029C000807706FB07F74FEAD737A7FB0368764205
:1029D000C8F58038A7FB06CE38BFA8F1010807FB71
:1029E00008E64FF0000EA6FB028CE6FB03CEDCF1FE
:1029F000000CCEF1004E38BFAEF1010EA6FB0C5814
:102A00004FF000074FF00005E6FB0E87A1FB08C65C
:102A1000A0FB07CE16EB0E0645F10005E1FB0765AE
:102A200015F1E04E7EBFA4F580345FEA46066D41A5
:102A300016F1800745F100054FEA17274FEA0666B1
:102A400047EA0567A6F1DE46B6F1805F4FEA152535
:102A50001FD9384624F0010C05EBC471BCF1FE6FA0
:102A600001EB0C1102D8F0BCBDE8008124425CBF30
:102A700001F5801E9EEAC47F02D4F0BCBDE800814F
:102A8000244238D4F0BCA1F1C041BDE8004100F0BF
:102A900007BA4FEAD22242EA43524FEAD323A7FBB6
:102AA00002864FEAD02040EA415007FB03661EEA47
:102AB0000E0F4FEAD12105FB026658BFA6EB005668
:102AC000B6EB00564FEA520E4EEAC37E18EB0E0EDE
:102AD00056EB530EBDD518EB02085E417F1C55F135
:102AE0000005B6E74FF480154FF000074FF00006E1
:102AF0004FF00008ADE7F0BC4FF0000001F1C0411D
:102B000001F00041BDE8008111EA0C1F0CEA131529
:102B100000D00CE013EA0C1F00F025804FF00000FD
:102B2000F0BC81EA030101F00041BDE80081F0BC86
:102B3000BDE8004181EA030100F0B2B9F0BCBDE894
:102B4000004170B500F05EF9097EFC3E00F007B868
:102B500081EA03014FF0000001F00041704781EA73
:102B6000030100F09DB9F0BCBDE800414FF000004A
:102B700021497047FFFDFBF9F7F5F4F2F0EEEDEBBC
:102B8000E9E8E6E4E3E1E0DEDDDBDAD8D7D5D4D36B
:102B9000D1D0CFCDCCCBCAC8C7C6C5C4C2C1C0BFB7
:102BA000BEBDBCBBBAB9B8B7B6B5B4B3B2B1B0AFBD
:102BB000AEADACABAAA9A8A8A7A6A5A4A3A3A2A1A1
:102BC000A09F9F9E9D9C9C9B9A999998979796955C
:102BD00095949393929191908F8F8E8E8D8C8C8BF8
:102BE0008B8A898988888787868585848483838280
:102BF000828181800000FF070000F87F4FEA4103D7
:102C00004FEA5353A3F58063D3F11E03C8BFD3F13A
:102C1000210C0CDD4FF0004242EAC12242EA505240
:102C200032FA03FC8CEAE17CACEBE1707047102BCC
:102C3000C4BF0020704703F5787CBCF1FF3F04D08F
:102C40006FF0004282EA2100704770B500F0DAF8B8
:102C50004992248000207047F2E710F0004248BFFC
:102C60004042B0FA80F310FA03F10AD0C3F11D0319
:102C700003F580634FEA415002EB035202EBD1218E
:102C800070474FF000007047B0FA80F310FA03F17C
:102C90000AD0C3F11D0303F580634FEA41504FEAA8
:102CA000035202EBD12170474FF000007047000043
:102CB000DFF848C170B51CEA111E1EBF1CEA1315CF
:102CC0009EEA0C0F95EA0C0F00F06F8081EA030476
:102CD00023EA4C134EEAD47E21EA4C1141F48011D0
:102CE00043F48013AE44A1FB024CA0FB0365AEF19C
:102CF0007F7E361955EB0C05A1FB034C4CF100030C
:102D0000A0FB021C16EB0C06654153F100030942BF
:102D100018BF46F0010613F4007F0BD14FEA0331D0
:102D20004FEA0530340341EA155140EA16506FF07E
:102D300003020AE04FEAC3214FEAC520F40241EA48
:102D4000555140EA56506FF0020202EB2E4201EB61
:102D5000025585EACE710AD05FEA440C18BF24F010
:102D6000004450F1000041F1000120EAD47040F22B
:102D7000FE7C624500D270BDA84214BF4FF0804473
:102D80004FF04044002E08BF0024BEF1806FA8BF62
:102D9000A1F1C041BDE8704080F282804FF0000098
:102DA00001F1C04101F0004170479EEA0C0F0CEAAE
:102DB000131518BF95EA0C0F06D04FF0000081EAFA
:102DC000030E0EF0004170BD00F01CF88900013EBA
:102DD00000F007B800F009B84FEA430C5FEA5C5C0A
:102DE00008D081EA030100F05BB84FEA410C5FEACA
:102DF0005C5CF6D14FF00000014970470000FF070E
:102E00000000F87F0EF1020E2EF0030E5EF8046B48
:102E1000364205D4012A43EB030515F5001F12D8ED
:102E2000012841EB010C1CF5001F0CD80ED14FEA14
:102E3000D17C15F5001F0CEB4C0C0CF1020C08BFFB
:102E40004CEBD37C04E04FF0080C01E04FEAD37C5C
:102E50000CEB4C0526FA05F606F00706B6F1040C55
:102E600006D20EEB860CBDE870404CF0010C6047BA
:102E7000DFE80CF0090B02024FF000414FF00000B8
:102E8000A1F5002170BD19461046012851EB01043F
:102E900018BFD4F5001484BF002001F0004170BDBC
:102EA0000808A0F500114FEA3101704710B591EA0A
:102EB000030F48BF83F000433FF5A8AC841A71EBC1
:102EC000030C07D212198CF0004C43EB0C03001BCF
:102ED00061EB0C01DFF8A4E14FEA1154A4EB135CA1
:102EE0001EEA430F18BF9EEA445F00F0B08023EA59
:102EF0006E03524221EA0451C3EB6E0338BF5B1EDE
:102F0000DCF1200E25D322FA0CFE10EB0E0043FA62
:102F10000CFE41EB0E01CCF1200E03FA0EFE10EB7D
:102F20000E0051F10001CCF1200E29D412FA0EF25C
:102F300001EB0451BDE8104058BF7047401C1CBF56
:102F4000B2F1004F704700280CBF491C20F001006F
:102F5000704712EB020E43EB030218BF4FF0010E55
:102F60004EEA4202ACF1200CDCF11E0E54D943FAB9
:102F70000CFE10EB0E0051F1FF31CCF11E0ED5D539
:102F80000EF1010E12FA0EFE404141EB010101EB80
:102F9000445C5FEA5C5C10D910EBDE7001EB04511D
:102FA00038BFBEF1004FBDE8104018BF7047002881
:102FB0000CBF491C20F00100704730D24FEAD42CDE
:102FC00011F5001124F400641BD0B1FA81F20B3A20
:102FD000A41AA41ED2F12003914030FA03F319433E
:102FE000904001EBCC71002C01EB0451BDE8104086
:102FF000A8BF704701F1C0414FF0000001F000414F
:103000007047B0FA80F310FA03F100D110BDE41A52
:10301000173C4805C90AE4E701EB045110BD49100B
:1030200001EB0451BDE810404FEA300002E04FF0E0
:10303000000170474A0008BF0042F8D0B2F5001FF7
:1030400028BF704701F000414FF0000070479EEA32
:10305000445F07D011EA5E0FBDE8104004BF0021B5
:1030600000207047BDE8104070B5FFF7CBFE00BFF1
:1030700040DFF63E83F00041104670470000E0FF5D
:1030800043004FEAD30C4FEA3C0C43401FBF4007BC
:103090000CF1605113F0FE4F70471CF0006F03D12C
:1030A00000200CF0004170470CF0004343EA5070E0
:1030B00010B540EACC0000F026F900BF00000092F5
:1030C0004FEA0001FFF7ECBE4FF000414FF0000067
:1030D000A1F500217047000090EA010F48BF81F080
:1030E000004100F16281421A3CBF801A89184FEA00
:1030F000D0524FF07F4C1CEA410FA2EBD15318BFC6
:103100009CEA026F00F03B804FF0004C4CEA00203C
:103110004CEA012121FA03FC10EB0C0C1ED202F147
:10312000FF325FEA1C2040EBC25038BF70471CF0F2
:103130007F0F4FEA400C18BFBCF17F4F38BF70477C
:10314000C3F12003994008BF20F00100BCF17F4F7C
:1031500038BF7047A0F1C04000F01BB94FEA3C00F7
:10316000000A40EBC25028BF1CF0FF0F4FEA400C92
:10317000E6D018BFBCF17F4F38BF7047EAE79CEA42
:10318000026F05D010EA5C0F08BF00F000407047E6
:1031900010B500F0B8F800BF64FBBE3E41000B0E56
:1031A000D3F19E0208D950F400034FEA032323FA17
:1031B00002F048BF4042704710B500F0A4F800BFCD
:1031C00049922480002070476FF0004282EA20007C
:1031D0007047000010F0004148BF4042B0FA80F351
:1031E00010FA03F2C3F19D030BD051EAC35101EB76
:1031F0001220530638BF704700F1010008BF20F0CD
:10320000010070474FF47F0C1CEAD0121EBF1CEA6D
:10321000D11392EA0C0F93EA0C0F00F0478090EA6A
:10322000010F48BF42F480724FF0004C4CEA00207E
:103230004CEA012102EB0302A0FB0113A2F50002FC
:10324000002918BF43F001035B0028BF4FEA330396
:1032500042EB22425FEA132C4CEBC2502EBFBCEB78
:10326000436FB2F57C0F70474FEA036CBCF1004F1F
:1032700008BF20F00100B2F57C0F38BF70470BD5B6
:1032800082F0FF0212F5803FC8BF704700F1C040D6
:10329000D8BF00F00040704700F5000C5FEA4C0C0E
:1032A00048BF7047B0F1C04000F073B890EA010F1A
:1032B0000CEAD11348BF42F48072624538BF6345BF
:1032C00004D280EA010000F00040704710B500F021
:1032D0001AF800BF8900013E00F007B800F009B8F5
:1032E0005FEA410C5FEA1C6C08D080EA010000F044
:1032F00050B85FEA400C5FEA1C6CF6D14FF000401A
:10330000A0F5800070470EF1020E2EF0030E5EF85D
:10331000044B244204D44FEA4102B2F17F4F11D84A
:103320004FEA4003B3F17F4F0CD80ED14FEAD07C67
:10333000B2F17F4F0CEB4C0C0CF1020C08BF4CEBC4
:10334000D17C04E04FF0080C01E04FEAD17C0CEB9B
:103350004C0324FA03F404F00704B4F1040C06D27D
:103360000EEB840CBDE810404CF0010C6047DFE828
:103370000CF0070802024FF00040A0F5800010BDDD
:103380000846420018BFD2F1807288BF00F00040AA
:1033900010BDFF2141EAD050C005704790EA010FEF
:1033A00048BF81F000413FF59EAE421A04D882F03A
:1033B0000042A0EB020011444FEAD0524FF07F4C84
:1033C0001CEA410FA2EBD15318BF9CEA026F4AD00E
:1033D0004FF0004C4CEA00204CEA012121FA03FC9A
:1033E000B0EB0C0C0FD412F0FE0F36D05FEA4C009D
:1033F0001DD5001240EBC25038BF70471CF03F0F84
:1034000018BF70470BE0A2F101025FEA1C2040EBFD
:10341000C25038BF70471CF07F0F18BF7047C3F110
:103420002003994014BF401E20F00100704780081F
:103430004FEA122308BF7047B0FA80FCA2EB0C02DF
:10344000CCF1280C60FA0CF093EA122F04BF00EBC9
:10345000C25070474FEAC3707047130A5FEADC102E
:1034600008BF7047F6E79CEA026F04D010EA5C0FD1
:1034700008BF0020704710B5FFF745FF40DFF63E5C
:1034800081F00040704701020203040506070809A5
:103490000A0B0C0D0E0F10100000000000000000C1
:1034A00001020304060708090000000001020304EA
:1034B000E035000800000020540000006C01000806
:1034C00034360008540000209407000088010008EA
:1034D0001001000043000000F8FFFFFF00404040E3
:1034E00040404040404041414141414040404040D7
:1034F0004040404040404040404040404005020283
:103500000202020202020202020202020220202041
:10351000202020202020200202020202020290909D
:10352000909090901010101010101010101010109B
:1035300010101010101010100202020202028888EF
:1035400088888888080808080808080808080808FB
:1035500008080808080808080202020240000000E3
:10356000000000000000000000000000000000005B
:10357000000000000000000000000000000000004B
:10358000000000000000000000000000000000003B
:10359000000000000000000000000000000000002B
:1035A000000000000000000000000000000000001B
:1035B000000000000000000000000000000000000B
:1035C00000000000000000000000000000000000FB
:1035D00000000000000000000000000000000000EB
:1035E00000000000000000000000000000000000DB
:1035F000000000004EF39D41069A243FCDCCCC3D07
:103600006400000000000000000000000000000056
:1036100000000000000000000000000000000000AA
:103620000000000001000000100000000000000089
:043630000024F4007E
:0400000508000131BD
:00000001FF
