:020000040800F2
:10000000200700203D0200084D1200082D110008B5
:10001000491200085D070008611300080000000095
:100020000000000000000000000000005512000861
:100030006107000800000000511200085912000872
:10004000570200085702000857020008570200082C
:10005000570200085702000857020008570200081C
:10006000570200085702000857020008570200080C
:1000700057020008570200085702000857020008FC
:10008000570200085702000857020008000000004D
:1000900000000000000000000000000057020008FF
:1000A00057020008570200085702000857020008CC
:1000B00057020008570200085702000857020008BC
:1000C00057020008570200085702000857020008AC
:1000D00057020008570200085702000800000000FD
:1000E00057020008570200085702000800000000ED
:1000F000000000000000000000000000570200089F
:1001000000000000570200085702000857020008CC
:1001100000000000000000000000000000000000DF
:10012000570200085702000857020008570200084B
:10013000570200080000000000000000000000005E
:10014000000000000000000000000000570200084E
:10015000570200085702000857020008570200081B
:1001600057020008570200080000000000000000CD
:10017000000000000000000000000000000000007F
:10018000000000005702000800000000000000000E
:100190005702000800F002F800F041F80AA090E8C9
:1001A000000C82448344AAF10107DA4501D100F032
:1001B00036F8AFF2090EBAE80F0013F0010F18BFBE
:1001C000FB1A43F001031847F4160000141700004F
:1001D000103A24BF78C878C1FAD8520724BF30C873
:1001E00030C144BF04680C60704700000023002445
:1001F00000250026103A28BF78C1FBD8520728BF37
:1002000030C148BF0B607047642900F0E3800020D4
:1002100070471FB501F029FB1FBD10B510BD00F0E0
:1002200063FA1146FFF7F5FF01F0ACF800F081FA30
:1002300003B4FFF7F2FF03BC00F088FA09488047D7
:1002400009480047FEE7FEE7FEE7FEE7FEE7FEE7B8
:10025000FEE7FEE7FEE7FEE704480549054A064BD0
:10026000704700005D120008950100082001002081
:1002700020070020200300202003002053EA020C66
:1002800000F069802DE9F04B4FF00006002B1FBFF6
:10029000B3FA83F503FA05F424FA05F65E4012BFBB
:1002A0001643B2FA82F502FA05F4C5F120051EBF25
:1002B00022FA05FC44EA0C04203556EA044C4FEAC5
:1002C000144418BF641C4FF000084FF0000990421E
:1002D00071EB030C39D3002919BFB1FA81F701FA88
:1002E00007F6B0FA80F700FA07F6C7F120071EBF3D
:1002F00020FA07FC46EA0C062037B6FBF4FCA7EB15
:100300000507103F07F01F0BCBF120062CFA06F66D
:100310000CFA0BFB44BFB3460026202FA4BF5E4659
:100320004FF0000B5BEA060C08BF4FF0010B19EB16
:100330000B0948EB0608ABFB027C06FB02CC0BFB6F
:1003400003CCC01B71EB0C01C1E70B4602464146D2
:100350004846BDE8F08B13B5084318BF4FF0FF3097
:100360000146AFF30080BDE81C4070470FB404495C
:1003700010B503AA029800F089F910BC5DF814FBCF
:10038000C400002070B5044685690068C10601D527
:10039000302600E02026C00707D070BDD4E9012137
:1003A00030469047206A401C20626D1EF6D570BD15
:1003B00070B5044685690078C00707D170BDD4E9DF
:1003C000012120209047206A401C20626D1EF6D536
:1003D00070BD00002DE9F041064600241068752923
:1003E000314616A510D0AFF30080002802DA404253
:1003F00013A507E031688A0701D512A502E0490775
:1004000004D511A5012401E0AFF3008000210A22E8
:1004100006F1240709E0B0FBF2FCB0FBF2F302FBAB
:100420001C00303078541846491C0028F3D123466C
:100430002A463046BDE8F04100F0CEB8000000008A
:100440002D0000002B000000200000002DE9F05FCF
:10045000894604464FF0000ADFF824B1FB44C0F897
:1004600020A02046E168884700287DD0252806D0B6
:10047000D4E901219047206A401C2062F1E7002561
:100480005F462046E16888472028064607DB312E74
:1004900005D2B81910F8200C08B10543F1E7A807F8
:1004A00001D525F00405C4F81CA00027C4F818A045
:1004B0002A2E09D0304601F0D1F938B304EB870871
:1004C000303EC8F8186019E059F8041B204604EBC8
:1004D00087029161E1688847012F064618D1E069DB
:1004E000002820DA25F020051DE0D8F8180000EBE0
:1004F000800006EB40003038C8F818002046E1685C
:100500008847064601F0AAF90028EED1012F0AD04B
:100510002E2E08D12046E16888477F1C0646022F10
:1005200045F02005C4DBA069002803DA404245F00D
:100530000105A061E80701D025F01005A6B1A6F1DC
:100540004100192802D8203645F400654A46314654
:10055000204625604D46FFF757FE60B1012807D0C1
:10056000ED1D25F0070000E007E000F1080978E73D
:1005700005F1040975E730467AE7206ABDE8F09F87
:10058000241400004FF0000200B51346944696462E
:10059000203922BFA0E80C50A0E80C50B1F1200196
:1005A000BFF4F7AF090728BFA0E80C5048BF0CC044
:1005B0005DF804EB890028BF40F8042B08BF7047A2
:1005C00048BF20F8022B11F0804F18BF00F8012B14
:1005D00070477047704770472DE9F0470D469946C0
:1005E0009246044600F124080168880604D5E069B3
:1005F00021F01001216000E00120A84201DD471B2D
:1006000000E00027A1697A1902EB0900081AA0612D
:100610002078C00602D42046FFF7B4FE002608E08A
:10062000D4E901211AF806009047206A401C761C84
:1006300020624E45F4DB2078C0060AD52046FFF73D
:10064000A1FE06E0D4E9012130209047206A401C39
:100650002062381EA7F10107F4DC07E0D4E901218C
:1006600018F805009047206A401C2062281EA5F15A
:100670000105F3DC2046FFF79BFE2078000602D53B
:100680000220BDE8F0870120FBE70000074B70B5B2
:100690000D467B4400F011F80446284600F020F88F
:1006A00010B14FF0FF3070BD204670BDCF0C000080
:1006B00001694A1C02610878704700B58FB0CDE926
:1006C00001310021059105497944CDE90310114616
:1006D0006846FFF7BBFE0FB000BD0000E5FFFFFF5F
:1006E000007B00F080007047754600F02BF8AE46A6
:1006F00005006946534620F00700854618B020B52E
:10070000FFF7AAFDBDE820404FF000064FF00007BC
:100710004FF000084FF0000BAC46ACE8C009ACE865
:10072000C009ACE8C009ACE8C00921F007018D465A
:10073000704710B50446AFF300802046BDE8104076
:10074000FFF776BD004870471000002001491820CF
:10075000ABBEFEE72600020070470000FEE7000087
:1007600070470000B0B5044600F0F0F8054640F2CE
:100770000000C2F200000078611C18BF044400BFF2
:1007800000F0E4F8401BA042FAD3B0BD2DE9F04FD1
:1007900082B000F13E4241F2000502F1FF77C4F25F
:1007A0000205072243F6004E4FEAB726A84208BFCB
:1007B0000422C4F2010E042E38BF4FEAB7220125ED
:1007C000002600274FF00008009208E008F1010819
:1007D0000437B8F1100F06F1020600F0A7800C688C
:1007E00005FA08F914EA090FF0D0D1F804B0032291
:1007F0000BF0030CACF10104B240012C6FEA020AC9
:1008000010D88268CC6802EA0A02B44022438260AF
:100810004268CBF3001422EA090204FA08F42243E6
:10082000426005E0BCF1030F02D14FF0030C20E061
:10083000C2688C6802EA0A02B4402243BCF1020F8B
:10084000C26016D16FF0030202EA58020244D2F8E5
:1008500020C007F01C050F230C69AB402CEA0303F2
:1008600004FA05F52B431362D1F804B001250BF00F
:10087000030C02680CFA06F302EA0A021A431BF49C
:10088000403F0260A2D0002243F644030192C4F22A
:1008900002031A684FF6084C42F480421A601A6844
:1008A000CFF6FF7C02F480420192019A28F0030205
:1008B000724452F80C3007F00C050F24AC40A343EF
:1008C000009C04FA05F52B4342F80C30DEF80820B2
:1008D0004B6842EA090543F60C4CDC0258BF22EA99
:1008E0000905CEF80850C4F2010CDCF800209C0287
:1008F00042EA090558BF22EA0905CCF80050DEF8A3
:1009000004209C0342EA090558BF22EA0905CEF8F3
:100910000450DEF80020DB0342EA090558BF22EA52
:100920000905CEF80050012550E700BF02B0BDE830
:10093000F08F00000069084018BF012070470000D8
:10094000002A08BF090481617047000040F21810B6
:10095000C2F200000068704740F2000040F2181137
:10096000C2F20000C2F2000100780A681044086078
:100970007047000080B543F60040C4F202000168F1
:1009800041F400710160016841F480610160016817
:1009900041F480710160032000F074F80F2000F032
:1009A00005F800F027F8002080BD000070B540F287
:1009B0000006C2F2000640F208013278C2F20001DD
:1009C0004FF47A730968B3FBF2F20446B1FBF2F11B
:1009D000084600F02FFB0F2C4FF0010508D838B95E
:1009E0004FF0FF3021460022002500F01FF8746010
:1009F000284670BD82B0002043F640010190C4F249
:100A000002014A6842F480424A604A6802F4804225
:100A10000192019A0090086840F0805008600868D0
:100A200000F080500090009802B0704710B54EF66C
:100A30000C5CCEF2000CDCF80030C3F3022E8EF01A
:100A40000704042C28BF0424BEF103034FF0FF3E2B
:100A50000EFA04F438BF0023A14399400EFA03F3C1
:100A60009A43114300F00F0200F160430901043A78
:100A700003F564436244002848BF02F10C03197077
:100A800010BD00004EF60C51CEF200010A684FF680
:100A9000FF031A4060F30A2242F0806040F0FD70CC
:100AA000086070472DE9F041002800F08B8043F684
:100AB0000808C4F202080446D8F8F8030D4600F00E
:100AC0000700884207D288F8F853D8F8F80300F0F6
:100AD0000700A84276D12068810717D5410705D5C0
:100AE000D8F8001041F4E051C8F80010010705D50E
:100AF000D8F8001041F46041C8F80010D8F8001090
:100B0000A26821F0F0011143C8F80010C0073FD1DE
:100B1000D8F8F80300F00700A84207D988F8F8537E
:100B2000D8F8F80300F00700A8424BD1206841072D
:100B300007D5D8F80010E26821F4E0511143C8F855
:100B40000010000708D5D8F80000216920F46040A3
:100B500040EAC100C8F8000000F07CF8D8F80010A6
:100B600041F69502C1F30311C0F60002515C40F258
:100B7000080220FA01F140F20400C2F2000000680D
:100B8000C2F200021160FFF711FF0020BDE8F08102
:100B90006068811E022907D258F8081C89015CBFD1
:100BA0000120BDE8F08111E0012807D158F8081CA8
:100BB00089035CBF0120BDE8F08107E058F8081CFC
:100BC000890703D40120BDE8F08100BFD8F80010E8
:100BD00021F003010843C8F80000FFF7B7FE0646FE
:100BE00041F28837D8F80000616800F00C00B0EBE3
:100BF000810F8DD0FFF7AAFE801BB842F2D90320E7
:100C0000BDE8F08140F2080043F60801C2F200009E
:100C1000C4F202010068096841F6A502C1F382210D
:100C2000C0F60002515CC8407047000040F2080066
:100C300043F60801C2F20000C4F20201006809682C
:100C400041F6A502C1F34231C0F60002515CC84032
:100C50007047000010B543F60404C4F20204606853
:100C600000F00C0008280BD0042819BF42F2004005
:100C7000C0F2F40047F64000C0F27D1010BD00BF86
:100C8000206821682368490247F64001C0F27D11BF
:100C900000F03F02C3F388105CBF42F20041C0F293
:100CA000F401A1FB00010023FFF7E8FA216802220A
:100CB000C1F3014102EB4101B0FBF1F010BD0000B6
:100CC0002DE9F04182B0002868D00446007843F650
:100CD0000006C007C4F202060BD0B06800F00C009A
:100CE000042840F09F803068800302D560680028A7
:100CF00054D0207880071AD5B06810F00C0F09D0B6
:100D0000B06800F00C00082840F0A680706840022F
:100D100000F1A2803068800702D5E06801283DD14B
:100D20003068216920F0F80040EAC1003060207886
:100D3000000737D4207840074CD4A56955B3B06874
:100D400000F00C00082840F0BB80012D26D0706810
:100D5000E16900F480028A4220D1216A00F03F025A
:100D60008A421BD147F6C071626A0140B1EB821F13
:100D700014D1A16A4FF6FF73C903994300F44032BE
:100D8000A1F580318A4209D1E16A00F07060B0EBD0
:100D9000016F03D1002002B0BDE8F081012002B054
:100DA000BDE8F0816069002840F20000C4F24720ED
:100DB00076D00121C0F8801EFFF7C8FD054600BFB0
:100DC000706F8007B6D4FFF7C1FD401B0228F7D92A
:100DD000DDE000BF306C10F080580AD10020019097
:100DE000306C40F080503064306C00F080500190E6
:100DF000019847F20007C4F200073868C00541D4E3
:100E0000386840F480703860FFF7A0FD054600BFE9
:100E10003868C00536D4FFF799FD401B0228F7D982
:100E2000B5E000BFB06800F00C00082803D170687E
:100E300040023FF558AF6068B0F5803F07D0B0F58D
:100E4000A02F40F08D80306840F480203060306802
:100E500040F4803030608DE0E068002852D00020FF
:100E6000C4F2472001210160FFF770FD054600BF75
:100E7000306880073FF554AFFFF768FD401B02283C
:100E8000F6D984E0A068012805D005284ED1306F3E
:100E900040F004003067306F40F0010030674FE0F1
:100EA0000021C0F8801EFFF751FD0546706F8007D6
:100EB0007FF540AFFFF74AFD401B0228F6D966E0F8
:100EC0000027C4F2472700203866FFF73FFD022DB8
:100ED00005460BD1306880015ED5FFF737FD401B1A
:100EE00002284FF00300F5D955E700BF30688001B4
:100EF0007FF550AFFFF72AFD401B02284FF003009B
:100F0000F4D948E70020C4F2472000210160FFF730
:100F10001DFD0546306880077FF509AFFFF716FD18
:100F2000401B02284FF00300F4D934E7316F00284A
:100F300021F001013167316F21F0040131674DD09B
:100F4000FFF704FD054641F2883700BF306F800788
:100F500056D4FFF7FBFC401BB842F7D917E000BF9F
:100F60003168002821F480313160316821F480211A
:100F700031604FD0FFF7EAFC054600BF30688003C0
:100F80003FF5B7AEFFF7E2FC401B6428F6D903201B
:100F900002B0BDE8F08100BF04F11C052FCD08436D
:100FA00040EA8210D9034FF6FF729143A1F58031D8
:100FB00040EA05600843706001203866FFF7C6FC10
:100FC000044600BF306880013FF5E4AEFFF7BEFC89
:100FD000001B02284FF00300F4D9DCE6FFF7B6FC53
:100FE000054641F2883700BF306F800708D5FFF70C
:100FF000ADFC401BB8424FF00300F5D9CBE600BF73
:10100000B8F1000F7FF499AE306C20F0805030645E
:1010100093E600BFFFF79AFC054600BF30688003E7
:101020007FF567AEFFF792FC401B64284FF003008A
:10103000F4D9B0E6411E0020B0EB116F1CBF0120B7
:1010400070474EF21002CEF2000251604EF623516C
:10105000CEF20001F0230B70072190601160704701
:10106000002804BF0120704710B5044690F83D00E9
:1010700028B9002084F83C00204600F021F8242004
:1010800084F83D002068C16821F40051C160204609
:1010900000F0EEF82068016921F490410161416996
:1010A00021F02A014161C16841F40051C160002072
:1010B0002021206484F83D1084F83E1010BD00000B
:1010C00080B586B0016841F20000C4F2010081429F
:1010D00002D006B080BD00BF002143F6300201916E
:1010E000C4F20202536900F5704043F010035361EB
:1010F000536903F010030193019B0191136843F0BE
:1011000001031360126802F001020192019A4FF488
:10111000C06201920222CDE902210321049107213C
:10112000059101A9FFF732FB06B080BDFEE7000084
:10113000B0B5054640F600400C46C4F202008021DE
:101140000022FFF7FDFB05EB84108038C0B2BDE83C
:10115000B04000F02BB8000080B50F20FFF702FB75
:1011600040F60040C4F2020080210022FFF7E8FBB5
:10117000302000F01BF80520FFF7F4FA302000F0D3
:1011800015F8302000F012F8382000F00FF8082091
:1011900000F00CF8012000F009F8062000F006F835
:1011A0000D20BDE8804000F001B80000B0B540F669
:1011B0000044C4F202040546204640210022FFF705
:1011C000BFFBEA0920460821FFF7BAFBC5F38012EE
:1011D00020460421FFF7B4FBC5F34012204602214C
:1011E000FFF7AEFBC5F3001220460121FFF7A8FB75
:1011F000C5F3C00220464FF40061FFF7A1FBC5F321
:10120000800220464FF48061FFF79AFBC5F340024D
:1012100020464FF40071FFF793FB05F001022046D2
:101220004FF48071FFF78CFB204620210122FFF74D
:1012300087FB204620210022FFF782FB0120BDE82A
:10124000B040FFF78FBA0000FEE70000FEE70000A5
:101250007047000070470000FFF77EBB4EF68850D5
:10126000CEF20000016841F4700101607047000097
:1012700010B504460068D4E902C22369016921F46B
:10128000405111430161626943EA0C01E369114372
:10129000C268194349F20C639A431143C160416922
:1012A000A26921F4407141F20043114340F480628D
:1012B000C4F201039A42416102D1FFF7B7FC01E099
:1012C000FFF7A0FCE16963681922B1F5004FA0FBAC
:1012D000020123D15A00DB0FFEF7D0FF48F21F5165
:1012E000C5F2EB11A0FB01235A094FF69C73C0F61F
:1012F000FF7303F1805302FB0300322303EBC000B2
:10130000A0FB01014FF4F87000EA111000EB02108D
:10131000C1F3421108442168886010BD9A009B0FF8
:10132000FEF7ACFF48F21F51C5F2EB11A0FB012301
:101330005A094FF69C73C0F6FF7302FB0300322379
:1013400003EB0010A0FB0101F02000EA511000EBBC
:101350000210C1F3431108442168886010BD0000E9
:10136000FEE7000010B5044640F60040C4F202005B
:1013700080210122FFF7E4FAE0B2FFF717FF2046D1
:1013800010BD000092B043F6300740F20044C4F2B2
:101390000207C4F20204FFF7EDFA06AD281D2C2166
:1013A000FFF7F0F800260596CDE90366CDE9016662
:1013B00000963869022240F080503861386900F0A8
:1013C00080500090009846F600400096CFF6FE70E0
:1013D000215862F38F312150205800F44040009092
:1013E00000980120099010200A90284606920C9639
:1013F000FFF766FC20B1EFF3108072B6FEE700BF86
:101400000F20CDE9010601A80021CDE9036605966C
:10141000FFF748FB20B1EFF3108072B6FEE700BF84
:101420000026CDE909660196386804F5006840F0A9
:1014300010003860386840F6FF7100F0100001902D
:10144000019801963868002240F00400386038683E
:1014500040F6FF7B00F00400019001980196386887
:1014600040F080003860386800F0800001900198FA
:101470000196386840F001003860386800F00100DB
:10148000019001980196386840F002003860386891
:1014900000F00200019001980196386840F00800C1
:1014A0003860386800F00800019001984046FFF766
:1014B00047FA2046282100224FF0280AFFF740FA79
:1014C00004F540694846032100220325FFF738FA56
:1014D0004FF6FC7006A906AF61C148463946FFF7D2
:1014E00055F94FF6FF7006A961C104F580603946D1
:1014F000FFF74CF904F5C0503946CDE9065508967A
:10150000FFF744F949F6FF1006A961C1A4F5806010
:101510003946FFF73BF94FF2C77006A961C1204673
:101520003946FFF733F9CDF818B04FF0010B4046BC
:101530003946CDE907B60996FFF728F94FF4704010
:1015400006A961C140463946FFF720F920463946D1
:10155000CDE906ABCDE90866FFF718F91020CDE913
:101560000606204639460896FFF710F948463946E0
:10157000CDE9065BCDE90866FFF708F940F2700592
:10158000C2F20005A4F57441284640F8101F4FF43C
:1015900016510C22C0E90116C0E90366C0E9052610
:1015A000C661FFF75DFD28B1EFF3108072B600BF92
:1015B000FEE700BFFFF7D0FD484602210122FFF7FA
:1015C000BFF9204608210122FFF7BAF940F20C0BBF
:1015D000C2F2000B36E000BFDBF800000221013050
:1015E000E971CBF80000297145F28011C0F20101C8
:1015F000884224BF0020CBF800004BF2C531C9F26D
:10160000A211A0FB0112D10A4FF4616201FB12008A
:10161000A97281B248F6890251434A0D6A721201D9
:10162000A2EB5151A0EB8100287200200021FFF7AE
:101630007FFD2B7A6A7AA97A41F6AD00C0F60000E8
:10164000FEF794FE484602210022FFF779F948464A
:10165000022101224FF00108FFF772F9204608210C
:101660000022FFF76DF920461021FFF763F90746C6
:10167000204608210122FFF763F9204608210022B5
:10168000FFF75EF920461021FFF754F90646204681
:1016900008210122FFF754F9B80040EA4606204627
:1016A00008210022FFF74CF920461021FFF742F9EC
:1016B00040EA0607204608210122FFF741F92046AB
:1016C00008210022FFF73CF920461021FFF732F9EC
:1016D0000646204608210122FFF732F9B80040EA09
:1016E0004606204608210022FFF72AF9204610214D
:1016F000FFF720F940EA0607204608210122FFF7FC
:101700001FF9204608210022FFF71AF92046102170
:10171000FFF710F90646204608210122FFF710F9CD
:10172000B80040EA4606204608210022FFF708F9E3
:1017300020461021FFF7FEF840EA06072046082160
:101740000122FFF7FDF8204608210022FFF7F8F8F4
:1017500020461021FFF7EEF8064640EA470A2046E9
:1017600008210122FFF7ECF8287906F00102CAF3FC
:1017700040170AF040032AF07F0100282A706F709A
:10178000AB70E97008BF002A04D0022805D122B14D
:101790004FF00008404685F804806A79002A08BFA7
:1017A000002F05D0022A05D127B1002201E000BF99
:1017B00001226A71AF79002F08BF002B04D0022FDD
:1017C00004D11BB1002700E00127AF71EB79002B9A
:1017D00008BF5FEA016605D0022B05D1090603D0D8
:1017E000002300E00123EB7101283FF4F5AE012A4C
:1017F00008D1DBF8000002210138E971CBF80000C4
:101800006971F1E6012F07D1002040F20221CBF8E7
:101810000000E980F1E600BF012B1CD1E868272811
:101820000ED800200021FFF783FC2B7A6A7AA97A70
:1018300041F6AD00C0F60000FEF798FDE86805E04F
:10184000DBF800000130CBF8000000200130E86038
:101850000120FEF787FFDBF80000C5E630380A28D4
:1018600001D20120704700207047F1EE100A4FF6B8
:10187000FF71C0F2C03120EA010040F04070E1EE9B
:10188000100A704704000008000000000000000279
:101890000001000010000000000000000001020331
:1018A0000406070809000000000102030425303285
:1018B000643A253032643A2530326400E01800087A
:1018C0000000002010000000D0010008F0180008FF
:1018D0001000002010070000EC01000800000000CC
:1018E00001000000100000000024F4007B51010002
:040000050800019559
:00000001FF
