:020000040800F2
:100000007806002089010008E50B0008DD0B0008D8
:10001000E10B000891020008950E000800000000A6
:10002000000000000000000000000000890E000831
:100030009502000800000000850E00088D0E0008E3
:10004000A3010008A3010008A3010008A301000800
:10005000A3010008A3010008A3010008A3010008F0
:10006000A3010008A3010008A3010008A3010008E0
:10007000A3010008A3010008A3010008A3010008D0
:10008000A3010008A3010008A3010008A3010008C0
:10009000A3010008A3010008A3010008A3010008B0
:1000A000A3010008A3010008A3010008A3010008A0
:1000B000A3010008A3010008A3010008A301000890
:1000C000A3010008A3010008A3010008A301000880
:1000D000A3010008A3010008A3010008A301000870
:1000E000A3010008A3010008A301000800F002F822
:1000F00000F03AF80AA090E8000C82448344AAF188
:100100000107DA4501D100F02FF8AFF2090EBAE885
:100110000F0013F0010F18BFFB1A43F0010318473B
:100120003C1200005C120000103A24BF78C878C16D
:10013000FAD8520724BF30C830C144BF04680C60ED
:10014000704700000023002400250026103A28BF35
:1001500078C1FBD8520728BF30C148BF0B60704739
:100160001FB51FBD10B510BD00F058F81146FFF7C0
:10017000F7FF00F091FE00F076F803B4FFF7F2FF0E
:1001800003BC00F07DF8000009488047094800479B
:10019000FEE7FEE7FEE7FEE7FEE7FEE7FEE7FEE737
:1001A000FEE7FEE704480549054A064B7047000094
:1001B000910E0008ED00000878000020780600206D
:1001C00078020020780200204FF0000200B51346AC
:1001D00094469646203922BFA0E80C50A0E80C5067
:1001E000B1F12001BFF4F7AF090728BFA0E80C5018
:1001F00048BF0CC05DF804EB890028BF40F8042B11
:1002000008BF704748BF20F8022B11F0804F18BF7D
:1002100000F8012B7047704770477047754600F033
:100220002BF8AE4605006946534620F00700854688
:1002300018B020B5FFF7B6FFBDE820404FF000062C
:100240004FF000074FF000084FF0000BAC46ACE851
:10025000C009ACE8C009ACE8C009ACE8C00921F0AD
:1002600007018D46704710B50446AFF30080204665
:10027000BDE81040FFF781BF004870471000002024
:1002800001491820ABBEFEE72600020070470000BF
:10029000FEE7000070470000B0B5044600F024F906
:1002A000054640F20000C2F200000078611C18BF51
:1002B000044400BF00F018F9401BA042FAD3B0BDBF
:1002C0002DE9F04F82B00E68002E00F0038140F25D
:1002D0000C4C41F200424FF6FF7EC4F2010CC4F216
:1002E0000102042700240123C1F2100E4FF0000A7E
:1002F0004FF00009904208BF0327009745E000BF78
:10030000012704F00C030F229A402BEA020207FA9D
:1003100003F34FEA9A051A4346F82520D1F804B0B2
:1003200040F20045C4F201055FEACB322A6854BFAF
:1003300022EA080242EA08022A606A685FEA8B330E
:1003400054BF22EA080242EA08026A605FEACB234D
:10035000AA6854BF22EA080242EA08025FEA8B2335
:10036000AA60DCF800204FF0010354BF22EA080223
:1003700042EA0802CCF800200E680AF1010A36FAB7
:100380000AF204F1040400F0A58003FA0AF816EA60
:10039000080FF1D04E68764512DC122E56D8DFE8F1
:1003A00006F0350B45495555555555555555555537
:1003B0005555554D510000BFD1F80C9046E000BF97
:1003C0004FF6FF72C1F2210296420FDC0022C1F209
:1003D000110296421AD00022C1F21202964215D0A2
:1003E0000022C1F22102964210D02FE00022C1F279
:1003F000220296420AD00022C1F23102964205D072
:100400000022C1F23202964220D100BF8A684AB16E
:10041000012A14BFC0F81480C0F810804FF00809FA
:1004200014E000BF4FF0040910E000BFCA6802F1F9
:1004300008090BE04FF0000908E000BFCA6802F1AC
:10044000040903E0CA6802F10C0900BF224606460F
:10045000BAF1080F24BF203A043637680F259540BB
:1004600027EA050509FA02F22A433260CA79D20660
:100470007FF582AF41F21803C4F202031A6842F01A
:1004800001021A601A6802F001020192019A40F218
:100490000042C4F20102A2F57E762AF0030256F869
:1004A00002B040F60002C4F20102904210D040F6C1
:1004B0000042C4F2010290423FF422AF41F2000236
:1004C000C4F20102009F904208BF022719E700BF53
:1004D000002716E702B0BDE8F08F0000002A08BF31
:1004E000090401617047000040F27000C2F2000090
:1004F0000068704740F2000040F27001C2F2000054
:10050000C2F2000100780A681044086070470000D9
:1005100080B542F20000C4F20200016841F010010F
:100520000160032000F07AF80F2000F005F800F0D9
:1005300027F8002080BD000070B540F20006C2F22E
:10054000000640F208013278C2F200014FF47A73DB
:100550000968B3FBF2F20446B1FBF2F1084600F081
:1005600027FB0F2C4FF0010508D838B94FF0FF30AA
:1005700021460022002500F025F87460284670BD51
:1005800082B041F21800C4F202000168022241F078
:1005900001010160016801F00101019101994168C7
:1005A00041F080514160406800F080500090009818
:1005B0000420C4F20100016862F31A61016002B014
:1005C0007047000010B54EF60C5CCEF2000CDCF863
:1005D0000030C3F3022E8EF00704042C28BF04243D
:1005E000BEF103034FF0FF3E0EFA04F438BF0023C0
:1005F000A14399400EFA03F39A43114300F00F020E
:1006000000F160430901043A03F5644362440028A1
:1006100048BF02F10C03197010BD00004EF60C51DA
:10062000CEF200010A684FF6FF031A4060F30A2277
:1006300042F0806040F0FD70086070472DE9F043A3
:1006400081B0002800F0858042F20008C4F2020860
:100650000446D8F800000D4600F0070088420CD28E
:10066000D8F8000020F007002843C8F80000D8F8A8
:10067000000000F00700A8426BD1206841F2040995
:100680008107C4F2020917D5410705D5D9F8001032
:1006900041F4E061C9F80010010705D5D9F8001050
:1006A00041F46051C9F80010D9F80010A26821F097
:1006B000F0011143C9F80010C00741D1D8F800007B
:1006C00000F00700A8420CD9D8F8000020F007007D
:1006D0002843C8F80000D8F8000000F00700A8423E
:1006E00037D12068410707D5D9F80010E26821F416
:1006F000E0611143C9F80010000708D5D9F80000DF
:10070000216920F4605040EAC100C9F80000D9F81E
:10071000002002F00C00082841F20020C0F27A000C
:1007200050D141F24C33C2F38341C0F60003595C0F
:10073000D2033BD440F60010C0F23D00484341E0F4
:10074000606802280AD001282AD159F8041C8903BC
:1007500008D4012001B0BDE8F08300BF59F8041CA3
:100760008901F6D5D9F8001021F003010843C9F832
:100770000000FFF7B9FE064641F28837D9F80000BD
:10078000616800F00C00B0EB810F97D0FFF7ACFE72
:10079000801BB842F2D9032001B0BDE8F08300BF4E
:1007A00059F8041C8907D4D5DCE700BFD9F800202C
:1007B00041F2EA23C2F34042C0F600039A5C484388
:1007C000B0FBF2F0D9F8001041F2EC22C1F30311B2
:1007D000C0F60002515C40F2080220FA01F140F23A
:1007E0000400C2F200000068C2F200021160FFF7CC
:1007F000A3FE002001B0BDE8F08300002DE9F04128
:1008000082B0002868D00446007841F20006C00794
:10081000C4F2020625D0706800F00C0004281BD03A
:10082000706800F00C00082802D17068C00313D46F
:100830006068002800F06881B0F5A02F00F07C818E
:10084000B0F5803F00F07C81306820F4803030606B
:10085000306820F4802076E13068800301D560683C
:10086000D0B32078800718D5706810F00C0F07D02F
:10087000706800F00C0008286ED17068C0036BD45B
:100880003068800702D52069012825D13068616968
:1008900020F0F80040EAC1003060207800071FD443
:1008A0002078400732D4E56995B1706800F00C00FB
:1008B000082840F08F80012D0ED07068216A00F466
:1008C00080328A4208D1616A00F47010884203D1F4
:1008D000002002B0BDE8F081012002B0BDE8F08147
:1008E000A069002862D00020C4F242200121C0F893
:1008F0008014FFF7F9FD0546706A800700F18C80CF
:10090000FFF7F2FD401B0228F6D92AE1F06910F04A
:10091000805808D1F06940F08050F061F06900F033
:1009200080500090009847F20007C4F20007386832
:10093000C00529D4386840F480703860FFF7D4FDD2
:10094000054600BF3868C0051ED4FFF7CDFD401B2B
:100950006428F7D905E100BF2069002840F20000B3
:10096000C4F2422000F0828001210160FFF7BCFD4B
:10097000054600BF306880073FF588AFFFF7B4FD3C
:10098000401B0228F6D9ECE0E068002800F08080E7
:10099000052800F09780012800F09880306A20F048
:1009A00001003062306A20F0040092E00020C4F2BE
:1009B00042200021C0F88014FFF796FD054600BFD5
:1009C000706A80077FF56CAFFFF78EFD401B022831
:1009D000F6D9C6E00027C4F2422700203866FFF7A8
:1009E00083FD022D05460BD13068800140F1BE80A9
:1009F000FFF77AFD401B02284FF00300F4D968E7A7
:100A0000306880017FF564AFFFF76EFD401B022860
:100A10004FF00300F4D95CE740F20800C2F2000096
:100A2000006844F6D351C1F26201A0FB0101480AFB
:100A3000019000BF00BF0198411E002801913FF4C2
:100A40002FAF00BF0198411E002801913FF428AF4D
:100A500000BF0198411E002801913FF421AF00BF63
:100A60000198411E00280191E4D119E7002101609D
:100A7000FFF73AFD054600BF306880077FF50DAFF0
:100A8000FFF732FD401B02284FF00300F4D920E7A6
:100A9000306A20F001003062306A20F004003062D9
:100AA000FFF722FD054641F2883700BF306A800714
:100AB00020D5FFF719FD401BB8424FF00300F5D9D0
:100AC00007E700BF306A40F004003062306A40F04F
:100AD00001003062FFF708FD054641F2883700BF8C
:100AE000306A800706D4FFF7FFFC401BB842F7D9F5
:100AF00037E000BFB8F1000F7FF4D5AEF06920F009
:100B00008050F061CFE600BF306820F48030306064
:100B1000306820F480203060FFF7E6FC054600BF17
:100B2000306880037FF59DAEFFF7DEFC401B642834
:100B30004FF00300F4D9CCE6306840F480203060F8
:100B4000306840F480303060FFF7CEFC054600BFCF
:100B5000306880033FF585AEFFF7C6FC401B642874
:100B6000F6D9032002B0BDE8F08100BF206AB0F5DD
:100B7000803F05D17168A26821F400311143716092
:100B80007168626A21F47411114308437060012096
:100B90003866FFF7A9FC0446306880013FF598AE3F
:100BA000FFF7A2FC001B02284FF00300F4D990E6E7
:100BB000411E0020B0EB116F1CBF012070474EF2A8
:100BC0001002CEF2000251604EF62351CEF2000127
:100BD000F0230B700721906011607047FEE7000062
:100BE000FEE70000FEE7000070B540F60004C4F226
:100BF00001040D460646C1F3800220460221FFF79C
:100C00006DFC204601210122FFF768FC20460121EE
:100C10000022FFF763FCC5F3400220460221FFF7E4
:100C20005DFC204601210122FFF758FC20460121EE
:100C30000022FFF753FC05F0010220460221FFF7D6
:100C40004DFC204601210122FFF748FC20460121EE
:100C50000022FFF743FC41F2FC20C0F6000000EB4D
:100C6000C600455D204605F001020221FFF736FC73
:100C7000204601210122FFF731FC204601210022FC
:100C8000FFF72CFCC5F3400220460221FFF726FCAB
:100C9000204601210122FFF721FC204601210022EC
:100CA000FFF71CFCC5F3800220460221FFF716FC6B
:100CB000204601210122FFF711FC204601210022DC
:100CC000FFF70CFCC5F3C00220460221FFF706FC2B
:100CD000204601210122FFF701FC204601210022CC
:100CE000FFF7FCFBC5F3001220460221FFF7F6FBDD
:100CF000204601210122FFF7F1FB204601210022BD
:100D0000FFF7ECFBC5F3401220460221FFF7E6FB9C
:100D1000204601210122FFF7E1FB204601210022AC
:100D2000FFF7DCFBC5F3801220460221FFF7D6FB5C
:100D3000204601210122FFF7D1FB2046012100229C
:100D4000FFF7CCFBEA0920460221FFF7C7FB20464C
:100D500001210122FFF7C2FB204601210022FFF7FB
:100D6000BDFB204604210122FFF7B8FB20460421E9
:100D70000022FFF7B3FB0120FFF78EFA2046022185
:100D80000122FFF7ABFB204601210122FFF7A6FB62
:100D9000204601210022FFF7A1FB2046022101226B
:100DA000FFF79CFB204601210122FFF797FB20461D
:100DB00001210022FFF792FB204602210122FFF7CA
:100DC0008DFB204601210122FFF788FB20460121EF
:100DD0000022FFF783FB204602210122FFF77EFB62
:100DE000204601210122FFF779FB20460121002244
:100DF000FFF774FB204602210122FFF76FFB20461C
:100E000001210122FFF76AFB204601210022FFF7A2
:100E100065FB204602210122FFF760FB20460121ED
:100E20000122FFF75BFB204601210022FFF756FB62
:100E3000204602210122FFF751FB20460121012219
:100E4000FFF74CFB204601210022FFF747FB20461D
:100E500002210122FFF742FB204601210122FFF778
:100E60003DFB204601210022FFF738FB20460421EC
:100E70000122FFF733FB204604210022BDE8704029
:100E8000FFF72CBB7047000070470000FFF732BB34
:100E900070470000FEE7000090B0FFF739FB06AC9A
:100EA000201D2421FFF790F90220069001200A90CE
:100EB00010200B90002520460D95FFF79FFC28B1D0
:100EC000EFF3108072B600BFFEE700BF0F20CDE940
:100ED000010501A80021CDE903550595FFF7AEFBFB
:100EE00020B1EFF3108072B6FEE700BF4FF00009AB
:100EF00041F21800CDE90899C4F20200016840F6F9
:100F0000000541F0100101600168C4F2010501F023
:100F10001001019101990168002241F02001016056
:100F200001684FF0070A01F0200101910199016861
:100F300041F004010160016801F00401019101998F
:100F4000016841F0080101600068072100F0080015
:100F5000019001982846FFF7C1FA05F58064204604
:100F60004FF4004100224FF40048FFF7B7FA4FF466
:100F7000604006AE0690032705F5006031460797EE
:100F8000FFF79EF905F540603146CDE90677FFF79A
:100F900097F9CDF818A04FF0010A4FF0020B284640
:100FA0003146CDE907A9CDF824B0FFF789F949F614
:100FB000F870CDE9060728463146FFF781F947F674
:100FC000FF70CDE9060720463146FFF779F9204644
:100FD0003146CDE9068ACDE9089BFFF771F9042077
:100FE000C4F20100016841F0E06141F40041016098
:100FF000002400BF00200021FFF7F6FD00200121A2
:10100000FFF7F2FD00200221FFF7EEFD0020032193
:10101000FFF7EAFD00200421FFF7E6FD002005218F
:10102000FFF7E2FD00200621FFF7DEFD002007218B
:10103000FFF7DAFD312C04F10104DBD3002400BFFB
:1010400001200021FFF7D0FD01200121FFF7CCFD99
:1010500001200221FFF7C8FD01200321FFF7C4FD95
:1010600001200421FFF7C0FD01200521FFF7BCFD91
:1010700001200621FFF7B8FD01200721FFF7B4FD8D
:10108000312C04F10104DBD3002400BF0220002135
:10109000FFF7AAFD02200121FFF7A6FD0220022191
:1010A000FFF7A2FD02200321FFF79EFD022004218D
:1010B000FFF79AFD02200521FFF796FD0220062189
:1010C000FFF792FD02200721FFF78EFD312C04F17E
:1010D0000104DBD3002400BF03200021FFF784FDBF
:1010E00003200121FFF780FD03200221FFF77CFD93
:1010F00003200321FFF778FD03200421FFF774FD8F
:1011000003200521FFF770FD03200621FFF76CFD8A
:1011100003200721FFF768FD312C04F10104DBD324
:10112000002400BF04200021FFF75EFD0420012100
:10113000FFF75AFD04200221FFF756FD042003218A
:10114000FFF752FD04200421FFF74EFD0420052186
:10115000FFF74AFD04200621FFF746FD0420072182
:10116000FFF742FD312C04F10104DBD3002400BF62
:1011700005200021FFF738FD05200121FFF734FD90
:1011800005200221FFF730FD05200321FFF72CFD8C
:1011900005200421FFF728FD05200521FFF724FD88
:1011A00005200621FFF720FD05200721FFF71CFD84
:1011B000312C04F10104DBD3002400BF0620002100
:1011C000FFF712FD06200121FFF70EFD0620022188
:1011D000FFF70AFD06200321FFF706FD0620042184
:1011E000FFF702FD06200521FFF7FEFC0620062181
:1011F000FFF7FAFC06200721FFF7F6FC312C04F17B
:101200000104DBD3002400BF07200021FFF7ECFC22
:1012100007200121FFF7E8FC07200221FFF7E4FC8B
:1012200007200321FFF7E0FC07200421FFF7DCFC87
:1012300007200521FFF7D8FC07200621FFF7D4FC83
:1012400007200721FFF7D0FC312C04F10104DBD388
:10125000002400BF08200021FFF7C6FC0820012160
:10126000FFF7C2FC08200221FFF7BEFC0820032183
:10127000FFF7BAFC08200421FFF7B6FC082005217F
:10128000FFF7B2FC08200621FFF7AEFC082007217B
:10129000FFF7AAFC312C04F10104DBD3002400BFCA
:1012A00009200021FFF7A0FC09200121FFF79CFC89
:1012B00009200221FFF798FC09200321FFF794FC85
:1012C00009200421FFF790FC09200521FFF78CFC81
:1012D00009200621FFF788FC09200721FFF784FC7D
:1012E000312C04F10104DBD382E60102000000008E
:1012F000000000000102030406070809FFC1AEB6A2
:10130000BAC1FFFFFFFFBD80BFFFFFFFFFBD9EAE65
:10131000B6B9FFFFFFDEBEBAB4CEFFFFFFE7EBEDCD
:1013200080EFFFFFFFD8BABABAC6FFFFFFC3B5B65A
:10133000B6CFFFFFFFFE8EF6FAFCFFFFFFC9B6B681
:10134000B6C9FFFFFFF9B6B6D6E1FFFF02030405F9
:10135000060708090A0B0C0D0E0F10108013000869
:101360000000002010000000280100089013000871
:101370001000002068060000440100080000000082
:1013800001000000100000000024F4000000000034
:04000005080000ED02
:00000001FF
